{
	"Inheritance.sol": {
		"Identifier": {
			"abi": [
				{
					"inputs": [
						{
							"internalType": "uint256",
							"name": "_dividend",
							"type": "uint256"
						}
					],
					"name": "getExactDividedBy2And3",
					"outputs": [
						{
							"internalType": "uint256",
							"name": "",
							"type": "uint256"
						},
						{
							"internalType": "uint256",
							"name": "",
							"type": "uint256"
						}
					],
					"stateMutability": "pure",
					"type": "function"
				},
				{
					"inputs": [
						{
							"internalType": "uint256",
							"name": "_dividend",
							"type": "uint256"
						}
					],
					"name": "getExactDividedBy2And3WithoutModifier",
					"outputs": [
						{
							"internalType": "uint256",
							"name": "",
							"type": "uint256"
						},
						{
							"internalType": "uint256",
							"name": "",
							"type": "uint256"
						}
					],
					"stateMutability": "pure",
					"type": "function"
				}
			],
			"devdoc": {
				"kind": "dev",
				"methods": {},
				"version": 1
			},
			"evm": {
				"assembly": "    /* \"Inheritance.sol\":1146:1856  contract Identifier is Base1 {\r... */\n  mstore(0x40, 0x80)\n  callvalue\n  dup1\n  iszero\n  tag_1\n  jumpi\n  0x00\n  dup1\n  revert\ntag_1:\n  pop\n  dataSize(sub_0)\n  dup1\n  dataOffset(sub_0)\n  0x00\n  codecopy\n  0x00\n  return\nstop\n\nsub_0: assembly {\n        /* \"Inheritance.sol\":1146:1856  contract Identifier is Base1 {\r... */\n      mstore(0x40, 0x80)\n      callvalue\n      dup1\n      iszero\n      tag_1\n      jumpi\n      0x00\n      dup1\n      revert\n    tag_1:\n      pop\n      jumpi(tag_2, lt(calldatasize, 0x04))\n      shr(0xe0, calldataload(0x00))\n      dup1\n      0x4534a438\n      eq\n      tag_3\n      jumpi\n      dup1\n      0xd2406c78\n      eq\n      tag_4\n      jumpi\n    tag_2:\n      0x00\n      dup1\n      revert\n        /* \"Inheritance.sol\":1283:1468  function getExactDividedBy2And3(uint _dividend) public exactDividedBy2And3(_dividend) pure returns(uint, uint) {\r... */\n    tag_3:\n      tag_5\n      0x04\n      dup1\n      calldatasize\n      sub\n      dup2\n      add\n      swap1\n      tag_6\n      swap2\n      swap1\n      tag_7\n      jump\t// in\n    tag_6:\n      tag_8\n      jump\t// in\n    tag_5:\n      mload(0x40)\n      tag_9\n      swap3\n      swap2\n      swap1\n      tag_10\n      jump\t// in\n    tag_9:\n      mload(0x40)\n      dup1\n      swap2\n      sub\n      swap1\n      return\n        /* \"Inheritance.sol\":1528:1732  function getExactDividedBy2And3WithoutModifier(uint _dividend) public pure returns(uint, uint){\r... */\n    tag_4:\n      tag_11\n      0x04\n      dup1\n      calldatasize\n      sub\n      dup2\n      add\n      swap1\n      tag_12\n      swap2\n      swap1\n      tag_7\n      jump\t// in\n    tag_12:\n      tag_13\n      jump\t// in\n    tag_11:\n      mload(0x40)\n      tag_14\n      swap3\n      swap2\n      swap1\n      tag_10\n      jump\t// in\n    tag_14:\n      mload(0x40)\n      dup1\n      swap2\n      sub\n      swap1\n      return\n        /* \"Inheritance.sol\":1283:1468  function getExactDividedBy2And3(uint _dividend) public exactDividedBy2And3(_dividend) pure returns(uint, uint) {\r... */\n    tag_8:\n        /* \"Inheritance.sol\":1382:1386  uint */\n      0x00\n        /* \"Inheritance.sol\":1388:1392  uint */\n      dup1\n        /* \"Inheritance.sol\":1358:1367  _dividend */\n      dup3\n        /* \"Inheritance.sol\":1412:1460  getExactDividedBy2And3WithoutModifier(_dividend) */\n      tag_17\n        /* \"Inheritance.sol\":1450:1459  _dividend */\n      dup5\n        /* \"Inheritance.sol\":1412:1449  getExactDividedBy2And3WithoutModifier */\n      tag_13\n        /* \"Inheritance.sol\":1412:1460  getExactDividedBy2And3WithoutModifier(_dividend) */\n      jump\t// in\n    tag_17:\n        /* \"Inheritance.sol\":1405:1460  return getExactDividedBy2And3WithoutModifier(_dividend) */\n      swap3\n      pop\n      swap3\n      pop\n        /* \"Inheritance.sol\":1828:1829  0 */\n      0x00\n        /* \"Inheritance.sol\":1823:1824  2 */\n      0x02\n        /* \"Inheritance.sol\":1818:1820  _a */\n      dup3\n        /* \"Inheritance.sol\":1818:1824  _a % 2 */\n      tag_18\n      swap2\n      swap1\n      tag_19\n      jump\t// in\n    tag_18:\n        /* \"Inheritance.sol\":1818:1829  _a % 2 == 0 */\n      eq\n        /* \"Inheritance.sol\":1818:1844  _a % 2 == 0 && _a % 3 == 0 */\n      dup1\n      iszero\n      tag_20\n      jumpi\n      pop\n        /* \"Inheritance.sol\":1843:1844  0 */\n      0x00\n        /* \"Inheritance.sol\":1838:1839  3 */\n      0x03\n        /* \"Inheritance.sol\":1833:1835  _a */\n      dup3\n        /* \"Inheritance.sol\":1833:1839  _a % 3 */\n      tag_21\n      swap2\n      swap1\n      tag_19\n      jump\t// in\n    tag_21:\n        /* \"Inheritance.sol\":1833:1844  _a % 3 == 0 */\n      eq\n        /* \"Inheritance.sol\":1818:1844  _a % 2 == 0 && _a % 3 == 0 */\n    tag_20:\n        /* \"Inheritance.sol\":1810:1845  require(_a % 2 == 0 && _a % 3 == 0) */\n      tag_22\n      jumpi\n      0x00\n      dup1\n      revert\n    tag_22:\n        /* \"Inheritance.sol\":1283:1468  function getExactDividedBy2And3(uint _dividend) public exactDividedBy2And3(_dividend) pure returns(uint, uint) {\r... */\n      pop\n      swap2\n      pop\n      swap2\n      jump\t// out\n        /* \"Inheritance.sol\":1528:1732  function getExactDividedBy2And3WithoutModifier(uint _dividend) public pure returns(uint, uint){\r... */\n    tag_13:\n        /* \"Inheritance.sol\":1611:1615  uint */\n      0x00\n        /* \"Inheritance.sol\":1617:1621  uint */\n      dup1\n        /* \"Inheritance.sol\":1633:1642  uint div2 */\n      0x00\n        /* \"Inheritance.sol\":1657:1658  2 */\n      0x02\n        /* \"Inheritance.sol\":1645:1654  _dividend */\n      dup5\n        /* \"Inheritance.sol\":1645:1658  _dividend / 2 */\n      tag_24\n      swap2\n      swap1\n      tag_25\n      jump\t// in\n    tag_24:\n        /* \"Inheritance.sol\":1633:1658  uint div2 = _dividend / 2 */\n      swap1\n      pop\n        /* \"Inheritance.sol\":1669:1678  uint div3 */\n      0x00\n        /* \"Inheritance.sol\":1693:1694  3 */\n      0x03\n        /* \"Inheritance.sol\":1681:1690  _dividend */\n      dup6\n        /* \"Inheritance.sol\":1681:1694  _dividend / 3 */\n      tag_26\n      swap2\n      swap1\n      tag_25\n      jump\t// in\n    tag_26:\n        /* \"Inheritance.sol\":1669:1694  uint div3 = _dividend / 3 */\n      swap1\n      pop\n        /* \"Inheritance.sol\":1713:1717  div2 */\n      dup2\n        /* \"Inheritance.sol\":1719:1723  div3 */\n      dup2\n        /* \"Inheritance.sol\":1705:1724  return (div2, div3) */\n      swap4\n      pop\n      swap4\n      pop\n      pop\n      pop\n        /* \"Inheritance.sol\":1528:1732  function getExactDividedBy2And3WithoutModifier(uint _dividend) public pure returns(uint, uint){\r... */\n      swap2\n      pop\n      swap2\n      jump\t// out\n        /* \"#utility.yul\":7:146   */\n    tag_28:\n        /* \"#utility.yul\":53:58   */\n      0x00\n        /* \"#utility.yul\":91:97   */\n      dup2\n        /* \"#utility.yul\":78:98   */\n      calldataload\n        /* \"#utility.yul\":69:98   */\n      swap1\n      pop\n        /* \"#utility.yul\":107:140   */\n      tag_30\n        /* \"#utility.yul\":134:139   */\n      dup2\n        /* \"#utility.yul\":107:140   */\n      tag_31\n      jump\t// in\n    tag_30:\n        /* \"#utility.yul\":7:146   */\n      swap3\n      swap2\n      pop\n      pop\n      jump\t// out\n        /* \"#utility.yul\":152:481   */\n    tag_7:\n        /* \"#utility.yul\":211:217   */\n      0x00\n        /* \"#utility.yul\":260:262   */\n      0x20\n        /* \"#utility.yul\":248:257   */\n      dup3\n        /* \"#utility.yul\":239:246   */\n      dup5\n        /* \"#utility.yul\":235:258   */\n      sub\n        /* \"#utility.yul\":231:263   */\n      slt\n        /* \"#utility.yul\":228:347   */\n      iszero\n      tag_33\n      jumpi\n        /* \"#utility.yul\":266:345   */\n      tag_34\n      tag_35\n      jump\t// in\n    tag_34:\n        /* \"#utility.yul\":228:347   */\n    tag_33:\n        /* \"#utility.yul\":386:387   */\n      0x00\n        /* \"#utility.yul\":411:464   */\n      tag_36\n        /* \"#utility.yul\":456:463   */\n      dup5\n        /* \"#utility.yul\":447:453   */\n      dup3\n        /* \"#utility.yul\":436:445   */\n      dup6\n        /* \"#utility.yul\":432:454   */\n      add\n        /* \"#utility.yul\":411:464   */\n      tag_28\n      jump\t// in\n    tag_36:\n        /* \"#utility.yul\":401:464   */\n      swap2\n      pop\n        /* \"#utility.yul\":357:474   */\n      pop\n        /* \"#utility.yul\":152:481   */\n      swap3\n      swap2\n      pop\n      pop\n      jump\t// out\n        /* \"#utility.yul\":487:605   */\n    tag_37:\n        /* \"#utility.yul\":574:598   */\n      tag_39\n        /* \"#utility.yul\":592:597   */\n      dup2\n        /* \"#utility.yul\":574:598   */\n      tag_40\n      jump\t// in\n    tag_39:\n        /* \"#utility.yul\":569:572   */\n      dup3\n        /* \"#utility.yul\":562:599   */\n      mstore\n        /* \"#utility.yul\":487:605   */\n      pop\n      pop\n      jump\t// out\n        /* \"#utility.yul\":611:943   */\n    tag_10:\n        /* \"#utility.yul\":732:736   */\n      0x00\n        /* \"#utility.yul\":770:772   */\n      0x40\n        /* \"#utility.yul\":759:768   */\n      dup3\n        /* \"#utility.yul\":755:773   */\n      add\n        /* \"#utility.yul\":747:773   */\n      swap1\n      pop\n        /* \"#utility.yul\":783:854   */\n      tag_42\n        /* \"#utility.yul\":851:852   */\n      0x00\n        /* \"#utility.yul\":840:849   */\n      dup4\n        /* \"#utility.yul\":836:853   */\n      add\n        /* \"#utility.yul\":827:833   */\n      dup6\n        /* \"#utility.yul\":783:854   */\n      tag_37\n      jump\t// in\n    tag_42:\n        /* \"#utility.yul\":864:936   */\n      tag_43\n        /* \"#utility.yul\":932:934   */\n      0x20\n        /* \"#utility.yul\":921:930   */\n      dup4\n        /* \"#utility.yul\":917:935   */\n      add\n        /* \"#utility.yul\":908:914   */\n      dup5\n        /* \"#utility.yul\":864:936   */\n      tag_37\n      jump\t// in\n    tag_43:\n        /* \"#utility.yul\":611:943   */\n      swap4\n      swap3\n      pop\n      pop\n      pop\n      jump\t// out\n        /* \"#utility.yul\":1030:1215   */\n    tag_25:\n        /* \"#utility.yul\":1070:1071   */\n      0x00\n        /* \"#utility.yul\":1087:1107   */\n      tag_47\n        /* \"#utility.yul\":1105:1106   */\n      dup3\n        /* \"#utility.yul\":1087:1107   */\n      tag_40\n      jump\t// in\n    tag_47:\n        /* \"#utility.yul\":1082:1107   */\n      swap2\n      pop\n        /* \"#utility.yul\":1121:1141   */\n      tag_48\n        /* \"#utility.yul\":1139:1140   */\n      dup4\n        /* \"#utility.yul\":1121:1141   */\n      tag_40\n      jump\t// in\n    tag_48:\n        /* \"#utility.yul\":1116:1141   */\n      swap3\n      pop\n        /* \"#utility.yul\":1160:1161   */\n      dup3\n        /* \"#utility.yul\":1150:1185   */\n      tag_49\n      jumpi\n        /* \"#utility.yul\":1165:1183   */\n      tag_50\n      tag_51\n      jump\t// in\n    tag_50:\n        /* \"#utility.yul\":1150:1185   */\n    tag_49:\n        /* \"#utility.yul\":1207:1208   */\n      dup3\n        /* \"#utility.yul\":1204:1205   */\n      dup3\n        /* \"#utility.yul\":1200:1209   */\n      div\n        /* \"#utility.yul\":1195:1209   */\n      swap1\n      pop\n        /* \"#utility.yul\":1030:1215   */\n      swap3\n      swap2\n      pop\n      pop\n      jump\t// out\n        /* \"#utility.yul\":1221:1298   */\n    tag_40:\n        /* \"#utility.yul\":1258:1265   */\n      0x00\n        /* \"#utility.yul\":1287:1292   */\n      dup2\n        /* \"#utility.yul\":1276:1292   */\n      swap1\n      pop\n        /* \"#utility.yul\":1221:1298   */\n      swap2\n      swap1\n      pop\n      jump\t// out\n        /* \"#utility.yul\":1304:1480   */\n    tag_19:\n        /* \"#utility.yul\":1336:1337   */\n      0x00\n        /* \"#utility.yul\":1353:1373   */\n      tag_54\n        /* \"#utility.yul\":1371:1372   */\n      dup3\n        /* \"#utility.yul\":1353:1373   */\n      tag_40\n      jump\t// in\n    tag_54:\n        /* \"#utility.yul\":1348:1373   */\n      swap2\n      pop\n        /* \"#utility.yul\":1387:1407   */\n      tag_55\n        /* \"#utility.yul\":1405:1406   */\n      dup4\n        /* \"#utility.yul\":1387:1407   */\n      tag_40\n      jump\t// in\n    tag_55:\n        /* \"#utility.yul\":1382:1407   */\n      swap3\n      pop\n        /* \"#utility.yul\":1426:1427   */\n      dup3\n        /* \"#utility.yul\":1416:1451   */\n      tag_56\n      jumpi\n        /* \"#utility.yul\":1431:1449   */\n      tag_57\n      tag_51\n      jump\t// in\n    tag_57:\n        /* \"#utility.yul\":1416:1451   */\n    tag_56:\n        /* \"#utility.yul\":1472:1473   */\n      dup3\n        /* \"#utility.yul\":1469:1470   */\n      dup3\n        /* \"#utility.yul\":1465:1474   */\n      mod\n        /* \"#utility.yul\":1460:1474   */\n      swap1\n      pop\n        /* \"#utility.yul\":1304:1480   */\n      swap3\n      swap2\n      pop\n      pop\n      jump\t// out\n        /* \"#utility.yul\":1672:1852   */\n    tag_51:\n        /* \"#utility.yul\":1720:1797   */\n      0x4e487b7100000000000000000000000000000000000000000000000000000000\n        /* \"#utility.yul\":1717:1718   */\n      0x00\n        /* \"#utility.yul\":1710:1798   */\n      mstore\n        /* \"#utility.yul\":1817:1821   */\n      0x12\n        /* \"#utility.yul\":1814:1815   */\n      0x04\n        /* \"#utility.yul\":1807:1822   */\n      mstore\n        /* \"#utility.yul\":1841:1845   */\n      0x24\n        /* \"#utility.yul\":1838:1839   */\n      0x00\n        /* \"#utility.yul\":1831:1846   */\n      revert\n        /* \"#utility.yul\":1981:2098   */\n    tag_35:\n        /* \"#utility.yul\":2090:2091   */\n      0x00\n        /* \"#utility.yul\":2087:2088   */\n      dup1\n        /* \"#utility.yul\":2080:2092   */\n      revert\n        /* \"#utility.yul\":2104:2226   */\n    tag_31:\n        /* \"#utility.yul\":2177:2201   */\n      tag_65\n        /* \"#utility.yul\":2195:2200   */\n      dup2\n        /* \"#utility.yul\":2177:2201   */\n      tag_40\n      jump\t// in\n    tag_65:\n        /* \"#utility.yul\":2170:2175   */\n      dup2\n        /* \"#utility.yul\":2167:2202   */\n      eq\n        /* \"#utility.yul\":2157:2220   */\n      tag_66\n      jumpi\n        /* \"#utility.yul\":2216:2217   */\n      0x00\n        /* \"#utility.yul\":2213:2214   */\n      dup1\n        /* \"#utility.yul\":2206:2218   */\n      revert\n        /* \"#utility.yul\":2157:2220   */\n    tag_66:\n        /* \"#utility.yul\":2104:2226   */\n      pop\n      jump\t// out\n\n    auxdata: 0xa2646970667358221220d22d2cb74169dc70fca232b65483b451421da41c0996dffda204b4ce9cf1699664736f6c63430008070033\n}\n",
				"bytecode": {
					"linkReferences": {},
					"object": "608060405234801561001057600080fd5b5061027e806100206000396000f3fe608060405234801561001057600080fd5b50600436106100365760003560e01c80634534a4381461003b578063d2406c781461006c575b600080fd5b6100556004803603810190610050919061012c565b61009d565b604051610063929190610168565b60405180910390f35b6100866004803603810190610081919061012c565b6100e5565b604051610094929190610168565b60405180910390f35b600080826100aa846100e5565b9250925060006002826100bd91906101cc565b1480156100d6575060006003826100d491906101cc565b145b6100df57600080fd5b50915091565b60008060006002846100f79190610191565b905060006003856101089190610191565b90508181935093505050915091565b60008135905061012681610231565b92915050565b6000602082840312156101425761014161022c565b5b600061015084828501610117565b91505092915050565b610162816101c2565b82525050565b600060408201905061017d6000830185610159565b61018a6020830184610159565b9392505050565b600061019c826101c2565b91506101a7836101c2565b9250826101b7576101b66101fd565b5b828204905092915050565b6000819050919050565b60006101d7826101c2565b91506101e2836101c2565b9250826101f2576101f16101fd565b5b828206905092915050565b7f4e487b7100000000000000000000000000000000000000000000000000000000600052601260045260246000fd5b600080fd5b61023a816101c2565b811461024557600080fd5b5056fea2646970667358221220d22d2cb74169dc70fca232b65483b451421da41c0996dffda204b4ce9cf1699664736f6c63430008070033",
					"opcodes": "PUSH1 0x80 PUSH1 0x40 MSTORE CALLVALUE DUP1 ISZERO PUSH2 0x10 JUMPI PUSH1 0x0 DUP1 REVERT JUMPDEST POP PUSH2 0x27E DUP1 PUSH2 0x20 PUSH1 0x0 CODECOPY PUSH1 0x0 RETURN INVALID PUSH1 0x80 PUSH1 0x40 MSTORE CALLVALUE DUP1 ISZERO PUSH2 0x10 JUMPI PUSH1 0x0 DUP1 REVERT JUMPDEST POP PUSH1 0x4 CALLDATASIZE LT PUSH2 0x36 JUMPI PUSH1 0x0 CALLDATALOAD PUSH1 0xE0 SHR DUP1 PUSH4 0x4534A438 EQ PUSH2 0x3B JUMPI DUP1 PUSH4 0xD2406C78 EQ PUSH2 0x6C JUMPI JUMPDEST PUSH1 0x0 DUP1 REVERT JUMPDEST PUSH2 0x55 PUSH1 0x4 DUP1 CALLDATASIZE SUB DUP2 ADD SWAP1 PUSH2 0x50 SWAP2 SWAP1 PUSH2 0x12C JUMP JUMPDEST PUSH2 0x9D JUMP JUMPDEST PUSH1 0x40 MLOAD PUSH2 0x63 SWAP3 SWAP2 SWAP1 PUSH2 0x168 JUMP JUMPDEST PUSH1 0x40 MLOAD DUP1 SWAP2 SUB SWAP1 RETURN JUMPDEST PUSH2 0x86 PUSH1 0x4 DUP1 CALLDATASIZE SUB DUP2 ADD SWAP1 PUSH2 0x81 SWAP2 SWAP1 PUSH2 0x12C JUMP JUMPDEST PUSH2 0xE5 JUMP JUMPDEST PUSH1 0x40 MLOAD PUSH2 0x94 SWAP3 SWAP2 SWAP1 PUSH2 0x168 JUMP JUMPDEST PUSH1 0x40 MLOAD DUP1 SWAP2 SUB SWAP1 RETURN JUMPDEST PUSH1 0x0 DUP1 DUP3 PUSH2 0xAA DUP5 PUSH2 0xE5 JUMP JUMPDEST SWAP3 POP SWAP3 POP PUSH1 0x0 PUSH1 0x2 DUP3 PUSH2 0xBD SWAP2 SWAP1 PUSH2 0x1CC JUMP JUMPDEST EQ DUP1 ISZERO PUSH2 0xD6 JUMPI POP PUSH1 0x0 PUSH1 0x3 DUP3 PUSH2 0xD4 SWAP2 SWAP1 PUSH2 0x1CC JUMP JUMPDEST EQ JUMPDEST PUSH2 0xDF JUMPI PUSH1 0x0 DUP1 REVERT JUMPDEST POP SWAP2 POP SWAP2 JUMP JUMPDEST PUSH1 0x0 DUP1 PUSH1 0x0 PUSH1 0x2 DUP5 PUSH2 0xF7 SWAP2 SWAP1 PUSH2 0x191 JUMP JUMPDEST SWAP1 POP PUSH1 0x0 PUSH1 0x3 DUP6 PUSH2 0x108 SWAP2 SWAP1 PUSH2 0x191 JUMP JUMPDEST SWAP1 POP DUP2 DUP2 SWAP4 POP SWAP4 POP POP POP SWAP2 POP SWAP2 JUMP JUMPDEST PUSH1 0x0 DUP2 CALLDATALOAD SWAP1 POP PUSH2 0x126 DUP2 PUSH2 0x231 JUMP JUMPDEST SWAP3 SWAP2 POP POP JUMP JUMPDEST PUSH1 0x0 PUSH1 0x20 DUP3 DUP5 SUB SLT ISZERO PUSH2 0x142 JUMPI PUSH2 0x141 PUSH2 0x22C JUMP JUMPDEST JUMPDEST PUSH1 0x0 PUSH2 0x150 DUP5 DUP3 DUP6 ADD PUSH2 0x117 JUMP JUMPDEST SWAP2 POP POP SWAP3 SWAP2 POP POP JUMP JUMPDEST PUSH2 0x162 DUP2 PUSH2 0x1C2 JUMP JUMPDEST DUP3 MSTORE POP POP JUMP JUMPDEST PUSH1 0x0 PUSH1 0x40 DUP3 ADD SWAP1 POP PUSH2 0x17D PUSH1 0x0 DUP4 ADD DUP6 PUSH2 0x159 JUMP JUMPDEST PUSH2 0x18A PUSH1 0x20 DUP4 ADD DUP5 PUSH2 0x159 JUMP JUMPDEST SWAP4 SWAP3 POP POP POP JUMP JUMPDEST PUSH1 0x0 PUSH2 0x19C DUP3 PUSH2 0x1C2 JUMP JUMPDEST SWAP2 POP PUSH2 0x1A7 DUP4 PUSH2 0x1C2 JUMP JUMPDEST SWAP3 POP DUP3 PUSH2 0x1B7 JUMPI PUSH2 0x1B6 PUSH2 0x1FD JUMP JUMPDEST JUMPDEST DUP3 DUP3 DIV SWAP1 POP SWAP3 SWAP2 POP POP JUMP JUMPDEST PUSH1 0x0 DUP2 SWAP1 POP SWAP2 SWAP1 POP JUMP JUMPDEST PUSH1 0x0 PUSH2 0x1D7 DUP3 PUSH2 0x1C2 JUMP JUMPDEST SWAP2 POP PUSH2 0x1E2 DUP4 PUSH2 0x1C2 JUMP JUMPDEST SWAP3 POP DUP3 PUSH2 0x1F2 JUMPI PUSH2 0x1F1 PUSH2 0x1FD JUMP JUMPDEST JUMPDEST DUP3 DUP3 MOD SWAP1 POP SWAP3 SWAP2 POP POP JUMP JUMPDEST PUSH32 0x4E487B7100000000000000000000000000000000000000000000000000000000 PUSH1 0x0 MSTORE PUSH1 0x12 PUSH1 0x4 MSTORE PUSH1 0x24 PUSH1 0x0 REVERT JUMPDEST PUSH1 0x0 DUP1 REVERT JUMPDEST PUSH2 0x23A DUP2 PUSH2 0x1C2 JUMP JUMPDEST DUP2 EQ PUSH2 0x245 JUMPI PUSH1 0x0 DUP1 REVERT JUMPDEST POP JUMP INVALID LOG2 PUSH5 0x6970667358 0x22 SLT KECCAK256 0xD2 0x2D 0x2C 0xB7 COINBASE PUSH10 0xDC70FCA232B65483B451 TIMESTAMP SAR LOG4 SHR MULMOD SWAP7 0xDF REVERT LOG2 DIV 0xB4 0xCE SWAP13 CALL PUSH10 0x9664736F6C6343000807 STOP CALLER "
				},
				"gasEstimates": {
					"creation": {
						"codeDepositCost": "127600",
						"executionCost": "171",
						"totalCost": "127771"
					},
					"external": {
						"getExactDividedBy2And3(uint256)": "infinite",
						"getExactDividedBy2And3WithoutModifier(uint256)": "infinite"
					}
				},
				"methodIdentifiers": {
					"getExactDividedBy2And3(uint256)": "4534a438",
					"getExactDividedBy2And3WithoutModifier(uint256)": "d2406c78"
				}
			},
			"storageLayout": {
				"storage": [],
				"types": null
			},
			"userdoc": {
				"kind": "user",
				"methods": {},
				"version": 1
			}
		}
	}
}