{
	"Inheritance.sol": {
		"Baba": {
			"abi": [
				{
					"anonymous": false,
					"inputs": [
						{
							"indexed": false,
							"internalType": "string",
							"name": "msg",
							"type": "string"
						}
					],
					"name": "Log",
					"type": "event"
				},
				{
					"inputs": [],
					"name": "baba",
					"outputs": [],
					"stateMutability": "nonpayable",
					"type": "function"
				},
				{
					"inputs": [],
					"name": "hip",
					"outputs": [],
					"stateMutability": "nonpayable",
					"type": "function"
				},
				{
					"inputs": [],
					"name": "pop",
					"outputs": [],
					"stateMutability": "nonpayable",
					"type": "function"
				},
				{
					"inputs": [],
					"name": "yeye",
					"outputs": [],
					"stateMutability": "nonpayable",
					"type": "function"
				}
			],
			"devdoc": {
				"kind": "dev",
				"methods": {},
				"version": 1
			},
			"evm": {
				"assembly": "    /* \"Inheritance.sol\":385:707  contract Baba is Yeye{\r... */\n  mstore(0x40, 0x80)\n  callvalue\n  dup1\n  iszero\n  tag_1\n  jumpi\n  0x00\n  dup1\n  revert\ntag_1:\n  pop\n  dataSize(sub_0)\n  dup1\n  dataOffset(sub_0)\n  0x00\n  codecopy\n  0x00\n  return\nstop\n\nsub_0: assembly {\n        /* \"Inheritance.sol\":385:707  contract Baba is Yeye{\r... */\n      mstore(0x40, 0x80)\n      callvalue\n      dup1\n      iszero\n      tag_1\n      jumpi\n      0x00\n      dup1\n      revert\n    tag_1:\n      pop\n      jumpi(tag_2, lt(calldatasize, 0x04))\n      shr(0xe0, calldataload(0x00))\n      dup1\n      0x0ca21e9c\n      eq\n      tag_3\n      jumpi\n      dup1\n      0x370ea142\n      eq\n      tag_4\n      jumpi\n      dup1\n      0xa4ece52c\n      eq\n      tag_5\n      jumpi\n      dup1\n      0xfa030ef1\n      eq\n      tag_6\n      jumpi\n    tag_2:\n      0x00\n      dup1\n      revert\n        /* \"Inheritance.sol\":312:378  function yeye() public virtual {\r... */\n    tag_3:\n      tag_7\n      tag_8\n      jump\t// in\n    tag_7:\n      stop\n        /* \"Inheritance.sol\":477:550  function hip() public virtual override{\r... */\n    tag_4:\n      tag_9\n      tag_10\n      jump\t// in\n    tag_9:\n      stop\n        /* \"Inheritance.sol\":558:631  function pop() public virtual override{\r... */\n    tag_5:\n      tag_11\n      tag_12\n      jump\t// in\n    tag_11:\n      stop\n        /* \"Inheritance.sol\":639:704  function baba() public virtual{\r... */\n    tag_6:\n      tag_13\n      tag_14\n      jump\t// in\n    tag_13:\n      stop\n        /* \"Inheritance.sol\":312:378  function yeye() public virtual {\r... */\n    tag_8:\n        /* \"Inheritance.sol\":359:370  Log(\"Yeye\") */\n      0xcf34ef537ac33ee1ac626ca1587a0a7e8e51561e5514f8cb36afa1c5102b3bab\n      mload(0x40)\n      tag_16\n      swap1\n      tag_17\n      jump\t// in\n    tag_16:\n      mload(0x40)\n      dup1\n      swap2\n      sub\n      swap1\n      log1\n        /* \"Inheritance.sol\":312:378  function yeye() public virtual {\r... */\n      jump\t// out\n        /* \"Inheritance.sol\":477:550  function hip() public virtual override{\r... */\n    tag_10:\n        /* \"Inheritance.sol\":531:542  Log(\"Baba\") */\n      0xcf34ef537ac33ee1ac626ca1587a0a7e8e51561e5514f8cb36afa1c5102b3bab\n      mload(0x40)\n      tag_19\n      swap1\n      tag_20\n      jump\t// in\n    tag_19:\n      mload(0x40)\n      dup1\n      swap2\n      sub\n      swap1\n      log1\n        /* \"Inheritance.sol\":477:550  function hip() public virtual override{\r... */\n      jump\t// out\n        /* \"Inheritance.sol\":558:631  function pop() public virtual override{\r... */\n    tag_12:\n        /* \"Inheritance.sol\":612:623  Log(\"Baba\") */\n      0xcf34ef537ac33ee1ac626ca1587a0a7e8e51561e5514f8cb36afa1c5102b3bab\n      mload(0x40)\n      tag_22\n      swap1\n      tag_20\n      jump\t// in\n    tag_22:\n      mload(0x40)\n      dup1\n      swap2\n      sub\n      swap1\n      log1\n        /* \"Inheritance.sol\":558:631  function pop() public virtual override{\r... */\n      jump\t// out\n        /* \"Inheritance.sol\":639:704  function baba() public virtual{\r... */\n    tag_14:\n        /* \"Inheritance.sol\":685:696  Log(\"Baba\") */\n      0xcf34ef537ac33ee1ac626ca1587a0a7e8e51561e5514f8cb36afa1c5102b3bab\n      mload(0x40)\n      tag_24\n      swap1\n      tag_20\n      jump\t// in\n    tag_24:\n      mload(0x40)\n      dup1\n      swap2\n      sub\n      swap1\n      log1\n        /* \"Inheritance.sol\":639:704  function baba() public virtual{\r... */\n      jump\t// out\n        /* \"#utility.yul\":7:372   */\n    tag_26:\n        /* \"#utility.yul\":149:152   */\n      0x00\n        /* \"#utility.yul\":170:236   */\n      tag_28\n        /* \"#utility.yul\":234:235   */\n      0x04\n        /* \"#utility.yul\":229:232   */\n      dup4\n        /* \"#utility.yul\":170:236   */\n      tag_29\n      jump\t// in\n    tag_28:\n        /* \"#utility.yul\":163:236   */\n      swap2\n      pop\n        /* \"#utility.yul\":245:338   */\n      tag_30\n        /* \"#utility.yul\":334:337   */\n      dup3\n        /* \"#utility.yul\":245:338   */\n      tag_31\n      jump\t// in\n    tag_30:\n        /* \"#utility.yul\":363:365   */\n      0x20\n        /* \"#utility.yul\":358:361   */\n      dup3\n        /* \"#utility.yul\":354:366   */\n      add\n        /* \"#utility.yul\":347:366   */\n      swap1\n      pop\n        /* \"#utility.yul\":7:372   */\n      swap2\n      swap1\n      pop\n      jump\t// out\n        /* \"#utility.yul\":378:743   */\n    tag_32:\n        /* \"#utility.yul\":520:523   */\n      0x00\n        /* \"#utility.yul\":541:607   */\n      tag_34\n        /* \"#utility.yul\":605:606   */\n      0x04\n        /* \"#utility.yul\":600:603   */\n      dup4\n        /* \"#utility.yul\":541:607   */\n      tag_29\n      jump\t// in\n    tag_34:\n        /* \"#utility.yul\":534:607   */\n      swap2\n      pop\n        /* \"#utility.yul\":616:709   */\n      tag_35\n        /* \"#utility.yul\":705:708   */\n      dup3\n        /* \"#utility.yul\":616:709   */\n      tag_36\n      jump\t// in\n    tag_35:\n        /* \"#utility.yul\":734:736   */\n      0x20\n        /* \"#utility.yul\":729:732   */\n      dup3\n        /* \"#utility.yul\":725:737   */\n      add\n        /* \"#utility.yul\":718:737   */\n      swap1\n      pop\n        /* \"#utility.yul\":378:743   */\n      swap2\n      swap1\n      pop\n      jump\t// out\n        /* \"#utility.yul\":749:1168   */\n    tag_17:\n        /* \"#utility.yul\":915:919   */\n      0x00\n        /* \"#utility.yul\":953:955   */\n      0x20\n        /* \"#utility.yul\":942:951   */\n      dup3\n        /* \"#utility.yul\":938:956   */\n      add\n        /* \"#utility.yul\":930:956   */\n      swap1\n      pop\n        /* \"#utility.yul\":1002:1011   */\n      dup2\n        /* \"#utility.yul\":996:1000   */\n      dup2\n        /* \"#utility.yul\":992:1012   */\n      sub\n        /* \"#utility.yul\":988:989   */\n      0x00\n        /* \"#utility.yul\":977:986   */\n      dup4\n        /* \"#utility.yul\":973:990   */\n      add\n        /* \"#utility.yul\":966:1013   */\n      mstore\n        /* \"#utility.yul\":1030:1161   */\n      tag_38\n        /* \"#utility.yul\":1156:1160   */\n      dup2\n        /* \"#utility.yul\":1030:1161   */\n      tag_26\n      jump\t// in\n    tag_38:\n        /* \"#utility.yul\":1022:1161   */\n      swap1\n      pop\n        /* \"#utility.yul\":749:1168   */\n      swap2\n      swap1\n      pop\n      jump\t// out\n        /* \"#utility.yul\":1174:1593   */\n    tag_20:\n        /* \"#utility.yul\":1340:1344   */\n      0x00\n        /* \"#utility.yul\":1378:1380   */\n      0x20\n        /* \"#utility.yul\":1367:1376   */\n      dup3\n        /* \"#utility.yul\":1363:1381   */\n      add\n        /* \"#utility.yul\":1355:1381   */\n      swap1\n      pop\n        /* \"#utility.yul\":1427:1436   */\n      dup2\n        /* \"#utility.yul\":1421:1425   */\n      dup2\n        /* \"#utility.yul\":1417:1437   */\n      sub\n        /* \"#utility.yul\":1413:1414   */\n      0x00\n        /* \"#utility.yul\":1402:1411   */\n      dup4\n        /* \"#utility.yul\":1398:1415   */\n      add\n        /* \"#utility.yul\":1391:1438   */\n      mstore\n        /* \"#utility.yul\":1455:1586   */\n      tag_40\n        /* \"#utility.yul\":1581:1585   */\n      dup2\n        /* \"#utility.yul\":1455:1586   */\n      tag_32\n      jump\t// in\n    tag_40:\n        /* \"#utility.yul\":1447:1586   */\n      swap1\n      pop\n        /* \"#utility.yul\":1174:1593   */\n      swap2\n      swap1\n      pop\n      jump\t// out\n        /* \"#utility.yul\":1599:1768   */\n    tag_29:\n        /* \"#utility.yul\":1683:1694   */\n      0x00\n        /* \"#utility.yul\":1717:1723   */\n      dup3\n        /* \"#utility.yul\":1712:1715   */\n      dup3\n        /* \"#utility.yul\":1705:1724   */\n      mstore\n        /* \"#utility.yul\":1757:1761   */\n      0x20\n        /* \"#utility.yul\":1752:1755   */\n      dup3\n        /* \"#utility.yul\":1748:1762   */\n      add\n        /* \"#utility.yul\":1733:1762   */\n      swap1\n      pop\n        /* \"#utility.yul\":1599:1768   */\n      swap3\n      swap2\n      pop\n      pop\n      jump\t// out\n        /* \"#utility.yul\":1774:1928   */\n    tag_31:\n        /* \"#utility.yul\":1914:1920   */\n      0x5965796500000000000000000000000000000000000000000000000000000000\n        /* \"#utility.yul\":1910:1911   */\n      0x00\n        /* \"#utility.yul\":1902:1908   */\n      dup3\n        /* \"#utility.yul\":1898:1912   */\n      add\n        /* \"#utility.yul\":1891:1921   */\n      mstore\n        /* \"#utility.yul\":1774:1928   */\n      pop\n      jump\t// out\n        /* \"#utility.yul\":1934:2088   */\n    tag_36:\n        /* \"#utility.yul\":2074:2080   */\n      0x4261626100000000000000000000000000000000000000000000000000000000\n        /* \"#utility.yul\":2070:2071   */\n      0x00\n        /* \"#utility.yul\":2062:2068   */\n      dup3\n        /* \"#utility.yul\":2058:2072   */\n      add\n        /* \"#utility.yul\":2051:2081   */\n      mstore\n        /* \"#utility.yul\":1934:2088   */\n      pop\n      jump\t// out\n\n    auxdata: 0xa264697066735822122044361d5ef40fce2d496cce0bf2c6181c7b94fabd149a2b43d1f15b87fa6fabb064736f6c63430008070033\n}\n",
				"bytecode": {
					"linkReferences": {},
					"object": "608060405234801561001057600080fd5b50610274806100206000396000f3fe608060405234801561001057600080fd5b506004361061004c5760003560e01c80630ca21e9c14610051578063370ea1421461005b578063a4ece52c14610065578063fa030ef11461006f575b600080fd5b610059610079565b005b6100636100b0565b005b61006d6100e7565b005b61007761011e565b005b7fcf34ef537ac33ee1ac626ca1587a0a7e8e51561e5514f8cb36afa1c5102b3bab6040516100a69061019b565b60405180910390a1565b7fcf34ef537ac33ee1ac626ca1587a0a7e8e51561e5514f8cb36afa1c5102b3bab6040516100dd906101bb565b60405180910390a1565b7fcf34ef537ac33ee1ac626ca1587a0a7e8e51561e5514f8cb36afa1c5102b3bab604051610114906101bb565b60405180910390a1565b7fcf34ef537ac33ee1ac626ca1587a0a7e8e51561e5514f8cb36afa1c5102b3bab60405161014b906101bb565b60405180910390a1565b60006101626004836101db565b915061016d826101ec565b602082019050919050565b60006101856004836101db565b915061019082610215565b602082019050919050565b600060208201905081810360008301526101b481610155565b9050919050565b600060208201905081810360008301526101d481610178565b9050919050565b600082825260208201905092915050565b7f5965796500000000000000000000000000000000000000000000000000000000600082015250565b7f426162610000000000000000000000000000000000000000000000000000000060008201525056fea264697066735822122044361d5ef40fce2d496cce0bf2c6181c7b94fabd149a2b43d1f15b87fa6fabb064736f6c63430008070033",
					"opcodes": "PUSH1 0x80 PUSH1 0x40 MSTORE CALLVALUE DUP1 ISZERO PUSH2 0x10 JUMPI PUSH1 0x0 DUP1 REVERT JUMPDEST POP PUSH2 0x274 DUP1 PUSH2 0x20 PUSH1 0x0 CODECOPY PUSH1 0x0 RETURN INVALID PUSH1 0x80 PUSH1 0x40 MSTORE CALLVALUE DUP1 ISZERO PUSH2 0x10 JUMPI PUSH1 0x0 DUP1 REVERT JUMPDEST POP PUSH1 0x4 CALLDATASIZE LT PUSH2 0x4C JUMPI PUSH1 0x0 CALLDATALOAD PUSH1 0xE0 SHR DUP1 PUSH4 0xCA21E9C EQ PUSH2 0x51 JUMPI DUP1 PUSH4 0x370EA142 EQ PUSH2 0x5B JUMPI DUP1 PUSH4 0xA4ECE52C EQ PUSH2 0x65 JUMPI DUP1 PUSH4 0xFA030EF1 EQ PUSH2 0x6F JUMPI JUMPDEST PUSH1 0x0 DUP1 REVERT JUMPDEST PUSH2 0x59 PUSH2 0x79 JUMP JUMPDEST STOP JUMPDEST PUSH2 0x63 PUSH2 0xB0 JUMP JUMPDEST STOP JUMPDEST PUSH2 0x6D PUSH2 0xE7 JUMP JUMPDEST STOP JUMPDEST PUSH2 0x77 PUSH2 0x11E JUMP JUMPDEST STOP JUMPDEST PUSH32 0xCF34EF537AC33EE1AC626CA1587A0A7E8E51561E5514F8CB36AFA1C5102B3BAB PUSH1 0x40 MLOAD PUSH2 0xA6 SWAP1 PUSH2 0x19B JUMP JUMPDEST PUSH1 0x40 MLOAD DUP1 SWAP2 SUB SWAP1 LOG1 JUMP JUMPDEST PUSH32 0xCF34EF537AC33EE1AC626CA1587A0A7E8E51561E5514F8CB36AFA1C5102B3BAB PUSH1 0x40 MLOAD PUSH2 0xDD SWAP1 PUSH2 0x1BB JUMP JUMPDEST PUSH1 0x40 MLOAD DUP1 SWAP2 SUB SWAP1 LOG1 JUMP JUMPDEST PUSH32 0xCF34EF537AC33EE1AC626CA1587A0A7E8E51561E5514F8CB36AFA1C5102B3BAB PUSH1 0x40 MLOAD PUSH2 0x114 SWAP1 PUSH2 0x1BB JUMP JUMPDEST PUSH1 0x40 MLOAD DUP1 SWAP2 SUB SWAP1 LOG1 JUMP JUMPDEST PUSH32 0xCF34EF537AC33EE1AC626CA1587A0A7E8E51561E5514F8CB36AFA1C5102B3BAB PUSH1 0x40 MLOAD PUSH2 0x14B SWAP1 PUSH2 0x1BB JUMP JUMPDEST PUSH1 0x40 MLOAD DUP1 SWAP2 SUB SWAP1 LOG1 JUMP JUMPDEST PUSH1 0x0 PUSH2 0x162 PUSH1 0x4 DUP4 PUSH2 0x1DB JUMP JUMPDEST SWAP2 POP PUSH2 0x16D DUP3 PUSH2 0x1EC JUMP JUMPDEST PUSH1 0x20 DUP3 ADD SWAP1 POP SWAP2 SWAP1 POP JUMP JUMPDEST PUSH1 0x0 PUSH2 0x185 PUSH1 0x4 DUP4 PUSH2 0x1DB JUMP JUMPDEST SWAP2 POP PUSH2 0x190 DUP3 PUSH2 0x215 JUMP JUMPDEST PUSH1 0x20 DUP3 ADD SWAP1 POP SWAP2 SWAP1 POP JUMP JUMPDEST PUSH1 0x0 PUSH1 0x20 DUP3 ADD SWAP1 POP DUP2 DUP2 SUB PUSH1 0x0 DUP4 ADD MSTORE PUSH2 0x1B4 DUP2 PUSH2 0x155 JUMP JUMPDEST SWAP1 POP SWAP2 SWAP1 POP JUMP JUMPDEST PUSH1 0x0 PUSH1 0x20 DUP3 ADD SWAP1 POP DUP2 DUP2 SUB PUSH1 0x0 DUP4 ADD MSTORE PUSH2 0x1D4 DUP2 PUSH2 0x178 JUMP JUMPDEST SWAP1 POP SWAP2 SWAP1 POP JUMP JUMPDEST PUSH1 0x0 DUP3 DUP3 MSTORE PUSH1 0x20 DUP3 ADD SWAP1 POP SWAP3 SWAP2 POP POP JUMP JUMPDEST PUSH32 0x5965796500000000000000000000000000000000000000000000000000000000 PUSH1 0x0 DUP3 ADD MSTORE POP JUMP JUMPDEST PUSH32 0x4261626100000000000000000000000000000000000000000000000000000000 PUSH1 0x0 DUP3 ADD MSTORE POP JUMP INVALID LOG2 PUSH5 0x6970667358 0x22 SLT KECCAK256 DIFFICULTY CALLDATASIZE SAR 0x5E DELEGATECALL 0xF 0xCE 0x2D 0x49 PUSH13 0xCE0BF2C6181C7B94FABD149A2B NUMBER 0xD1 CALL JUMPDEST DUP8 STATICCALL PUSH16 0xABB064736F6C63430008070033000000 "
				},
				"gasEstimates": {
					"creation": {
						"codeDepositCost": "125600",
						"executionCost": "171",
						"totalCost": "125771"
					},
					"external": {
						"baba()": "1990",
						"hip()": "1946",
						"pop()": "1968",
						"yeye()": "1924"
					}
				},
				"methodIdentifiers": {
					"baba()": "fa030ef1",
					"hip()": "370ea142",
					"pop()": "a4ece52c",
					"yeye()": "0ca21e9c"
				}
			},
			"storageLayout": {
				"storage": [],
				"types": null
			},
			"userdoc": {
				"kind": "user",
				"methods": {},
				"version": 1
			}
		}
	}
}