{
	"sort.sol": {
		"sort": {
			"abi": [
				{
					"inputs": [
						{
							"internalType": "uint256[]",
							"name": "a",
							"type": "uint256[]"
						}
					],
					"name": "insertionSort",
					"outputs": [
						{
							"internalType": "uint256[]",
							"name": "",
							"type": "uint256[]"
						}
					],
					"stateMutability": "pure",
					"type": "function"
				},
				{
					"inputs": [
						{
							"internalType": "uint256[]",
							"name": "a",
							"type": "uint256[]"
						}
					],
					"name": "insertionSortWrong",
					"outputs": [
						{
							"internalType": "uint256[]",
							"name": "",
							"type": "uint256[]"
						}
					],
					"stateMutability": "pure",
					"type": "function"
				}
			],
			"devdoc": {
				"kind": "dev",
				"methods": {},
				"version": 1
			},
			"evm": {
				"assembly": "    /* \"sort.sol\":60:941  contract sort{\r... */\n  mstore(0x40, 0x80)\n  callvalue\n  dup1\n  iszero\n  tag_1\n  jumpi\n  0x00\n  dup1\n  revert\ntag_1:\n  pop\n  dataSize(sub_0)\n  dup1\n  dataOffset(sub_0)\n  0x00\n  codecopy\n  0x00\n  return\nstop\n\nsub_0: assembly {\n        /* \"sort.sol\":60:941  contract sort{\r... */\n      mstore(0x40, 0x80)\n      callvalue\n      dup1\n      iszero\n      tag_1\n      jumpi\n      0x00\n      dup1\n      revert\n    tag_1:\n      pop\n      jumpi(tag_2, lt(calldatasize, 0x04))\n      shr(0xe0, calldataload(0x00))\n      dup1\n      0x6188a6c0\n      eq\n      tag_3\n      jumpi\n      dup1\n      0x6297206f\n      eq\n      tag_4\n      jumpi\n    tag_2:\n      0x00\n      dup1\n      revert\n        /* \"sort.sol\":111:485  function insertionSortWrong(uint[] memory a) public pure returns(uint[] memory) {\r... */\n    tag_3:\n      tag_5\n      0x04\n      dup1\n      calldatasize\n      sub\n      dup2\n      add\n      swap1\n      tag_6\n      swap2\n      swap1\n      tag_7\n      jump\t// in\n    tag_6:\n      tag_8\n      jump\t// in\n    tag_5:\n      mload(0x40)\n      tag_9\n      swap2\n      swap1\n      tag_10\n      jump\t// in\n    tag_9:\n      mload(0x40)\n      dup1\n      swap2\n      sub\n      swap1\n      return\n        /* \"sort.sol\":526:938  function insertionSort(uint[] memory a) public pure returns(uint[] memory) {\r... */\n    tag_4:\n      tag_11\n      0x04\n      dup1\n      calldatasize\n      sub\n      dup2\n      add\n      swap1\n      tag_12\n      swap2\n      swap1\n      tag_7\n      jump\t// in\n    tag_12:\n      tag_13\n      jump\t// in\n    tag_11:\n      mload(0x40)\n      tag_14\n      swap2\n      swap1\n      tag_10\n      jump\t// in\n    tag_14:\n      mload(0x40)\n      dup1\n      swap2\n      sub\n      swap1\n      return\n        /* \"sort.sol\":111:485  function insertionSortWrong(uint[] memory a) public pure returns(uint[] memory) {\r... */\n    tag_8:\n        /* \"sort.sol\":176:189  uint[] memory */\n      0x60\n        /* \"sort.sol\":217:223  uint i */\n      0x00\n        /* \"sort.sol\":226:227  1 */\n      0x01\n        /* \"sort.sol\":217:227  uint i = 1 */\n      swap1\n      pop\n        /* \"sort.sol\":212:458  for (uint i = 1;i < a.length;i++){\r... */\n    tag_16:\n        /* \"sort.sol\":232:233  a */\n      dup3\n        /* \"sort.sol\":232:240  a.length */\n      mload\n        /* \"sort.sol\":228:229  i */\n      dup2\n        /* \"sort.sol\":228:240  i < a.length */\n      lt\n        /* \"sort.sol\":212:458  for (uint i = 1;i < a.length;i++){\r... */\n      iszero\n      tag_17\n      jumpi\n        /* \"sort.sol\":260:269  uint temp */\n      0x00\n        /* \"sort.sol\":272:273  a */\n      dup4\n        /* \"sort.sol\":274:275  i */\n      dup3\n        /* \"sort.sol\":272:276  a[i] */\n      dup2\n      mload\n      dup2\n      lt\n      tag_19\n      jumpi\n      tag_20\n      tag_21\n      jump\t// in\n    tag_20:\n    tag_19:\n      0x20\n      mul\n      0x20\n      add\n      add\n      mload\n        /* \"sort.sol\":260:276  uint temp = a[i] */\n      swap1\n      pop\n        /* \"sort.sol\":291:297  uint j */\n      0x00\n        /* \"sort.sol\":300:301  1 */\n      0x01\n        /* \"sort.sol\":298:299  i */\n      dup4\n        /* \"sort.sol\":298:301  i-1 */\n      tag_22\n      swap2\n      swap1\n      tag_23\n      jump\t// in\n    tag_22:\n        /* \"sort.sol\":291:301  uint j=i-1 */\n      swap1\n      pop\n        /* \"sort.sol\":316:419  while( (j >= 0) && (temp < a[j])){\r... */\n    tag_24:\n        /* \"sort.sol\":329:330  0 */\n      0x00\n        /* \"sort.sol\":324:325  j */\n      dup2\n        /* \"sort.sol\":324:330  j >= 0 */\n      lt\n      iszero\n        /* \"sort.sol\":323:348  (j >= 0) && (temp < a[j]) */\n      dup1\n      iszero\n      tag_26\n      jumpi\n      pop\n        /* \"sort.sol\":343:344  a */\n      dup5\n        /* \"sort.sol\":345:346  j */\n      dup2\n        /* \"sort.sol\":343:347  a[j] */\n      dup2\n      mload\n      dup2\n      lt\n      tag_27\n      jumpi\n      tag_28\n      tag_21\n      jump\t// in\n    tag_28:\n    tag_27:\n      0x20\n      mul\n      0x20\n      add\n      add\n      mload\n        /* \"sort.sol\":336:340  temp */\n      dup3\n        /* \"sort.sol\":336:347  temp < a[j] */\n      lt\n        /* \"sort.sol\":323:348  (j >= 0) && (temp < a[j]) */\n    tag_26:\n        /* \"sort.sol\":316:419  while( (j >= 0) && (temp < a[j])){\r... */\n      iszero\n      tag_25\n      jumpi\n        /* \"sort.sol\":377:378  a */\n      dup5\n        /* \"sort.sol\":379:380  j */\n      dup2\n        /* \"sort.sol\":377:381  a[j] */\n      dup2\n      mload\n      dup2\n      lt\n      tag_29\n      jumpi\n      tag_30\n      tag_21\n      jump\t// in\n    tag_30:\n    tag_29:\n      0x20\n      mul\n      0x20\n      add\n      add\n      mload\n        /* \"sort.sol\":368:369  a */\n      dup6\n        /* \"sort.sol\":372:373  1 */\n      0x01\n        /* \"sort.sol\":370:371  j */\n      dup4\n        /* \"sort.sol\":370:373  j+1 */\n      tag_31\n      swap2\n      swap1\n      tag_32\n      jump\t// in\n    tag_31:\n        /* \"sort.sol\":368:374  a[j+1] */\n      dup2\n      mload\n      dup2\n      lt\n      tag_33\n      jumpi\n      tag_34\n      tag_21\n      jump\t// in\n    tag_34:\n    tag_33:\n      0x20\n      mul\n      0x20\n      add\n      add\n        /* \"sort.sol\":368:381  a[j+1] = a[j] */\n      dup2\n      dup2\n      mstore\n      pop\n      pop\n        /* \"sort.sol\":400:403  j-- */\n      dup1\n      dup1\n      tag_35\n      swap1\n      tag_36\n      jump\t// in\n    tag_35:\n      swap2\n      pop\n      pop\n        /* \"sort.sol\":316:419  while( (j >= 0) && (temp < a[j])){\r... */\n      jump(tag_24)\n    tag_25:\n        /* \"sort.sol\":442:446  temp */\n      dup2\n        /* \"sort.sol\":433:434  a */\n      dup6\n        /* \"sort.sol\":437:438  1 */\n      0x01\n        /* \"sort.sol\":435:436  j */\n      dup4\n        /* \"sort.sol\":435:438  j+1 */\n      tag_37\n      swap2\n      swap1\n      tag_32\n      jump\t// in\n    tag_37:\n        /* \"sort.sol\":433:439  a[j+1] */\n      dup2\n      mload\n      dup2\n      lt\n      tag_38\n      jumpi\n      tag_39\n      tag_21\n      jump\t// in\n    tag_39:\n    tag_38:\n      0x20\n      mul\n      0x20\n      add\n      add\n        /* \"sort.sol\":433:446  a[j+1] = temp */\n      dup2\n      dup2\n      mstore\n      pop\n      pop\n        /* \"sort.sol\":245:458  {\r... */\n      pop\n      pop\n        /* \"sort.sol\":241:244  i++ */\n      dup1\n      dup1\n      tag_40\n      swap1\n      tag_41\n      jump\t// in\n    tag_40:\n      swap2\n      pop\n      pop\n        /* \"sort.sol\":212:458  for (uint i = 1;i < a.length;i++){\r... */\n      jump(tag_16)\n    tag_17:\n      pop\n        /* \"sort.sol\":475:476  a */\n      dup2\n        /* \"sort.sol\":468:477  return(a) */\n      swap1\n      pop\n        /* \"sort.sol\":111:485  function insertionSortWrong(uint[] memory a) public pure returns(uint[] memory) {\r... */\n      swap2\n      swap1\n      pop\n      jump\t// out\n        /* \"sort.sol\":526:938  function insertionSort(uint[] memory a) public pure returns(uint[] memory) {\r... */\n    tag_13:\n        /* \"sort.sol\":586:599  uint[] memory */\n      0x60\n        /* \"sort.sol\":672:678  uint i */\n      0x00\n        /* \"sort.sol\":681:682  1 */\n      0x01\n        /* \"sort.sol\":672:682  uint i = 1 */\n      swap1\n      pop\n        /* \"sort.sol\":667:911  for (uint i = 1;i < a.length;i++){\r... */\n    tag_43:\n        /* \"sort.sol\":687:688  a */\n      dup3\n        /* \"sort.sol\":687:695  a.length */\n      mload\n        /* \"sort.sol\":683:684  i */\n      dup2\n        /* \"sort.sol\":683:695  i < a.length */\n      lt\n        /* \"sort.sol\":667:911  for (uint i = 1;i < a.length;i++){\r... */\n      iszero\n      tag_44\n      jumpi\n        /* \"sort.sol\":715:724  uint temp */\n      0x00\n        /* \"sort.sol\":727:728  a */\n      dup4\n        /* \"sort.sol\":729:730  i */\n      dup3\n        /* \"sort.sol\":727:731  a[i] */\n      dup2\n      mload\n      dup2\n      lt\n      tag_46\n      jumpi\n      tag_47\n      tag_21\n      jump\t// in\n    tag_47:\n    tag_46:\n      0x20\n      mul\n      0x20\n      add\n      add\n      mload\n        /* \"sort.sol\":715:731  uint temp = a[i] */\n      swap1\n      pop\n        /* \"sort.sol\":746:752  uint j */\n      0x00\n        /* \"sort.sol\":753:754  i */\n      dup3\n        /* \"sort.sol\":746:754  uint j=i */\n      swap1\n      pop\n        /* \"sort.sol\":769:874  while( (j >= 1) && (temp < a[j-1])){\r... */\n    tag_48:\n        /* \"sort.sol\":782:783  1 */\n      0x01\n        /* \"sort.sol\":777:778  j */\n      dup2\n        /* \"sort.sol\":777:783  j >= 1 */\n      lt\n      iszero\n        /* \"sort.sol\":776:803  (j >= 1) && (temp < a[j-1]) */\n      dup1\n      iszero\n      tag_50\n      jumpi\n      pop\n        /* \"sort.sol\":796:797  a */\n      dup5\n        /* \"sort.sol\":800:801  1 */\n      0x01\n        /* \"sort.sol\":798:799  j */\n      dup3\n        /* \"sort.sol\":798:801  j-1 */\n      tag_51\n      swap2\n      swap1\n      tag_23\n      jump\t// in\n    tag_51:\n        /* \"sort.sol\":796:802  a[j-1] */\n      dup2\n      mload\n      dup2\n      lt\n      tag_52\n      jumpi\n      tag_53\n      tag_21\n      jump\t// in\n    tag_53:\n    tag_52:\n      0x20\n      mul\n      0x20\n      add\n      add\n      mload\n        /* \"sort.sol\":789:793  temp */\n      dup3\n        /* \"sort.sol\":789:802  temp < a[j-1] */\n      lt\n        /* \"sort.sol\":776:803  (j >= 1) && (temp < a[j-1]) */\n    tag_50:\n        /* \"sort.sol\":769:874  while( (j >= 1) && (temp < a[j-1])){\r... */\n      iszero\n      tag_49\n      jumpi\n        /* \"sort.sol\":830:831  a */\n      dup5\n        /* \"sort.sol\":834:835  1 */\n      0x01\n        /* \"sort.sol\":832:833  j */\n      dup3\n        /* \"sort.sol\":832:835  j-1 */\n      tag_54\n      swap2\n      swap1\n      tag_23\n      jump\t// in\n    tag_54:\n        /* \"sort.sol\":830:836  a[j-1] */\n      dup2\n      mload\n      dup2\n      lt\n      tag_55\n      jumpi\n      tag_56\n      tag_21\n      jump\t// in\n    tag_56:\n    tag_55:\n      0x20\n      mul\n      0x20\n      add\n      add\n      mload\n        /* \"sort.sol\":823:824  a */\n      dup6\n        /* \"sort.sol\":825:826  j */\n      dup3\n        /* \"sort.sol\":823:827  a[j] */\n      dup2\n      mload\n      dup2\n      lt\n      tag_57\n      jumpi\n      tag_58\n      tag_21\n      jump\t// in\n    tag_58:\n    tag_57:\n      0x20\n      mul\n      0x20\n      add\n      add\n        /* \"sort.sol\":823:836  a[j] = a[j-1] */\n      dup2\n      dup2\n      mstore\n      pop\n      pop\n        /* \"sort.sol\":855:858  j-- */\n      dup1\n      dup1\n      tag_59\n      swap1\n      tag_36\n      jump\t// in\n    tag_59:\n      swap2\n      pop\n      pop\n        /* \"sort.sol\":769:874  while( (j >= 1) && (temp < a[j-1])){\r... */\n      jump(tag_48)\n    tag_49:\n        /* \"sort.sol\":895:899  temp */\n      dup2\n        /* \"sort.sol\":888:889  a */\n      dup6\n        /* \"sort.sol\":890:891  j */\n      dup3\n        /* \"sort.sol\":888:892  a[j] */\n      dup2\n      mload\n      dup2\n      lt\n      tag_60\n      jumpi\n      tag_61\n      tag_21\n      jump\t// in\n    tag_61:\n    tag_60:\n      0x20\n      mul\n      0x20\n      add\n      add\n        /* \"sort.sol\":888:899  a[j] = temp */\n      dup2\n      dup2\n      mstore\n      pop\n      pop\n        /* \"sort.sol\":700:911  {\r... */\n      pop\n      pop\n        /* \"sort.sol\":696:699  i++ */\n      dup1\n      dup1\n      tag_62\n      swap1\n      tag_41\n      jump\t// in\n    tag_62:\n      swap2\n      pop\n      pop\n        /* \"sort.sol\":667:911  for (uint i = 1;i < a.length;i++){\r... */\n      jump(tag_43)\n    tag_44:\n      pop\n        /* \"sort.sol\":928:929  a */\n      dup2\n        /* \"sort.sol\":921:930  return(a) */\n      swap1\n      pop\n        /* \"sort.sol\":526:938  function insertionSort(uint[] memory a) public pure returns(uint[] memory) {\r... */\n      swap2\n      swap1\n      pop\n      jump\t// out\n        /* \"#utility.yul\":24:746   */\n    tag_64:\n        /* \"#utility.yul\":120:125   */\n      0x00\n        /* \"#utility.yul\":145:226   */\n      tag_66\n        /* \"#utility.yul\":161:225   */\n      tag_67\n        /* \"#utility.yul\":218:224   */\n      dup5\n        /* \"#utility.yul\":161:225   */\n      tag_68\n      jump\t// in\n    tag_67:\n        /* \"#utility.yul\":145:226   */\n      tag_69\n      jump\t// in\n    tag_66:\n        /* \"#utility.yul\":136:226   */\n      swap1\n      pop\n        /* \"#utility.yul\":246:251   */\n      dup1\n        /* \"#utility.yul\":275:281   */\n      dup4\n        /* \"#utility.yul\":268:273   */\n      dup3\n        /* \"#utility.yul\":261:282   */\n      mstore\n        /* \"#utility.yul\":309:313   */\n      0x20\n        /* \"#utility.yul\":302:307   */\n      dup3\n        /* \"#utility.yul\":298:314   */\n      add\n        /* \"#utility.yul\":291:314   */\n      swap1\n      pop\n        /* \"#utility.yul\":335:341   */\n      dup3\n        /* \"#utility.yul\":385:388   */\n      dup6\n        /* \"#utility.yul\":377:381   */\n      0x20\n        /* \"#utility.yul\":369:375   */\n      dup7\n        /* \"#utility.yul\":365:382   */\n      mul\n        /* \"#utility.yul\":360:363   */\n      dup3\n        /* \"#utility.yul\":356:383   */\n      add\n        /* \"#utility.yul\":353:389   */\n      gt\n        /* \"#utility.yul\":350:493   */\n      iszero\n      tag_70\n      jumpi\n        /* \"#utility.yul\":404:483   */\n      tag_71\n      tag_72\n      jump\t// in\n    tag_71:\n        /* \"#utility.yul\":350:493   */\n    tag_70:\n        /* \"#utility.yul\":517:518   */\n      0x00\n        /* \"#utility.yul\":502:740   */\n    tag_73:\n        /* \"#utility.yul\":527:533   */\n      dup6\n        /* \"#utility.yul\":524:525   */\n      dup2\n        /* \"#utility.yul\":521:534   */\n      lt\n        /* \"#utility.yul\":502:740   */\n      iszero\n      tag_75\n      jumpi\n        /* \"#utility.yul\":595:598   */\n      dup2\n        /* \"#utility.yul\":624:661   */\n      tag_76\n        /* \"#utility.yul\":657:660   */\n      dup9\n        /* \"#utility.yul\":645:655   */\n      dup3\n        /* \"#utility.yul\":624:661   */\n      tag_77\n      jump\t// in\n    tag_76:\n        /* \"#utility.yul\":619:622   */\n      dup5\n        /* \"#utility.yul\":612:662   */\n      mstore\n        /* \"#utility.yul\":691:695   */\n      0x20\n        /* \"#utility.yul\":686:689   */\n      dup5\n        /* \"#utility.yul\":682:696   */\n      add\n        /* \"#utility.yul\":675:696   */\n      swap4\n      pop\n        /* \"#utility.yul\":725:729   */\n      0x20\n        /* \"#utility.yul\":720:723   */\n      dup4\n        /* \"#utility.yul\":716:730   */\n      add\n        /* \"#utility.yul\":709:730   */\n      swap3\n      pop\n        /* \"#utility.yul\":562:740   */\n      pop\n        /* \"#utility.yul\":549:550   */\n      0x01\n        /* \"#utility.yul\":546:547   */\n      dup2\n        /* \"#utility.yul\":542:551   */\n      add\n        /* \"#utility.yul\":537:551   */\n      swap1\n      pop\n        /* \"#utility.yul\":502:740   */\n      jump(tag_73)\n    tag_75:\n        /* \"#utility.yul\":506:520   */\n      pop\n        /* \"#utility.yul\":126:746   */\n      pop\n      pop\n        /* \"#utility.yul\":24:746   */\n      swap4\n      swap3\n      pop\n      pop\n      pop\n      jump\t// out\n        /* \"#utility.yul\":769:1139   */\n    tag_78:\n        /* \"#utility.yul\":840:845   */\n      0x00\n        /* \"#utility.yul\":889:892   */\n      dup3\n        /* \"#utility.yul\":882:886   */\n      0x1f\n        /* \"#utility.yul\":874:880   */\n      dup4\n        /* \"#utility.yul\":870:887   */\n      add\n        /* \"#utility.yul\":866:893   */\n      slt\n        /* \"#utility.yul\":856:978   */\n      tag_80\n      jumpi\n        /* \"#utility.yul\":897:976   */\n      tag_81\n      tag_82\n      jump\t// in\n    tag_81:\n        /* \"#utility.yul\":856:978   */\n    tag_80:\n        /* \"#utility.yul\":1014:1020   */\n      dup2\n        /* \"#utility.yul\":1001:1021   */\n      calldataload\n        /* \"#utility.yul\":1039:1133   */\n      tag_83\n        /* \"#utility.yul\":1129:1132   */\n      dup5\n        /* \"#utility.yul\":1121:1127   */\n      dup3\n        /* \"#utility.yul\":1114:1118   */\n      0x20\n        /* \"#utility.yul\":1106:1112   */\n      dup7\n        /* \"#utility.yul\":1102:1119   */\n      add\n        /* \"#utility.yul\":1039:1133   */\n      tag_64\n      jump\t// in\n    tag_83:\n        /* \"#utility.yul\":1030:1133   */\n      swap2\n      pop\n        /* \"#utility.yul\":846:1139   */\n      pop\n        /* \"#utility.yul\":769:1139   */\n      swap3\n      swap2\n      pop\n      pop\n      jump\t// out\n        /* \"#utility.yul\":1145:1284   */\n    tag_77:\n        /* \"#utility.yul\":1191:1196   */\n      0x00\n        /* \"#utility.yul\":1229:1235   */\n      dup2\n        /* \"#utility.yul\":1216:1236   */\n      calldataload\n        /* \"#utility.yul\":1207:1236   */\n      swap1\n      pop\n        /* \"#utility.yul\":1245:1278   */\n      tag_85\n        /* \"#utility.yul\":1272:1277   */\n      dup2\n        /* \"#utility.yul\":1245:1278   */\n      tag_86\n      jump\t// in\n    tag_85:\n        /* \"#utility.yul\":1145:1284   */\n      swap3\n      swap2\n      pop\n      pop\n      jump\t// out\n        /* \"#utility.yul\":1290:1829   */\n    tag_7:\n        /* \"#utility.yul\":1374:1380   */\n      0x00\n        /* \"#utility.yul\":1423:1425   */\n      0x20\n        /* \"#utility.yul\":1411:1420   */\n      dup3\n        /* \"#utility.yul\":1402:1409   */\n      dup5\n        /* \"#utility.yul\":1398:1421   */\n      sub\n        /* \"#utility.yul\":1394:1426   */\n      slt\n        /* \"#utility.yul\":1391:1510   */\n      iszero\n      tag_88\n      jumpi\n        /* \"#utility.yul\":1429:1508   */\n      tag_89\n      tag_90\n      jump\t// in\n    tag_89:\n        /* \"#utility.yul\":1391:1510   */\n    tag_88:\n        /* \"#utility.yul\":1577:1578   */\n      0x00\n        /* \"#utility.yul\":1566:1575   */\n      dup3\n        /* \"#utility.yul\":1562:1579   */\n      add\n        /* \"#utility.yul\":1549:1580   */\n      calldataload\n        /* \"#utility.yul\":1607:1625   */\n      0xffffffffffffffff\n        /* \"#utility.yul\":1599:1605   */\n      dup2\n        /* \"#utility.yul\":1596:1626   */\n      gt\n        /* \"#utility.yul\":1593:1710   */\n      iszero\n      tag_91\n      jumpi\n        /* \"#utility.yul\":1629:1708   */\n      tag_92\n      tag_93\n      jump\t// in\n    tag_92:\n        /* \"#utility.yul\":1593:1710   */\n    tag_91:\n        /* \"#utility.yul\":1734:1812   */\n      tag_94\n        /* \"#utility.yul\":1804:1811   */\n      dup5\n        /* \"#utility.yul\":1795:1801   */\n      dup3\n        /* \"#utility.yul\":1784:1793   */\n      dup6\n        /* \"#utility.yul\":1780:1802   */\n      add\n        /* \"#utility.yul\":1734:1812   */\n      tag_78\n      jump\t// in\n    tag_94:\n        /* \"#utility.yul\":1724:1812   */\n      swap2\n      pop\n        /* \"#utility.yul\":1520:1822   */\n      pop\n        /* \"#utility.yul\":1290:1829   */\n      swap3\n      swap2\n      pop\n      pop\n      jump\t// out\n        /* \"#utility.yul\":1835:2014   */\n    tag_95:\n        /* \"#utility.yul\":1904:1914   */\n      0x00\n        /* \"#utility.yul\":1925:1971   */\n      tag_97\n        /* \"#utility.yul\":1967:1970   */\n      dup4\n        /* \"#utility.yul\":1959:1965   */\n      dup4\n        /* \"#utility.yul\":1925:1971   */\n      tag_98\n      jump\t// in\n    tag_97:\n        /* \"#utility.yul\":2003:2007   */\n      0x20\n        /* \"#utility.yul\":1998:2001   */\n      dup4\n        /* \"#utility.yul\":1994:2008   */\n      add\n        /* \"#utility.yul\":1980:2008   */\n      swap1\n      pop\n        /* \"#utility.yul\":1835:2014   */\n      swap3\n      swap2\n      pop\n      pop\n      jump\t// out\n        /* \"#utility.yul\":2050:2782   */\n    tag_99:\n        /* \"#utility.yul\":2169:2172   */\n      0x00\n        /* \"#utility.yul\":2198:2252   */\n      tag_101\n        /* \"#utility.yul\":2246:2251   */\n      dup3\n        /* \"#utility.yul\":2198:2252   */\n      tag_102\n      jump\t// in\n    tag_101:\n        /* \"#utility.yul\":2268:2354   */\n      tag_103\n        /* \"#utility.yul\":2347:2353   */\n      dup2\n        /* \"#utility.yul\":2342:2345   */\n      dup6\n        /* \"#utility.yul\":2268:2354   */\n      tag_104\n      jump\t// in\n    tag_103:\n        /* \"#utility.yul\":2261:2354   */\n      swap4\n      pop\n        /* \"#utility.yul\":2378:2434   */\n      tag_105\n        /* \"#utility.yul\":2428:2433   */\n      dup4\n        /* \"#utility.yul\":2378:2434   */\n      tag_106\n      jump\t// in\n    tag_105:\n        /* \"#utility.yul\":2457:2464   */\n      dup1\n        /* \"#utility.yul\":2488:2489   */\n      0x00\n        /* \"#utility.yul\":2473:2757   */\n    tag_107:\n        /* \"#utility.yul\":2498:2504   */\n      dup4\n        /* \"#utility.yul\":2495:2496   */\n      dup2\n        /* \"#utility.yul\":2492:2505   */\n      lt\n        /* \"#utility.yul\":2473:2757   */\n      iszero\n      tag_109\n      jumpi\n        /* \"#utility.yul\":2574:2580   */\n      dup2\n        /* \"#utility.yul\":2568:2581   */\n      mload\n        /* \"#utility.yul\":2601:2664   */\n      tag_110\n        /* \"#utility.yul\":2660:2663   */\n      dup9\n        /* \"#utility.yul\":2645:2658   */\n      dup3\n        /* \"#utility.yul\":2601:2664   */\n      tag_95\n      jump\t// in\n    tag_110:\n        /* \"#utility.yul\":2594:2664   */\n      swap8\n      pop\n        /* \"#utility.yul\":2687:2747   */\n      tag_111\n        /* \"#utility.yul\":2740:2746   */\n      dup4\n        /* \"#utility.yul\":2687:2747   */\n      tag_112\n      jump\t// in\n    tag_111:\n        /* \"#utility.yul\":2677:2747   */\n      swap3\n      pop\n        /* \"#utility.yul\":2533:2757   */\n      pop\n        /* \"#utility.yul\":2520:2521   */\n      0x01\n        /* \"#utility.yul\":2517:2518   */\n      dup2\n        /* \"#utility.yul\":2513:2522   */\n      add\n        /* \"#utility.yul\":2508:2522   */\n      swap1\n      pop\n        /* \"#utility.yul\":2473:2757   */\n      jump(tag_107)\n    tag_109:\n        /* \"#utility.yul\":2477:2491   */\n      pop\n        /* \"#utility.yul\":2773:2776   */\n      dup6\n        /* \"#utility.yul\":2766:2776   */\n      swap4\n      pop\n        /* \"#utility.yul\":2174:2782   */\n      pop\n      pop\n      pop\n        /* \"#utility.yul\":2050:2782   */\n      swap3\n      swap2\n      pop\n      pop\n      jump\t// out\n        /* \"#utility.yul\":2788:2896   */\n    tag_98:\n        /* \"#utility.yul\":2865:2889   */\n      tag_114\n        /* \"#utility.yul\":2883:2888   */\n      dup2\n        /* \"#utility.yul\":2865:2889   */\n      tag_115\n      jump\t// in\n    tag_114:\n        /* \"#utility.yul\":2860:2863   */\n      dup3\n        /* \"#utility.yul\":2853:2890   */\n      mstore\n        /* \"#utility.yul\":2788:2896   */\n      pop\n      pop\n      jump\t// out\n        /* \"#utility.yul\":2902:3275   */\n    tag_10:\n        /* \"#utility.yul\":3045:3049   */\n      0x00\n        /* \"#utility.yul\":3083:3085   */\n      0x20\n        /* \"#utility.yul\":3072:3081   */\n      dup3\n        /* \"#utility.yul\":3068:3086   */\n      add\n        /* \"#utility.yul\":3060:3086   */\n      swap1\n      pop\n        /* \"#utility.yul\":3132:3141   */\n      dup2\n        /* \"#utility.yul\":3126:3130   */\n      dup2\n        /* \"#utility.yul\":3122:3142   */\n      sub\n        /* \"#utility.yul\":3118:3119   */\n      0x00\n        /* \"#utility.yul\":3107:3116   */\n      dup4\n        /* \"#utility.yul\":3103:3120   */\n      add\n        /* \"#utility.yul\":3096:3143   */\n      mstore\n        /* \"#utility.yul\":3160:3268   */\n      tag_117\n        /* \"#utility.yul\":3263:3267   */\n      dup2\n        /* \"#utility.yul\":3254:3260   */\n      dup5\n        /* \"#utility.yul\":3160:3268   */\n      tag_99\n      jump\t// in\n    tag_117:\n        /* \"#utility.yul\":3152:3268   */\n      swap1\n      pop\n        /* \"#utility.yul\":2902:3275   */\n      swap3\n      swap2\n      pop\n      pop\n      jump\t// out\n        /* \"#utility.yul\":3281:3410   */\n    tag_69:\n        /* \"#utility.yul\":3315:3321   */\n      0x00\n        /* \"#utility.yul\":3342:3362   */\n      tag_119\n      tag_120\n      jump\t// in\n    tag_119:\n        /* \"#utility.yul\":3332:3362   */\n      swap1\n      pop\n        /* \"#utility.yul\":3371:3404   */\n      tag_121\n        /* \"#utility.yul\":3399:3403   */\n      dup3\n        /* \"#utility.yul\":3391:3397   */\n      dup3\n        /* \"#utility.yul\":3371:3404   */\n      tag_122\n      jump\t// in\n    tag_121:\n        /* \"#utility.yul\":3281:3410   */\n      swap2\n      swap1\n      pop\n      jump\t// out\n        /* \"#utility.yul\":3416:3491   */\n    tag_120:\n        /* \"#utility.yul\":3449:3455   */\n      0x00\n        /* \"#utility.yul\":3482:3484   */\n      0x40\n        /* \"#utility.yul\":3476:3485   */\n      mload\n        /* \"#utility.yul\":3466:3485   */\n      swap1\n      pop\n        /* \"#utility.yul\":3416:3491   */\n      swap1\n      jump\t// out\n        /* \"#utility.yul\":3497:3808   */\n    tag_68:\n        /* \"#utility.yul\":3574:3578   */\n      0x00\n        /* \"#utility.yul\":3664:3682   */\n      0xffffffffffffffff\n        /* \"#utility.yul\":3656:3662   */\n      dup3\n        /* \"#utility.yul\":3653:3683   */\n      gt\n        /* \"#utility.yul\":3650:3706   */\n      iszero\n      tag_125\n      jumpi\n        /* \"#utility.yul\":3686:3704   */\n      tag_126\n      tag_127\n      jump\t// in\n    tag_126:\n        /* \"#utility.yul\":3650:3706   */\n    tag_125:\n        /* \"#utility.yul\":3736:3740   */\n      0x20\n        /* \"#utility.yul\":3728:3734   */\n      dup3\n        /* \"#utility.yul\":3724:3741   */\n      mul\n        /* \"#utility.yul\":3716:3741   */\n      swap1\n      pop\n        /* \"#utility.yul\":3796:3800   */\n      0x20\n        /* \"#utility.yul\":3790:3794   */\n      dup2\n        /* \"#utility.yul\":3786:3801   */\n      add\n        /* \"#utility.yul\":3778:3801   */\n      swap1\n      pop\n        /* \"#utility.yul\":3497:3808   */\n      swap2\n      swap1\n      pop\n      jump\t// out\n        /* \"#utility.yul\":3814:3946   */\n    tag_106:\n        /* \"#utility.yul\":3881:3885   */\n      0x00\n        /* \"#utility.yul\":3904:3907   */\n      dup2\n        /* \"#utility.yul\":3896:3907   */\n      swap1\n      pop\n        /* \"#utility.yul\":3934:3938   */\n      0x20\n        /* \"#utility.yul\":3929:3932   */\n      dup3\n        /* \"#utility.yul\":3925:3939   */\n      add\n        /* \"#utility.yul\":3917:3939   */\n      swap1\n      pop\n        /* \"#utility.yul\":3814:3946   */\n      swap2\n      swap1\n      pop\n      jump\t// out\n        /* \"#utility.yul\":3952:4066   */\n    tag_102:\n        /* \"#utility.yul\":4019:4025   */\n      0x00\n        /* \"#utility.yul\":4053:4058   */\n      dup2\n        /* \"#utility.yul\":4047:4059   */\n      mload\n        /* \"#utility.yul\":4037:4059   */\n      swap1\n      pop\n        /* \"#utility.yul\":3952:4066   */\n      swap2\n      swap1\n      pop\n      jump\t// out\n        /* \"#utility.yul\":4072:4185   */\n    tag_112:\n        /* \"#utility.yul\":4142:4146   */\n      0x00\n        /* \"#utility.yul\":4174:4178   */\n      0x20\n        /* \"#utility.yul\":4169:4172   */\n      dup3\n        /* \"#utility.yul\":4165:4179   */\n      add\n        /* \"#utility.yul\":4157:4179   */\n      swap1\n      pop\n        /* \"#utility.yul\":4072:4185   */\n      swap2\n      swap1\n      pop\n      jump\t// out\n        /* \"#utility.yul\":4191:4375   */\n    tag_104:\n        /* \"#utility.yul\":4290:4301   */\n      0x00\n        /* \"#utility.yul\":4324:4330   */\n      dup3\n        /* \"#utility.yul\":4319:4322   */\n      dup3\n        /* \"#utility.yul\":4312:4331   */\n      mstore\n        /* \"#utility.yul\":4364:4368   */\n      0x20\n        /* \"#utility.yul\":4359:4362   */\n      dup3\n        /* \"#utility.yul\":4355:4369   */\n      add\n        /* \"#utility.yul\":4340:4369   */\n      swap1\n      pop\n        /* \"#utility.yul\":4191:4375   */\n      swap3\n      swap2\n      pop\n      pop\n      jump\t// out\n        /* \"#utility.yul\":4381:4686   */\n    tag_32:\n        /* \"#utility.yul\":4421:4424   */\n      0x00\n        /* \"#utility.yul\":4440:4460   */\n      tag_133\n        /* \"#utility.yul\":4458:4459   */\n      dup3\n        /* \"#utility.yul\":4440:4460   */\n      tag_115\n      jump\t// in\n    tag_133:\n        /* \"#utility.yul\":4435:4460   */\n      swap2\n      pop\n        /* \"#utility.yul\":4474:4494   */\n      tag_134\n        /* \"#utility.yul\":4492:4493   */\n      dup4\n        /* \"#utility.yul\":4474:4494   */\n      tag_115\n      jump\t// in\n    tag_134:\n        /* \"#utility.yul\":4469:4494   */\n      swap3\n      pop\n        /* \"#utility.yul\":4628:4629   */\n      dup3\n        /* \"#utility.yul\":4560:4626   */\n      0xffffffffffffffffffffffffffffffffffffffffffffffffffffffffffffffff\n        /* \"#utility.yul\":4556:4630   */\n      sub\n        /* \"#utility.yul\":4553:4554   */\n      dup3\n        /* \"#utility.yul\":4550:4631   */\n      gt\n        /* \"#utility.yul\":4547:4654   */\n      iszero\n      tag_135\n      jumpi\n        /* \"#utility.yul\":4634:4652   */\n      tag_136\n      tag_137\n      jump\t// in\n    tag_136:\n        /* \"#utility.yul\":4547:4654   */\n    tag_135:\n        /* \"#utility.yul\":4678:4679   */\n      dup3\n        /* \"#utility.yul\":4675:4676   */\n      dup3\n        /* \"#utility.yul\":4671:4680   */\n      add\n        /* \"#utility.yul\":4664:4680   */\n      swap1\n      pop\n        /* \"#utility.yul\":4381:4686   */\n      swap3\n      swap2\n      pop\n      pop\n      jump\t// out\n        /* \"#utility.yul\":4692:4883   */\n    tag_23:\n        /* \"#utility.yul\":4732:4736   */\n      0x00\n        /* \"#utility.yul\":4752:4772   */\n      tag_139\n        /* \"#utility.yul\":4770:4771   */\n      dup3\n        /* \"#utility.yul\":4752:4772   */\n      tag_115\n      jump\t// in\n    tag_139:\n        /* \"#utility.yul\":4747:4772   */\n      swap2\n      pop\n        /* \"#utility.yul\":4786:4806   */\n      tag_140\n        /* \"#utility.yul\":4804:4805   */\n      dup4\n        /* \"#utility.yul\":4786:4806   */\n      tag_115\n      jump\t// in\n    tag_140:\n        /* \"#utility.yul\":4781:4806   */\n      swap3\n      pop\n        /* \"#utility.yul\":4825:4826   */\n      dup3\n        /* \"#utility.yul\":4822:4823   */\n      dup3\n        /* \"#utility.yul\":4819:4827   */\n      lt\n        /* \"#utility.yul\":4816:4850   */\n      iszero\n      tag_141\n      jumpi\n        /* \"#utility.yul\":4830:4848   */\n      tag_142\n      tag_137\n      jump\t// in\n    tag_142:\n        /* \"#utility.yul\":4816:4850   */\n    tag_141:\n        /* \"#utility.yul\":4875:4876   */\n      dup3\n        /* \"#utility.yul\":4872:4873   */\n      dup3\n        /* \"#utility.yul\":4868:4877   */\n      sub\n        /* \"#utility.yul\":4860:4877   */\n      swap1\n      pop\n        /* \"#utility.yul\":4692:4883   */\n      swap3\n      swap2\n      pop\n      pop\n      jump\t// out\n        /* \"#utility.yul\":4889:4966   */\n    tag_115:\n        /* \"#utility.yul\":4926:4933   */\n      0x00\n        /* \"#utility.yul\":4955:4960   */\n      dup2\n        /* \"#utility.yul\":4944:4960   */\n      swap1\n      pop\n        /* \"#utility.yul\":4889:4966   */\n      swap2\n      swap1\n      pop\n      jump\t// out\n        /* \"#utility.yul\":4972:5143   */\n    tag_36:\n        /* \"#utility.yul\":5011:5014   */\n      0x00\n        /* \"#utility.yul\":5034:5058   */\n      tag_145\n        /* \"#utility.yul\":5052:5057   */\n      dup3\n        /* \"#utility.yul\":5034:5058   */\n      tag_115\n      jump\t// in\n    tag_145:\n        /* \"#utility.yul\":5025:5058   */\n      swap2\n      pop\n        /* \"#utility.yul\":5080:5084   */\n      0x00\n        /* \"#utility.yul\":5073:5078   */\n      dup3\n        /* \"#utility.yul\":5070:5085   */\n      eq\n        /* \"#utility.yul\":5067:5108   */\n      iszero\n      tag_146\n      jumpi\n        /* \"#utility.yul\":5088:5106   */\n      tag_147\n      tag_137\n      jump\t// in\n    tag_147:\n        /* \"#utility.yul\":5067:5108   */\n    tag_146:\n        /* \"#utility.yul\":5135:5136   */\n      0x01\n        /* \"#utility.yul\":5128:5133   */\n      dup3\n        /* \"#utility.yul\":5124:5137   */\n      sub\n        /* \"#utility.yul\":5117:5137   */\n      swap1\n      pop\n        /* \"#utility.yul\":4972:5143   */\n      swap2\n      swap1\n      pop\n      jump\t// out\n        /* \"#utility.yul\":5149:5430   */\n    tag_122:\n        /* \"#utility.yul\":5232:5259   */\n      tag_149\n        /* \"#utility.yul\":5254:5258   */\n      dup3\n        /* \"#utility.yul\":5232:5259   */\n      tag_150\n      jump\t// in\n    tag_149:\n        /* \"#utility.yul\":5224:5230   */\n      dup2\n        /* \"#utility.yul\":5220:5260   */\n      add\n        /* \"#utility.yul\":5362:5368   */\n      dup2\n        /* \"#utility.yul\":5350:5360   */\n      dup2\n        /* \"#utility.yul\":5347:5369   */\n      lt\n        /* \"#utility.yul\":5326:5344   */\n      0xffffffffffffffff\n        /* \"#utility.yul\":5314:5324   */\n      dup3\n        /* \"#utility.yul\":5311:5345   */\n      gt\n        /* \"#utility.yul\":5308:5370   */\n      or\n        /* \"#utility.yul\":5305:5393   */\n      iszero\n      tag_151\n      jumpi\n        /* \"#utility.yul\":5373:5391   */\n      tag_152\n      tag_127\n      jump\t// in\n    tag_152:\n        /* \"#utility.yul\":5305:5393   */\n    tag_151:\n        /* \"#utility.yul\":5413:5423   */\n      dup1\n        /* \"#utility.yul\":5409:5411   */\n      0x40\n        /* \"#utility.yul\":5402:5424   */\n      mstore\n        /* \"#utility.yul\":5192:5430   */\n      pop\n        /* \"#utility.yul\":5149:5430   */\n      pop\n      pop\n      jump\t// out\n        /* \"#utility.yul\":5436:5669   */\n    tag_41:\n        /* \"#utility.yul\":5475:5478   */\n      0x00\n        /* \"#utility.yul\":5498:5522   */\n      tag_154\n        /* \"#utility.yul\":5516:5521   */\n      dup3\n        /* \"#utility.yul\":5498:5522   */\n      tag_115\n      jump\t// in\n    tag_154:\n        /* \"#utility.yul\":5489:5522   */\n      swap2\n      pop\n        /* \"#utility.yul\":5544:5610   */\n      0xffffffffffffffffffffffffffffffffffffffffffffffffffffffffffffffff\n        /* \"#utility.yul\":5537:5542   */\n      dup3\n        /* \"#utility.yul\":5534:5611   */\n      eq\n        /* \"#utility.yul\":5531:5634   */\n      iszero\n      tag_155\n      jumpi\n        /* \"#utility.yul\":5614:5632   */\n      tag_156\n      tag_137\n      jump\t// in\n    tag_156:\n        /* \"#utility.yul\":5531:5634   */\n    tag_155:\n        /* \"#utility.yul\":5661:5662   */\n      0x01\n        /* \"#utility.yul\":5654:5659   */\n      dup3\n        /* \"#utility.yul\":5650:5663   */\n      add\n        /* \"#utility.yul\":5643:5663   */\n      swap1\n      pop\n        /* \"#utility.yul\":5436:5669   */\n      swap2\n      swap1\n      pop\n      jump\t// out\n        /* \"#utility.yul\":5675:5855   */\n    tag_137:\n        /* \"#utility.yul\":5723:5800   */\n      0x4e487b7100000000000000000000000000000000000000000000000000000000\n        /* \"#utility.yul\":5720:5721   */\n      0x00\n        /* \"#utility.yul\":5713:5801   */\n      mstore\n        /* \"#utility.yul\":5820:5824   */\n      0x11\n        /* \"#utility.yul\":5817:5818   */\n      0x04\n        /* \"#utility.yul\":5810:5825   */\n      mstore\n        /* \"#utility.yul\":5844:5848   */\n      0x24\n        /* \"#utility.yul\":5841:5842   */\n      0x00\n        /* \"#utility.yul\":5834:5849   */\n      revert\n        /* \"#utility.yul\":5861:6041   */\n    tag_21:\n        /* \"#utility.yul\":5909:5986   */\n      0x4e487b7100000000000000000000000000000000000000000000000000000000\n        /* \"#utility.yul\":5906:5907   */\n      0x00\n        /* \"#utility.yul\":5899:5987   */\n      mstore\n        /* \"#utility.yul\":6006:6010   */\n      0x32\n        /* \"#utility.yul\":6003:6004   */\n      0x04\n        /* \"#utility.yul\":5996:6011   */\n      mstore\n        /* \"#utility.yul\":6030:6034   */\n      0x24\n        /* \"#utility.yul\":6027:6028   */\n      0x00\n        /* \"#utility.yul\":6020:6035   */\n      revert\n        /* \"#utility.yul\":6047:6227   */\n    tag_127:\n        /* \"#utility.yul\":6095:6172   */\n      0x4e487b7100000000000000000000000000000000000000000000000000000000\n        /* \"#utility.yul\":6092:6093   */\n      0x00\n        /* \"#utility.yul\":6085:6173   */\n      mstore\n        /* \"#utility.yul\":6192:6196   */\n      0x41\n        /* \"#utility.yul\":6189:6190   */\n      0x04\n        /* \"#utility.yul\":6182:6197   */\n      mstore\n        /* \"#utility.yul\":6216:6220   */\n      0x24\n        /* \"#utility.yul\":6213:6214   */\n      0x00\n        /* \"#utility.yul\":6206:6221   */\n      revert\n        /* \"#utility.yul\":6233:6350   */\n    tag_82:\n        /* \"#utility.yul\":6342:6343   */\n      0x00\n        /* \"#utility.yul\":6339:6340   */\n      dup1\n        /* \"#utility.yul\":6332:6344   */\n      revert\n        /* \"#utility.yul\":6356:6473   */\n    tag_72:\n        /* \"#utility.yul\":6465:6466   */\n      0x00\n        /* \"#utility.yul\":6462:6463   */\n      dup1\n        /* \"#utility.yul\":6455:6467   */\n      revert\n        /* \"#utility.yul\":6479:6596   */\n    tag_93:\n        /* \"#utility.yul\":6588:6589   */\n      0x00\n        /* \"#utility.yul\":6585:6586   */\n      dup1\n        /* \"#utility.yul\":6578:6590   */\n      revert\n        /* \"#utility.yul\":6602:6719   */\n    tag_90:\n        /* \"#utility.yul\":6711:6712   */\n      0x00\n        /* \"#utility.yul\":6708:6709   */\n      dup1\n        /* \"#utility.yul\":6701:6713   */\n      revert\n        /* \"#utility.yul\":6725:6827   */\n    tag_150:\n        /* \"#utility.yul\":6766:6772   */\n      0x00\n        /* \"#utility.yul\":6817:6819   */\n      0x1f\n        /* \"#utility.yul\":6813:6820   */\n      not\n        /* \"#utility.yul\":6808:6810   */\n      0x1f\n        /* \"#utility.yul\":6801:6806   */\n      dup4\n        /* \"#utility.yul\":6797:6811   */\n      add\n        /* \"#utility.yul\":6793:6821   */\n      and\n        /* \"#utility.yul\":6783:6821   */\n      swap1\n      pop\n        /* \"#utility.yul\":6725:6827   */\n      swap2\n      swap1\n      pop\n      jump\t// out\n        /* \"#utility.yul\":6833:6955   */\n    tag_86:\n        /* \"#utility.yul\":6906:6930   */\n      tag_166\n        /* \"#utility.yul\":6924:6929   */\n      dup2\n        /* \"#utility.yul\":6906:6930   */\n      tag_115\n      jump\t// in\n    tag_166:\n        /* \"#utility.yul\":6899:6904   */\n      dup2\n        /* \"#utility.yul\":6896:6931   */\n      eq\n        /* \"#utility.yul\":6886:6949   */\n      tag_167\n      jumpi\n        /* \"#utility.yul\":6945:6946   */\n      0x00\n        /* \"#utility.yul\":6942:6943   */\n      dup1\n        /* \"#utility.yul\":6935:6947   */\n      revert\n        /* \"#utility.yul\":6886:6949   */\n    tag_167:\n        /* \"#utility.yul\":6833:6955   */\n      pop\n      jump\t// out\n\n    auxdata: 0xa2646970667358221220df353660e7a594d91d07506e3adf8fafe9eccc8d85e1b32c1e77bd8783556df364736f6c63430008070033\n}\n",
				"bytecode": {
					"linkReferences": {},
					"object": "608060405234801561001057600080fd5b5061071d806100206000396000f3fe608060405234801561001057600080fd5b50600436106100365760003560e01c80636188a6c01461003b5780636297206f1461006b575b600080fd5b6100556004803603810190610050919061036c565b61009b565b604051610062919061043a565b60405180910390f35b6100856004803603810190610080919061036c565b6101b0565b604051610092919061043a565b60405180910390f35b60606000600190505b82518110156101a75760008382815181106100c2576100c161064d565b5b6020026020010151905060006001836100db919061053c565b90505b6000811015801561010857508481815181106100fd576100fc61064d565b5b602002602001015182105b15610166578481815181106101205761011f61064d565b5b60200260200101518560018361013691906104e6565b815181106101475761014661064d565b5b602002602001018181525050808061015e9061057a565b9150506100de565b818560018361017591906104e6565b815181106101865761018561064d565b5b6020026020010181815250505050808061019f906105d5565b9150506100a4565b50819050919050565b60606000600190505b82518110156102b05760008382815181106101d7576101d661064d565b5b6020026020010151905060008290505b6001811015801561021d575084600182610201919061053c565b815181106102125761021161064d565b5b602002602001015182105b1561027b5784600182610230919061053c565b815181106102415761024061064d565b5b602002602001015185828151811061025c5761025b61064d565b5b60200260200101818152505080806102739061057a565b9150506101e7565b8185828151811061028f5761028e61064d565b5b602002602001018181525050505080806102a8906105d5565b9150506101b9565b50819050919050565b60006102cc6102c784610481565b61045c565b905080838252602082019050828560208602820111156102ef576102ee6106b0565b5b60005b8581101561031f57816103058882610357565b8452602084019350602083019250506001810190506102f2565b5050509392505050565b600082601f83011261033e5761033d6106ab565b5b813561034e8482602086016102b9565b91505092915050565b600081359050610366816106d0565b92915050565b600060208284031215610382576103816106ba565b5b600082013567ffffffffffffffff8111156103a05761039f6106b5565b5b6103ac84828501610329565b91505092915050565b60006103c1838361042b565b60208301905092915050565b60006103d8826104bd565b6103e281856104d5565b93506103ed836104ad565b8060005b8381101561041e57815161040588826103b5565b9750610410836104c8565b9250506001810190506103f1565b5085935050505092915050565b61043481610570565b82525050565b6000602082019050818103600083015261045481846103cd565b905092915050565b6000610466610477565b905061047282826105a4565b919050565b6000604051905090565b600067ffffffffffffffff82111561049c5761049b61067c565b5b602082029050602081019050919050565b6000819050602082019050919050565b600081519050919050565b6000602082019050919050565b600082825260208201905092915050565b60006104f182610570565b91506104fc83610570565b9250827fffffffffffffffffffffffffffffffffffffffffffffffffffffffffffffffff038211156105315761053061061e565b5b828201905092915050565b600061054782610570565b915061055283610570565b9250828210156105655761056461061e565b5b828203905092915050565b6000819050919050565b600061058582610570565b915060008214156105995761059861061e565b5b600182039050919050565b6105ad826106bf565b810181811067ffffffffffffffff821117156105cc576105cb61067c565b5b80604052505050565b60006105e082610570565b91507fffffffffffffffffffffffffffffffffffffffffffffffffffffffffffffffff8214156106135761061261061e565b5b600182019050919050565b7f4e487b7100000000000000000000000000000000000000000000000000000000600052601160045260246000fd5b7f4e487b7100000000000000000000000000000000000000000000000000000000600052603260045260246000fd5b7f4e487b7100000000000000000000000000000000000000000000000000000000600052604160045260246000fd5b600080fd5b600080fd5b600080fd5b600080fd5b6000601f19601f8301169050919050565b6106d981610570565b81146106e457600080fd5b5056fea2646970667358221220df353660e7a594d91d07506e3adf8fafe9eccc8d85e1b32c1e77bd8783556df364736f6c63430008070033",
					"opcodes": "PUSH1 0x80 PUSH1 0x40 MSTORE CALLVALUE DUP1 ISZERO PUSH2 0x10 JUMPI PUSH1 0x0 DUP1 REVERT JUMPDEST POP PUSH2 0x71D DUP1 PUSH2 0x20 PUSH1 0x0 CODECOPY PUSH1 0x0 RETURN INVALID PUSH1 0x80 PUSH1 0x40 MSTORE CALLVALUE DUP1 ISZERO PUSH2 0x10 JUMPI PUSH1 0x0 DUP1 REVERT JUMPDEST POP PUSH1 0x4 CALLDATASIZE LT PUSH2 0x36 JUMPI PUSH1 0x0 CALLDATALOAD PUSH1 0xE0 SHR DUP1 PUSH4 0x6188A6C0 EQ PUSH2 0x3B JUMPI DUP1 PUSH4 0x6297206F EQ PUSH2 0x6B JUMPI JUMPDEST PUSH1 0x0 DUP1 REVERT JUMPDEST PUSH2 0x55 PUSH1 0x4 DUP1 CALLDATASIZE SUB DUP2 ADD SWAP1 PUSH2 0x50 SWAP2 SWAP1 PUSH2 0x36C JUMP JUMPDEST PUSH2 0x9B JUMP JUMPDEST PUSH1 0x40 MLOAD PUSH2 0x62 SWAP2 SWAP1 PUSH2 0x43A JUMP JUMPDEST PUSH1 0x40 MLOAD DUP1 SWAP2 SUB SWAP1 RETURN JUMPDEST PUSH2 0x85 PUSH1 0x4 DUP1 CALLDATASIZE SUB DUP2 ADD SWAP1 PUSH2 0x80 SWAP2 SWAP1 PUSH2 0x36C JUMP JUMPDEST PUSH2 0x1B0 JUMP JUMPDEST PUSH1 0x40 MLOAD PUSH2 0x92 SWAP2 SWAP1 PUSH2 0x43A JUMP JUMPDEST PUSH1 0x40 MLOAD DUP1 SWAP2 SUB SWAP1 RETURN JUMPDEST PUSH1 0x60 PUSH1 0x0 PUSH1 0x1 SWAP1 POP JUMPDEST DUP3 MLOAD DUP2 LT ISZERO PUSH2 0x1A7 JUMPI PUSH1 0x0 DUP4 DUP3 DUP2 MLOAD DUP2 LT PUSH2 0xC2 JUMPI PUSH2 0xC1 PUSH2 0x64D JUMP JUMPDEST JUMPDEST PUSH1 0x20 MUL PUSH1 0x20 ADD ADD MLOAD SWAP1 POP PUSH1 0x0 PUSH1 0x1 DUP4 PUSH2 0xDB SWAP2 SWAP1 PUSH2 0x53C JUMP JUMPDEST SWAP1 POP JUMPDEST PUSH1 0x0 DUP2 LT ISZERO DUP1 ISZERO PUSH2 0x108 JUMPI POP DUP5 DUP2 DUP2 MLOAD DUP2 LT PUSH2 0xFD JUMPI PUSH2 0xFC PUSH2 0x64D JUMP JUMPDEST JUMPDEST PUSH1 0x20 MUL PUSH1 0x20 ADD ADD MLOAD DUP3 LT JUMPDEST ISZERO PUSH2 0x166 JUMPI DUP5 DUP2 DUP2 MLOAD DUP2 LT PUSH2 0x120 JUMPI PUSH2 0x11F PUSH2 0x64D JUMP JUMPDEST JUMPDEST PUSH1 0x20 MUL PUSH1 0x20 ADD ADD MLOAD DUP6 PUSH1 0x1 DUP4 PUSH2 0x136 SWAP2 SWAP1 PUSH2 0x4E6 JUMP JUMPDEST DUP2 MLOAD DUP2 LT PUSH2 0x147 JUMPI PUSH2 0x146 PUSH2 0x64D JUMP JUMPDEST JUMPDEST PUSH1 0x20 MUL PUSH1 0x20 ADD ADD DUP2 DUP2 MSTORE POP POP DUP1 DUP1 PUSH2 0x15E SWAP1 PUSH2 0x57A JUMP JUMPDEST SWAP2 POP POP PUSH2 0xDE JUMP JUMPDEST DUP2 DUP6 PUSH1 0x1 DUP4 PUSH2 0x175 SWAP2 SWAP1 PUSH2 0x4E6 JUMP JUMPDEST DUP2 MLOAD DUP2 LT PUSH2 0x186 JUMPI PUSH2 0x185 PUSH2 0x64D JUMP JUMPDEST JUMPDEST PUSH1 0x20 MUL PUSH1 0x20 ADD ADD DUP2 DUP2 MSTORE POP POP POP POP DUP1 DUP1 PUSH2 0x19F SWAP1 PUSH2 0x5D5 JUMP JUMPDEST SWAP2 POP POP PUSH2 0xA4 JUMP JUMPDEST POP DUP2 SWAP1 POP SWAP2 SWAP1 POP JUMP JUMPDEST PUSH1 0x60 PUSH1 0x0 PUSH1 0x1 SWAP1 POP JUMPDEST DUP3 MLOAD DUP2 LT ISZERO PUSH2 0x2B0 JUMPI PUSH1 0x0 DUP4 DUP3 DUP2 MLOAD DUP2 LT PUSH2 0x1D7 JUMPI PUSH2 0x1D6 PUSH2 0x64D JUMP JUMPDEST JUMPDEST PUSH1 0x20 MUL PUSH1 0x20 ADD ADD MLOAD SWAP1 POP PUSH1 0x0 DUP3 SWAP1 POP JUMPDEST PUSH1 0x1 DUP2 LT ISZERO DUP1 ISZERO PUSH2 0x21D JUMPI POP DUP5 PUSH1 0x1 DUP3 PUSH2 0x201 SWAP2 SWAP1 PUSH2 0x53C JUMP JUMPDEST DUP2 MLOAD DUP2 LT PUSH2 0x212 JUMPI PUSH2 0x211 PUSH2 0x64D JUMP JUMPDEST JUMPDEST PUSH1 0x20 MUL PUSH1 0x20 ADD ADD MLOAD DUP3 LT JUMPDEST ISZERO PUSH2 0x27B JUMPI DUP5 PUSH1 0x1 DUP3 PUSH2 0x230 SWAP2 SWAP1 PUSH2 0x53C JUMP JUMPDEST DUP2 MLOAD DUP2 LT PUSH2 0x241 JUMPI PUSH2 0x240 PUSH2 0x64D JUMP JUMPDEST JUMPDEST PUSH1 0x20 MUL PUSH1 0x20 ADD ADD MLOAD DUP6 DUP3 DUP2 MLOAD DUP2 LT PUSH2 0x25C JUMPI PUSH2 0x25B PUSH2 0x64D JUMP JUMPDEST JUMPDEST PUSH1 0x20 MUL PUSH1 0x20 ADD ADD DUP2 DUP2 MSTORE POP POP DUP1 DUP1 PUSH2 0x273 SWAP1 PUSH2 0x57A JUMP JUMPDEST SWAP2 POP POP PUSH2 0x1E7 JUMP JUMPDEST DUP2 DUP6 DUP3 DUP2 MLOAD DUP2 LT PUSH2 0x28F JUMPI PUSH2 0x28E PUSH2 0x64D JUMP JUMPDEST JUMPDEST PUSH1 0x20 MUL PUSH1 0x20 ADD ADD DUP2 DUP2 MSTORE POP POP POP POP DUP1 DUP1 PUSH2 0x2A8 SWAP1 PUSH2 0x5D5 JUMP JUMPDEST SWAP2 POP POP PUSH2 0x1B9 JUMP JUMPDEST POP DUP2 SWAP1 POP SWAP2 SWAP1 POP JUMP JUMPDEST PUSH1 0x0 PUSH2 0x2CC PUSH2 0x2C7 DUP5 PUSH2 0x481 JUMP JUMPDEST PUSH2 0x45C JUMP JUMPDEST SWAP1 POP DUP1 DUP4 DUP3 MSTORE PUSH1 0x20 DUP3 ADD SWAP1 POP DUP3 DUP6 PUSH1 0x20 DUP7 MUL DUP3 ADD GT ISZERO PUSH2 0x2EF JUMPI PUSH2 0x2EE PUSH2 0x6B0 JUMP JUMPDEST JUMPDEST PUSH1 0x0 JUMPDEST DUP6 DUP2 LT ISZERO PUSH2 0x31F JUMPI DUP2 PUSH2 0x305 DUP9 DUP3 PUSH2 0x357 JUMP JUMPDEST DUP5 MSTORE PUSH1 0x20 DUP5 ADD SWAP4 POP PUSH1 0x20 DUP4 ADD SWAP3 POP POP PUSH1 0x1 DUP2 ADD SWAP1 POP PUSH2 0x2F2 JUMP JUMPDEST POP POP POP SWAP4 SWAP3 POP POP POP JUMP JUMPDEST PUSH1 0x0 DUP3 PUSH1 0x1F DUP4 ADD SLT PUSH2 0x33E JUMPI PUSH2 0x33D PUSH2 0x6AB JUMP JUMPDEST JUMPDEST DUP2 CALLDATALOAD PUSH2 0x34E DUP5 DUP3 PUSH1 0x20 DUP7 ADD PUSH2 0x2B9 JUMP JUMPDEST SWAP2 POP POP SWAP3 SWAP2 POP POP JUMP JUMPDEST PUSH1 0x0 DUP2 CALLDATALOAD SWAP1 POP PUSH2 0x366 DUP2 PUSH2 0x6D0 JUMP JUMPDEST SWAP3 SWAP2 POP POP JUMP JUMPDEST PUSH1 0x0 PUSH1 0x20 DUP3 DUP5 SUB SLT ISZERO PUSH2 0x382 JUMPI PUSH2 0x381 PUSH2 0x6BA JUMP JUMPDEST JUMPDEST PUSH1 0x0 DUP3 ADD CALLDATALOAD PUSH8 0xFFFFFFFFFFFFFFFF DUP2 GT ISZERO PUSH2 0x3A0 JUMPI PUSH2 0x39F PUSH2 0x6B5 JUMP JUMPDEST JUMPDEST PUSH2 0x3AC DUP5 DUP3 DUP6 ADD PUSH2 0x329 JUMP JUMPDEST SWAP2 POP POP SWAP3 SWAP2 POP POP JUMP JUMPDEST PUSH1 0x0 PUSH2 0x3C1 DUP4 DUP4 PUSH2 0x42B JUMP JUMPDEST PUSH1 0x20 DUP4 ADD SWAP1 POP SWAP3 SWAP2 POP POP JUMP JUMPDEST PUSH1 0x0 PUSH2 0x3D8 DUP3 PUSH2 0x4BD JUMP JUMPDEST PUSH2 0x3E2 DUP2 DUP6 PUSH2 0x4D5 JUMP JUMPDEST SWAP4 POP PUSH2 0x3ED DUP4 PUSH2 0x4AD JUMP JUMPDEST DUP1 PUSH1 0x0 JUMPDEST DUP4 DUP2 LT ISZERO PUSH2 0x41E JUMPI DUP2 MLOAD PUSH2 0x405 DUP9 DUP3 PUSH2 0x3B5 JUMP JUMPDEST SWAP8 POP PUSH2 0x410 DUP4 PUSH2 0x4C8 JUMP JUMPDEST SWAP3 POP POP PUSH1 0x1 DUP2 ADD SWAP1 POP PUSH2 0x3F1 JUMP JUMPDEST POP DUP6 SWAP4 POP POP POP POP SWAP3 SWAP2 POP POP JUMP JUMPDEST PUSH2 0x434 DUP2 PUSH2 0x570 JUMP JUMPDEST DUP3 MSTORE POP POP JUMP JUMPDEST PUSH1 0x0 PUSH1 0x20 DUP3 ADD SWAP1 POP DUP2 DUP2 SUB PUSH1 0x0 DUP4 ADD MSTORE PUSH2 0x454 DUP2 DUP5 PUSH2 0x3CD JUMP JUMPDEST SWAP1 POP SWAP3 SWAP2 POP POP JUMP JUMPDEST PUSH1 0x0 PUSH2 0x466 PUSH2 0x477 JUMP JUMPDEST SWAP1 POP PUSH2 0x472 DUP3 DUP3 PUSH2 0x5A4 JUMP JUMPDEST SWAP2 SWAP1 POP JUMP JUMPDEST PUSH1 0x0 PUSH1 0x40 MLOAD SWAP1 POP SWAP1 JUMP JUMPDEST PUSH1 0x0 PUSH8 0xFFFFFFFFFFFFFFFF DUP3 GT ISZERO PUSH2 0x49C JUMPI PUSH2 0x49B PUSH2 0x67C JUMP JUMPDEST JUMPDEST PUSH1 0x20 DUP3 MUL SWAP1 POP PUSH1 0x20 DUP2 ADD SWAP1 POP SWAP2 SWAP1 POP JUMP JUMPDEST PUSH1 0x0 DUP2 SWAP1 POP PUSH1 0x20 DUP3 ADD SWAP1 POP SWAP2 SWAP1 POP JUMP JUMPDEST PUSH1 0x0 DUP2 MLOAD SWAP1 POP SWAP2 SWAP1 POP JUMP JUMPDEST PUSH1 0x0 PUSH1 0x20 DUP3 ADD SWAP1 POP SWAP2 SWAP1 POP JUMP JUMPDEST PUSH1 0x0 DUP3 DUP3 MSTORE PUSH1 0x20 DUP3 ADD SWAP1 POP SWAP3 SWAP2 POP POP JUMP JUMPDEST PUSH1 0x0 PUSH2 0x4F1 DUP3 PUSH2 0x570 JUMP JUMPDEST SWAP2 POP PUSH2 0x4FC DUP4 PUSH2 0x570 JUMP JUMPDEST SWAP3 POP DUP3 PUSH32 0xFFFFFFFFFFFFFFFFFFFFFFFFFFFFFFFFFFFFFFFFFFFFFFFFFFFFFFFFFFFFFFFF SUB DUP3 GT ISZERO PUSH2 0x531 JUMPI PUSH2 0x530 PUSH2 0x61E JUMP JUMPDEST JUMPDEST DUP3 DUP3 ADD SWAP1 POP SWAP3 SWAP2 POP POP JUMP JUMPDEST PUSH1 0x0 PUSH2 0x547 DUP3 PUSH2 0x570 JUMP JUMPDEST SWAP2 POP PUSH2 0x552 DUP4 PUSH2 0x570 JUMP JUMPDEST SWAP3 POP DUP3 DUP3 LT ISZERO PUSH2 0x565 JUMPI PUSH2 0x564 PUSH2 0x61E JUMP JUMPDEST JUMPDEST DUP3 DUP3 SUB SWAP1 POP SWAP3 SWAP2 POP POP JUMP JUMPDEST PUSH1 0x0 DUP2 SWAP1 POP SWAP2 SWAP1 POP JUMP JUMPDEST PUSH1 0x0 PUSH2 0x585 DUP3 PUSH2 0x570 JUMP JUMPDEST SWAP2 POP PUSH1 0x0 DUP3 EQ ISZERO PUSH2 0x599 JUMPI PUSH2 0x598 PUSH2 0x61E JUMP JUMPDEST JUMPDEST PUSH1 0x1 DUP3 SUB SWAP1 POP SWAP2 SWAP1 POP JUMP JUMPDEST PUSH2 0x5AD DUP3 PUSH2 0x6BF JUMP JUMPDEST DUP2 ADD DUP2 DUP2 LT PUSH8 0xFFFFFFFFFFFFFFFF DUP3 GT OR ISZERO PUSH2 0x5CC JUMPI PUSH2 0x5CB PUSH2 0x67C JUMP JUMPDEST JUMPDEST DUP1 PUSH1 0x40 MSTORE POP POP POP JUMP JUMPDEST PUSH1 0x0 PUSH2 0x5E0 DUP3 PUSH2 0x570 JUMP JUMPDEST SWAP2 POP PUSH32 0xFFFFFFFFFFFFFFFFFFFFFFFFFFFFFFFFFFFFFFFFFFFFFFFFFFFFFFFFFFFFFFFF DUP3 EQ ISZERO PUSH2 0x613 JUMPI PUSH2 0x612 PUSH2 0x61E JUMP JUMPDEST JUMPDEST PUSH1 0x1 DUP3 ADD SWAP1 POP SWAP2 SWAP1 POP JUMP JUMPDEST PUSH32 0x4E487B7100000000000000000000000000000000000000000000000000000000 PUSH1 0x0 MSTORE PUSH1 0x11 PUSH1 0x4 MSTORE PUSH1 0x24 PUSH1 0x0 REVERT JUMPDEST PUSH32 0x4E487B7100000000000000000000000000000000000000000000000000000000 PUSH1 0x0 MSTORE PUSH1 0x32 PUSH1 0x4 MSTORE PUSH1 0x24 PUSH1 0x0 REVERT JUMPDEST PUSH32 0x4E487B7100000000000000000000000000000000000000000000000000000000 PUSH1 0x0 MSTORE PUSH1 0x41 PUSH1 0x4 MSTORE PUSH1 0x24 PUSH1 0x0 REVERT JUMPDEST PUSH1 0x0 DUP1 REVERT JUMPDEST PUSH1 0x0 DUP1 REVERT JUMPDEST PUSH1 0x0 DUP1 REVERT JUMPDEST PUSH1 0x0 DUP1 REVERT JUMPDEST PUSH1 0x0 PUSH1 0x1F NOT PUSH1 0x1F DUP4 ADD AND SWAP1 POP SWAP2 SWAP1 POP JUMP JUMPDEST PUSH2 0x6D9 DUP2 PUSH2 0x570 JUMP JUMPDEST DUP2 EQ PUSH2 0x6E4 JUMPI PUSH1 0x0 DUP1 REVERT JUMPDEST POP JUMP INVALID LOG2 PUSH5 0x6970667358 0x22 SLT KECCAK256 0xDF CALLDATALOAD CALLDATASIZE PUSH1 0xE7 0xA5 SWAP5 0xD9 SAR SMOD POP PUSH15 0x3ADF8FAFE9ECCC8D85E1B32C1E77BD DUP8 DUP4 SSTORE PUSH14 0xF364736F6C634300080700330000 "
				},
				"gasEstimates": {
					"creation": {
						"codeDepositCost": "364200",
						"executionCost": "399",
						"totalCost": "364599"
					},
					"external": {
						"insertionSort(uint256[])": "infinite",
						"insertionSortWrong(uint256[])": "infinite"
					}
				},
				"methodIdentifiers": {
					"insertionSort(uint256[])": "6297206f",
					"insertionSortWrong(uint256[])": "6188a6c0"
				}
			},
			"storageLayout": {
				"storage": [],
				"types": null
			},
			"userdoc": {
				"kind": "user",
				"methods": {},
				"version": 1
			}
		}
	}
}