{
	"abstractTest.sol": {
		"eventTest": {
			"abi": [
				{
					"anonymous": false,
					"inputs": [
						{
							"indexed": false,
							"internalType": "string",
							"name": "msg",
							"type": "string"
						}
					],
					"name": "Log",
					"type": "event"
				},
				{
					"inputs": [],
					"name": "hip",
					"outputs": [],
					"stateMutability": "nonpayable",
					"type": "function"
				},
				{
					"inputs": [],
					"name": "pop",
					"outputs": [],
					"stateMutability": "nonpayable",
					"type": "function"
				},
				{
					"inputs": [],
					"name": "yeye",
					"outputs": [],
					"stateMutability": "nonpayable",
					"type": "function"
				}
			],
			"devdoc": {
				"kind": "dev",
				"methods": {},
				"version": 1
			},
			"evm": {
				"assembly": "    /* \"abstractTest.sol\":60:387  contract eventTest {\r... */\n  mstore(0x40, 0x80)\n  callvalue\n  dup1\n  iszero\n  tag_1\n  jumpi\n  0x00\n  dup1\n  revert\ntag_1:\n  pop\n  dataSize(sub_0)\n  dup1\n  dataOffset(sub_0)\n  0x00\n  codecopy\n  0x00\n  return\nstop\n\nsub_0: assembly {\n        /* \"abstractTest.sol\":60:387  contract eventTest {\r... */\n      mstore(0x40, 0x80)\n      callvalue\n      dup1\n      iszero\n      tag_1\n      jumpi\n      0x00\n      dup1\n      revert\n    tag_1:\n      pop\n      jumpi(tag_2, lt(calldatasize, 0x04))\n      shr(0xe0, calldataload(0x00))\n      dup1\n      0x0ca21e9c\n      eq\n      tag_3\n      jumpi\n      dup1\n      0x370ea142\n      eq\n      tag_4\n      jumpi\n      dup1\n      0xa4ece52c\n      eq\n      tag_5\n      jumpi\n    tag_2:\n      0x00\n      dup1\n      revert\n        /* \"abstractTest.sol\":318:384  function yeye() public virtual {\r... */\n    tag_3:\n      tag_6\n      tag_7\n      jump\t// in\n    tag_6:\n      stop\n        /* \"abstractTest.sol\":178:242  function hip() public virtual{\r... */\n    tag_4:\n      tag_8\n      tag_9\n      jump\t// in\n    tag_8:\n      stop\n        /* \"abstractTest.sol\":248:312  function pop() public virtual{\r... */\n    tag_5:\n      tag_10\n      tag_11\n      jump\t// in\n    tag_10:\n      stop\n        /* \"abstractTest.sol\":318:384  function yeye() public virtual {\r... */\n    tag_7:\n        /* \"abstractTest.sol\":365:376  Log(\"Yeye\") */\n      0xcf34ef537ac33ee1ac626ca1587a0a7e8e51561e5514f8cb36afa1c5102b3bab\n      mload(0x40)\n      tag_13\n      swap1\n      tag_14\n      jump\t// in\n    tag_13:\n      mload(0x40)\n      dup1\n      swap2\n      sub\n      swap1\n      log1\n        /* \"abstractTest.sol\":318:384  function yeye() public virtual {\r... */\n      jump\t// out\n        /* \"abstractTest.sol\":178:242  function hip() public virtual{\r... */\n    tag_9:\n        /* \"abstractTest.sol\":223:234  Log(\"Yeye\") */\n      0xcf34ef537ac33ee1ac626ca1587a0a7e8e51561e5514f8cb36afa1c5102b3bab\n      mload(0x40)\n      tag_16\n      swap1\n      tag_14\n      jump\t// in\n    tag_16:\n      mload(0x40)\n      dup1\n      swap2\n      sub\n      swap1\n      log1\n        /* \"abstractTest.sol\":178:242  function hip() public virtual{\r... */\n      jump\t// out\n        /* \"abstractTest.sol\":248:312  function pop() public virtual{\r... */\n    tag_11:\n        /* \"abstractTest.sol\":293:304  Log(\"Yeye\") */\n      0xcf34ef537ac33ee1ac626ca1587a0a7e8e51561e5514f8cb36afa1c5102b3bab\n      mload(0x40)\n      tag_18\n      swap1\n      tag_14\n      jump\t// in\n    tag_18:\n      mload(0x40)\n      dup1\n      swap2\n      sub\n      swap1\n      log1\n        /* \"abstractTest.sol\":248:312  function pop() public virtual{\r... */\n      jump\t// out\n        /* \"#utility.yul\":7:372   */\n    tag_20:\n        /* \"#utility.yul\":149:152   */\n      0x00\n        /* \"#utility.yul\":170:236   */\n      tag_22\n        /* \"#utility.yul\":234:235   */\n      0x04\n        /* \"#utility.yul\":229:232   */\n      dup4\n        /* \"#utility.yul\":170:236   */\n      tag_23\n      jump\t// in\n    tag_22:\n        /* \"#utility.yul\":163:236   */\n      swap2\n      pop\n        /* \"#utility.yul\":245:338   */\n      tag_24\n        /* \"#utility.yul\":334:337   */\n      dup3\n        /* \"#utility.yul\":245:338   */\n      tag_25\n      jump\t// in\n    tag_24:\n        /* \"#utility.yul\":363:365   */\n      0x20\n        /* \"#utility.yul\":358:361   */\n      dup3\n        /* \"#utility.yul\":354:366   */\n      add\n        /* \"#utility.yul\":347:366   */\n      swap1\n      pop\n        /* \"#utility.yul\":7:372   */\n      swap2\n      swap1\n      pop\n      jump\t// out\n        /* \"#utility.yul\":378:797   */\n    tag_14:\n        /* \"#utility.yul\":544:548   */\n      0x00\n        /* \"#utility.yul\":582:584   */\n      0x20\n        /* \"#utility.yul\":571:580   */\n      dup3\n        /* \"#utility.yul\":567:585   */\n      add\n        /* \"#utility.yul\":559:585   */\n      swap1\n      pop\n        /* \"#utility.yul\":631:640   */\n      dup2\n        /* \"#utility.yul\":625:629   */\n      dup2\n        /* \"#utility.yul\":621:641   */\n      sub\n        /* \"#utility.yul\":617:618   */\n      0x00\n        /* \"#utility.yul\":606:615   */\n      dup4\n        /* \"#utility.yul\":602:619   */\n      add\n        /* \"#utility.yul\":595:642   */\n      mstore\n        /* \"#utility.yul\":659:790   */\n      tag_27\n        /* \"#utility.yul\":785:789   */\n      dup2\n        /* \"#utility.yul\":659:790   */\n      tag_20\n      jump\t// in\n    tag_27:\n        /* \"#utility.yul\":651:790   */\n      swap1\n      pop\n        /* \"#utility.yul\":378:797   */\n      swap2\n      swap1\n      pop\n      jump\t// out\n        /* \"#utility.yul\":803:972   */\n    tag_23:\n        /* \"#utility.yul\":887:898   */\n      0x00\n        /* \"#utility.yul\":921:927   */\n      dup3\n        /* \"#utility.yul\":916:919   */\n      dup3\n        /* \"#utility.yul\":909:928   */\n      mstore\n        /* \"#utility.yul\":961:965   */\n      0x20\n        /* \"#utility.yul\":956:959   */\n      dup3\n        /* \"#utility.yul\":952:966   */\n      add\n        /* \"#utility.yul\":937:966   */\n      swap1\n      pop\n        /* \"#utility.yul\":803:972   */\n      swap3\n      swap2\n      pop\n      pop\n      jump\t// out\n        /* \"#utility.yul\":978:1132   */\n    tag_25:\n        /* \"#utility.yul\":1118:1124   */\n      0x5965796500000000000000000000000000000000000000000000000000000000\n        /* \"#utility.yul\":1114:1115   */\n      0x00\n        /* \"#utility.yul\":1106:1112   */\n      dup3\n        /* \"#utility.yul\":1102:1116   */\n      add\n        /* \"#utility.yul\":1095:1125   */\n      mstore\n        /* \"#utility.yul\":978:1132   */\n      pop\n      jump\t// out\n\n    auxdata: 0xa26469706673582212205353b018bfaa5746d9ef1c53ec32742568c4eb384af7a9a4de547b2db5bdd1ee64736f6c63430008070033\n}\n",
				"bytecode": {
					"linkReferences": {},
					"object": "608060405234801561001057600080fd5b506101bc806100206000396000f3fe608060405234801561001057600080fd5b50600436106100415760003560e01c80630ca21e9c14610046578063370ea14214610050578063a4ece52c1461005a575b600080fd5b61004e610064565b005b61005861009b565b005b6100626100d2565b005b7fcf34ef537ac33ee1ac626ca1587a0a7e8e51561e5514f8cb36afa1c5102b3bab6040516100919061012c565b60405180910390a1565b7fcf34ef537ac33ee1ac626ca1587a0a7e8e51561e5514f8cb36afa1c5102b3bab6040516100c89061012c565b60405180910390a1565b7fcf34ef537ac33ee1ac626ca1587a0a7e8e51561e5514f8cb36afa1c5102b3bab6040516100ff9061012c565b60405180910390a1565b600061011660048361014c565b91506101218261015d565b602082019050919050565b6000602082019050818103600083015261014581610109565b9050919050565b600082825260208201905092915050565b7f596579650000000000000000000000000000000000000000000000000000000060008201525056fea26469706673582212205353b018bfaa5746d9ef1c53ec32742568c4eb384af7a9a4de547b2db5bdd1ee64736f6c63430008070033",
					"opcodes": "PUSH1 0x80 PUSH1 0x40 MSTORE CALLVALUE DUP1 ISZERO PUSH2 0x10 JUMPI PUSH1 0x0 DUP1 REVERT JUMPDEST POP PUSH2 0x1BC DUP1 PUSH2 0x20 PUSH1 0x0 CODECOPY PUSH1 0x0 RETURN INVALID PUSH1 0x80 PUSH1 0x40 MSTORE CALLVALUE DUP1 ISZERO PUSH2 0x10 JUMPI PUSH1 0x0 DUP1 REVERT JUMPDEST POP PUSH1 0x4 CALLDATASIZE LT PUSH2 0x41 JUMPI PUSH1 0x0 CALLDATALOAD PUSH1 0xE0 SHR DUP1 PUSH4 0xCA21E9C EQ PUSH2 0x46 JUMPI DUP1 PUSH4 0x370EA142 EQ PUSH2 0x50 JUMPI DUP1 PUSH4 0xA4ECE52C EQ PUSH2 0x5A JUMPI JUMPDEST PUSH1 0x0 DUP1 REVERT JUMPDEST PUSH2 0x4E PUSH2 0x64 JUMP JUMPDEST STOP JUMPDEST PUSH2 0x58 PUSH2 0x9B JUMP JUMPDEST STOP JUMPDEST PUSH2 0x62 PUSH2 0xD2 JUMP JUMPDEST STOP JUMPDEST PUSH32 0xCF34EF537AC33EE1AC626CA1587A0A7E8E51561E5514F8CB36AFA1C5102B3BAB PUSH1 0x40 MLOAD PUSH2 0x91 SWAP1 PUSH2 0x12C JUMP JUMPDEST PUSH1 0x40 MLOAD DUP1 SWAP2 SUB SWAP1 LOG1 JUMP JUMPDEST PUSH32 0xCF34EF537AC33EE1AC626CA1587A0A7E8E51561E5514F8CB36AFA1C5102B3BAB PUSH1 0x40 MLOAD PUSH2 0xC8 SWAP1 PUSH2 0x12C JUMP JUMPDEST PUSH1 0x40 MLOAD DUP1 SWAP2 SUB SWAP1 LOG1 JUMP JUMPDEST PUSH32 0xCF34EF537AC33EE1AC626CA1587A0A7E8E51561E5514F8CB36AFA1C5102B3BAB PUSH1 0x40 MLOAD PUSH2 0xFF SWAP1 PUSH2 0x12C JUMP JUMPDEST PUSH1 0x40 MLOAD DUP1 SWAP2 SUB SWAP1 LOG1 JUMP JUMPDEST PUSH1 0x0 PUSH2 0x116 PUSH1 0x4 DUP4 PUSH2 0x14C JUMP JUMPDEST SWAP2 POP PUSH2 0x121 DUP3 PUSH2 0x15D JUMP JUMPDEST PUSH1 0x20 DUP3 ADD SWAP1 POP SWAP2 SWAP1 POP JUMP JUMPDEST PUSH1 0x0 PUSH1 0x20 DUP3 ADD SWAP1 POP DUP2 DUP2 SUB PUSH1 0x0 DUP4 ADD MSTORE PUSH2 0x145 DUP2 PUSH2 0x109 JUMP JUMPDEST SWAP1 POP SWAP2 SWAP1 POP JUMP JUMPDEST PUSH1 0x0 DUP3 DUP3 MSTORE PUSH1 0x20 DUP3 ADD SWAP1 POP SWAP3 SWAP2 POP POP JUMP JUMPDEST PUSH32 0x5965796500000000000000000000000000000000000000000000000000000000 PUSH1 0x0 DUP3 ADD MSTORE POP JUMP INVALID LOG2 PUSH5 0x6970667358 0x22 SLT KECCAK256 MSTORE8 MSTORE8 0xB0 XOR 0xBF 0xAA JUMPI CHAINID 0xD9 0xEF SHR MSTORE8 0xEC ORIGIN PUSH21 0x2568C4EB384AF7A9A4DE547B2DB5BDD1EE64736F6C PUSH4 0x43000807 STOP CALLER "
				},
				"gasEstimates": {
					"creation": {
						"codeDepositCost": "88800",
						"executionCost": "135",
						"totalCost": "88935"
					},
					"external": {
						"hip()": "1946",
						"pop()": "1968",
						"yeye()": "1924"
					}
				},
				"methodIdentifiers": {
					"hip()": "370ea142",
					"pop()": "a4ece52c",
					"yeye()": "0ca21e9c"
				}
			},
			"storageLayout": {
				"storage": [],
				"types": null
			},
			"userdoc": {
				"kind": "user",
				"methods": {},
				"version": 1
			}
		}
	}
}