{
	"data": {
		"bytecode": {
			"linkReferences": {},
			"object": "608060405234801561001057600080fd5b5061052d806100206000396000f3fe608060405234801561001057600080fd5b50600436106100415760003560e01c8063046dab161461004657806359ebea23146100645780636a62784214610083575b600080fd5b61004e61009f565b60405161005b9190610338565b60405180910390f35b61006c6100c7565b60405161007a929190610308565b60405180910390f35b61009d600480360381019061009891906101ec565b61019a565b005b60007f6a627842f752de95745ef8f3ca67858982b5f585d752f8163e5855050041cb3c905090565b600060606000803073ffffffffffffffffffffffffffffffffffffffff16636a6278426040516024016100f990610377565b6040516020818303038152906040529060e01b6020820180517bffffffffffffffffffffffffffffffffffffffffffffffffffffffff838183161783525050505060405161014791906102f1565b6000604051808303816000865af19150503d8060008114610184576040519150601f19603f3d011682016040523d82523d6000602084013e610189565b606091505b509150915081819350935050509091565b7fafabcf2dd47e06a477a89e49c03f8ebe8e0a7e94f775b25bbb24227c9d0110b26000366040516101cc929190610353565b60405180910390a150565b6000813590506101e6816104e0565b92915050565b6000602082840312156102025761020161047b565b5b6000610210848285016101d7565b91505092915050565b610222816103e1565b82525050565b610231816103ed565b82525050565b600061024383856103a2565b9350610250838584610439565b61025983610480565b840190509392505050565b600061026f82610397565b61027981856103a2565b9350610289818560208601610448565b61029281610480565b840191505092915050565b60006102a882610397565b6102b281856103b3565b93506102c2818560208601610448565b80840191505092915050565b60006102db602a836103be565b91506102e682610491565b604082019050919050565b60006102fd828461029d565b915081905092915050565b600060408201905061031d6000830185610219565b818103602083015261032f8184610264565b90509392505050565b600060208201905061034d6000830184610228565b92915050565b6000602082019050818103600083015261036e818486610237565b90509392505050565b60006020820190508181036000830152610390816102ce565b9050919050565b600081519050919050565b600082825260208201905092915050565b600081905092915050565b600082825260208201905092915050565b60006103da82610419565b9050919050565b60008115159050919050565b60007fffffffff0000000000000000000000000000000000000000000000000000000082169050919050565b600073ffffffffffffffffffffffffffffffffffffffff82169050919050565b82818337600083830152505050565b60005b8381101561046657808201518184015260208101905061044b565b83811115610475576000848401525b50505050565b600080fd5b6000601f19601f8301169050919050565b7f307832633434623732364144463139363363413437416638384232383443303660008201527f6633303338306643373800000000000000000000000000000000000000000000602082015250565b6104e9816103cf565b81146104f457600080fd5b5056fea2646970667358221220c03fd6b18a8f75a2aeeac2794f0a6c6324e64899d9532605ae5d676a1a30825664736f6c63430008070033",
			"opcodes": "PUSH1 0x80 PUSH1 0x40 MSTORE CALLVALUE DUP1 ISZERO PUSH2 0x10 JUMPI PUSH1 0x0 DUP1 REVERT JUMPDEST POP PUSH2 0x52D DUP1 PUSH2 0x20 PUSH1 0x0 CODECOPY PUSH1 0x0 RETURN INVALID PUSH1 0x80 PUSH1 0x40 MSTORE CALLVALUE DUP1 ISZERO PUSH2 0x10 JUMPI PUSH1 0x0 DUP1 REVERT JUMPDEST POP PUSH1 0x4 CALLDATASIZE LT PUSH2 0x41 JUMPI PUSH1 0x0 CALLDATALOAD PUSH1 0xE0 SHR DUP1 PUSH4 0x46DAB16 EQ PUSH2 0x46 JUMPI DUP1 PUSH4 0x59EBEA23 EQ PUSH2 0x64 JUMPI DUP1 PUSH4 0x6A627842 EQ PUSH2 0x83 JUMPI JUMPDEST PUSH1 0x0 DUP1 REVERT JUMPDEST PUSH2 0x4E PUSH2 0x9F JUMP JUMPDEST PUSH1 0x40 MLOAD PUSH2 0x5B SWAP2 SWAP1 PUSH2 0x338 JUMP JUMPDEST PUSH1 0x40 MLOAD DUP1 SWAP2 SUB SWAP1 RETURN JUMPDEST PUSH2 0x6C PUSH2 0xC7 JUMP JUMPDEST PUSH1 0x40 MLOAD PUSH2 0x7A SWAP3 SWAP2 SWAP1 PUSH2 0x308 JUMP JUMPDEST PUSH1 0x40 MLOAD DUP1 SWAP2 SUB SWAP1 RETURN JUMPDEST PUSH2 0x9D PUSH1 0x4 DUP1 CALLDATASIZE SUB DUP2 ADD SWAP1 PUSH2 0x98 SWAP2 SWAP1 PUSH2 0x1EC JUMP JUMPDEST PUSH2 0x19A JUMP JUMPDEST STOP JUMPDEST PUSH1 0x0 PUSH32 0x6A627842F752DE95745EF8F3CA67858982B5F585D752F8163E5855050041CB3C SWAP1 POP SWAP1 JUMP JUMPDEST PUSH1 0x0 PUSH1 0x60 PUSH1 0x0 DUP1 ADDRESS PUSH20 0xFFFFFFFFFFFFFFFFFFFFFFFFFFFFFFFFFFFFFFFF AND PUSH4 0x6A627842 PUSH1 0x40 MLOAD PUSH1 0x24 ADD PUSH2 0xF9 SWAP1 PUSH2 0x377 JUMP JUMPDEST PUSH1 0x40 MLOAD PUSH1 0x20 DUP2 DUP4 SUB SUB DUP2 MSTORE SWAP1 PUSH1 0x40 MSTORE SWAP1 PUSH1 0xE0 SHL PUSH1 0x20 DUP3 ADD DUP1 MLOAD PUSH28 0xFFFFFFFFFFFFFFFFFFFFFFFFFFFFFFFFFFFFFFFFFFFFFFFFFFFFFFFF DUP4 DUP2 DUP4 AND OR DUP4 MSTORE POP POP POP POP PUSH1 0x40 MLOAD PUSH2 0x147 SWAP2 SWAP1 PUSH2 0x2F1 JUMP JUMPDEST PUSH1 0x0 PUSH1 0x40 MLOAD DUP1 DUP4 SUB DUP2 PUSH1 0x0 DUP7 GAS CALL SWAP2 POP POP RETURNDATASIZE DUP1 PUSH1 0x0 DUP2 EQ PUSH2 0x184 JUMPI PUSH1 0x40 MLOAD SWAP2 POP PUSH1 0x1F NOT PUSH1 0x3F RETURNDATASIZE ADD AND DUP3 ADD PUSH1 0x40 MSTORE RETURNDATASIZE DUP3 MSTORE RETURNDATASIZE PUSH1 0x0 PUSH1 0x20 DUP5 ADD RETURNDATACOPY PUSH2 0x189 JUMP JUMPDEST PUSH1 0x60 SWAP2 POP JUMPDEST POP SWAP2 POP SWAP2 POP DUP2 DUP2 SWAP4 POP SWAP4 POP POP POP SWAP1 SWAP2 JUMP JUMPDEST PUSH32 0xAFABCF2DD47E06A477A89E49C03F8EBE8E0A7E94F775B25BBB24227C9D0110B2 PUSH1 0x0 CALLDATASIZE PUSH1 0x40 MLOAD PUSH2 0x1CC SWAP3 SWAP2 SWAP1 PUSH2 0x353 JUMP JUMPDEST PUSH1 0x40 MLOAD DUP1 SWAP2 SUB SWAP1 LOG1 POP JUMP JUMPDEST PUSH1 0x0 DUP2 CALLDATALOAD SWAP1 POP PUSH2 0x1E6 DUP2 PUSH2 0x4E0 JUMP JUMPDEST SWAP3 SWAP2 POP POP JUMP JUMPDEST PUSH1 0x0 PUSH1 0x20 DUP3 DUP5 SUB SLT ISZERO PUSH2 0x202 JUMPI PUSH2 0x201 PUSH2 0x47B JUMP JUMPDEST JUMPDEST PUSH1 0x0 PUSH2 0x210 DUP5 DUP3 DUP6 ADD PUSH2 0x1D7 JUMP JUMPDEST SWAP2 POP POP SWAP3 SWAP2 POP POP JUMP JUMPDEST PUSH2 0x222 DUP2 PUSH2 0x3E1 JUMP JUMPDEST DUP3 MSTORE POP POP JUMP JUMPDEST PUSH2 0x231 DUP2 PUSH2 0x3ED JUMP JUMPDEST DUP3 MSTORE POP POP JUMP JUMPDEST PUSH1 0x0 PUSH2 0x243 DUP4 DUP6 PUSH2 0x3A2 JUMP JUMPDEST SWAP4 POP PUSH2 0x250 DUP4 DUP6 DUP5 PUSH2 0x439 JUMP JUMPDEST PUSH2 0x259 DUP4 PUSH2 0x480 JUMP JUMPDEST DUP5 ADD SWAP1 POP SWAP4 SWAP3 POP POP POP JUMP JUMPDEST PUSH1 0x0 PUSH2 0x26F DUP3 PUSH2 0x397 JUMP JUMPDEST PUSH2 0x279 DUP2 DUP6 PUSH2 0x3A2 JUMP JUMPDEST SWAP4 POP PUSH2 0x289 DUP2 DUP6 PUSH1 0x20 DUP7 ADD PUSH2 0x448 JUMP JUMPDEST PUSH2 0x292 DUP2 PUSH2 0x480 JUMP JUMPDEST DUP5 ADD SWAP2 POP POP SWAP3 SWAP2 POP POP JUMP JUMPDEST PUSH1 0x0 PUSH2 0x2A8 DUP3 PUSH2 0x397 JUMP JUMPDEST PUSH2 0x2B2 DUP2 DUP6 PUSH2 0x3B3 JUMP JUMPDEST SWAP4 POP PUSH2 0x2C2 DUP2 DUP6 PUSH1 0x20 DUP7 ADD PUSH2 0x448 JUMP JUMPDEST DUP1 DUP5 ADD SWAP2 POP POP SWAP3 SWAP2 POP POP JUMP JUMPDEST PUSH1 0x0 PUSH2 0x2DB PUSH1 0x2A DUP4 PUSH2 0x3BE JUMP JUMPDEST SWAP2 POP PUSH2 0x2E6 DUP3 PUSH2 0x491 JUMP JUMPDEST PUSH1 0x40 DUP3 ADD SWAP1 POP SWAP2 SWAP1 POP JUMP JUMPDEST PUSH1 0x0 PUSH2 0x2FD DUP3 DUP5 PUSH2 0x29D JUMP JUMPDEST SWAP2 POP DUP2 SWAP1 POP SWAP3 SWAP2 POP POP JUMP JUMPDEST PUSH1 0x0 PUSH1 0x40 DUP3 ADD SWAP1 POP PUSH2 0x31D PUSH1 0x0 DUP4 ADD DUP6 PUSH2 0x219 JUMP JUMPDEST DUP2 DUP2 SUB PUSH1 0x20 DUP4 ADD MSTORE PUSH2 0x32F DUP2 DUP5 PUSH2 0x264 JUMP JUMPDEST SWAP1 POP SWAP4 SWAP3 POP POP POP JUMP JUMPDEST PUSH1 0x0 PUSH1 0x20 DUP3 ADD SWAP1 POP PUSH2 0x34D PUSH1 0x0 DUP4 ADD DUP5 PUSH2 0x228 JUMP JUMPDEST SWAP3 SWAP2 POP POP JUMP JUMPDEST PUSH1 0x0 PUSH1 0x20 DUP3 ADD SWAP1 POP DUP2 DUP2 SUB PUSH1 0x0 DUP4 ADD MSTORE PUSH2 0x36E DUP2 DUP5 DUP7 PUSH2 0x237 JUMP JUMPDEST SWAP1 POP SWAP4 SWAP3 POP POP POP JUMP JUMPDEST PUSH1 0x0 PUSH1 0x20 DUP3 ADD SWAP1 POP DUP2 DUP2 SUB PUSH1 0x0 DUP4 ADD MSTORE PUSH2 0x390 DUP2 PUSH2 0x2CE JUMP JUMPDEST SWAP1 POP SWAP2 SWAP1 POP JUMP JUMPDEST PUSH1 0x0 DUP2 MLOAD SWAP1 POP SWAP2 SWAP1 POP JUMP JUMPDEST PUSH1 0x0 DUP3 DUP3 MSTORE PUSH1 0x20 DUP3 ADD SWAP1 POP SWAP3 SWAP2 POP POP JUMP JUMPDEST PUSH1 0x0 DUP2 SWAP1 POP SWAP3 SWAP2 POP POP JUMP JUMPDEST PUSH1 0x0 DUP3 DUP3 MSTORE PUSH1 0x20 DUP3 ADD SWAP1 POP SWAP3 SWAP2 POP POP JUMP JUMPDEST PUSH1 0x0 PUSH2 0x3DA DUP3 PUSH2 0x419 JUMP JUMPDEST SWAP1 POP SWAP2 SWAP1 POP JUMP JUMPDEST PUSH1 0x0 DUP2 ISZERO ISZERO SWAP1 POP SWAP2 SWAP1 POP JUMP JUMPDEST PUSH1 0x0 PUSH32 0xFFFFFFFF00000000000000000000000000000000000000000000000000000000 DUP3 AND SWAP1 POP SWAP2 SWAP1 POP JUMP JUMPDEST PUSH1 0x0 PUSH20 0xFFFFFFFFFFFFFFFFFFFFFFFFFFFFFFFFFFFFFFFF DUP3 AND SWAP1 POP SWAP2 SWAP1 POP JUMP JUMPDEST DUP3 DUP2 DUP4 CALLDATACOPY PUSH1 0x0 DUP4 DUP4 ADD MSTORE POP POP POP JUMP JUMPDEST PUSH1 0x0 JUMPDEST DUP4 DUP2 LT ISZERO PUSH2 0x466 JUMPI DUP1 DUP3 ADD MLOAD DUP2 DUP5 ADD MSTORE PUSH1 0x20 DUP2 ADD SWAP1 POP PUSH2 0x44B JUMP JUMPDEST DUP4 DUP2 GT ISZERO PUSH2 0x475 JUMPI PUSH1 0x0 DUP5 DUP5 ADD MSTORE JUMPDEST POP POP POP POP JUMP JUMPDEST PUSH1 0x0 DUP1 REVERT JUMPDEST PUSH1 0x0 PUSH1 0x1F NOT PUSH1 0x1F DUP4 ADD AND SWAP1 POP SWAP2 SWAP1 POP JUMP JUMPDEST PUSH32 0x3078326334346237323641444631393633634134374166383842323834433036 PUSH1 0x0 DUP3 ADD MSTORE PUSH32 0x6633303338306643373800000000000000000000000000000000000000000000 PUSH1 0x20 DUP3 ADD MSTORE POP JUMP JUMPDEST PUSH2 0x4E9 DUP2 PUSH2 0x3CF JUMP JUMPDEST DUP2 EQ PUSH2 0x4F4 JUMPI PUSH1 0x0 DUP1 REVERT JUMPDEST POP JUMP INVALID LOG2 PUSH5 0x6970667358 0x22 SLT KECCAK256 0xC0 EXTCODEHASH 0xD6 0xB1 DUP11 DUP16 PUSH22 0xA2AEEAC2794F0A6C6324E64899D9532605AE5D676A1A ADDRESS DUP3 JUMP PUSH5 0x736F6C6343 STOP ADDMOD SMOD STOP CALLER "
		},
		"gasEstimates": {
			"creation": {
				"codeDepositCost": "265000",
				"executionCost": "306",
				"totalCost": "265306"
			},
			"external": {
				"callWithSignature()": "infinite",
				"mint(address)": "infinite",
				"mintSelector()": "321"
			}
		},
		"methodIdentifiers": {
			"callWithSignature()": "59ebea23",
			"mint(address)": "6a627842",
			"mintSelector()": "046dab16"
		}
	},
	"abi": [
		{
			"anonymous": false,
			"inputs": [
				{
					"indexed": false,
					"internalType": "bytes",
					"name": "data",
					"type": "bytes"
				}
			],
			"name": "Log",
			"type": "event"
		},
		{
			"inputs": [],
			"name": "callWithSignature",
			"outputs": [
				{
					"internalType": "bool",
					"name": "",
					"type": "bool"
				},
				{
					"internalType": "bytes",
					"name": "",
					"type": "bytes"
				}
			],
			"stateMutability": "nonpayable",
			"type": "function"
		},
		{
			"inputs": [
				{
					"internalType": "address",
					"name": "to",
					"type": "address"
				}
			],
			"name": "mint",
			"outputs": [],
			"stateMutability": "nonpayable",
			"type": "function"
		},
		{
			"inputs": [],
			"name": "mintSelector",
			"outputs": [
				{
					"internalType": "bytes4",
					"name": "mSelector",
					"type": "bytes4"
				}
			],
			"stateMutability": "pure",
			"type": "function"
		}
	]
}