{
	"create/Create.sol": {
		"PairFactory": {
			"abi": [
				{
					"inputs": [
						{
							"internalType": "uint256",
							"name": "",
							"type": "uint256"
						}
					],
					"name": "allPairs",
					"outputs": [
						{
							"internalType": "address",
							"name": "",
							"type": "address"
						}
					],
					"stateMutability": "view",
					"type": "function"
				},
				{
					"inputs": [
						{
							"internalType": "address",
							"name": "tokenA",
							"type": "address"
						},
						{
							"internalType": "address",
							"name": "tokenB",
							"type": "address"
						}
					],
					"name": "createPair",
					"outputs": [
						{
							"internalType": "address",
							"name": "pairAddr",
							"type": "address"
						}
					],
					"stateMutability": "nonpayable",
					"type": "function"
				},
				{
					"inputs": [
						{
							"internalType": "address",
							"name": "",
							"type": "address"
						},
						{
							"internalType": "address",
							"name": "",
							"type": "address"
						}
					],
					"name": "getPair",
					"outputs": [
						{
							"internalType": "address",
							"name": "",
							"type": "address"
						}
					],
					"stateMutability": "view",
					"type": "function"
				}
			],
			"devdoc": {
				"kind": "dev",
				"methods": {},
				"version": 1
			},
			"evm": {
				"assembly": "    /* \"create/Create.sol\":535:1154  contract PairFactory{... */\n  mstore(0x40, 0x80)\n  callvalue\n  dup1\n  iszero\n  tag_1\n  jumpi\n  0x00\n  dup1\n  revert\ntag_1:\n  pop\n  dataSize(sub_0)\n  dup1\n  dataOffset(sub_0)\n  0x00\n  codecopy\n  0x00\n  return\nstop\n\nsub_0: assembly {\n        /* \"create/Create.sol\":535:1154  contract PairFactory{... */\n      mstore(0x40, 0x80)\n      callvalue\n      dup1\n      iszero\n      tag_1\n      jumpi\n      0x00\n      dup1\n      revert\n    tag_1:\n      pop\n      jumpi(tag_2, lt(calldatasize, 0x04))\n      shr(0xe0, calldataload(0x00))\n      dup1\n      0x1e3dd18b\n      eq\n      tag_3\n      jumpi\n      dup1\n      0xc9c65396\n      eq\n      tag_4\n      jumpi\n      dup1\n      0xe6a43905\n      eq\n      tag_5\n      jumpi\n    tag_2:\n      0x00\n      dup1\n      revert\n        /* \"create/Create.sol\":670:695  address[] public allPairs */\n    tag_3:\n      tag_6\n      0x04\n      dup1\n      calldatasize\n      sub\n      dup2\n      add\n      swap1\n      tag_7\n      swap2\n      swap1\n      tag_8\n      jump\t// in\n    tag_7:\n      tag_9\n      jump\t// in\n    tag_6:\n      mload(0x40)\n      tag_10\n      swap2\n      swap1\n      tag_11\n      jump\t// in\n    tag_10:\n      mload(0x40)\n      dup1\n      swap2\n      sub\n      swap1\n      return\n        /* \"create/Create.sol\":728:1152  function createPair(address tokenA, address tokenB) external returns (address pairAddr) {... */\n    tag_4:\n      tag_12\n      0x04\n      dup1\n      calldatasize\n      sub\n      dup2\n      add\n      swap1\n      tag_13\n      swap2\n      swap1\n      tag_14\n      jump\t// in\n    tag_13:\n      tag_15\n      jump\t// in\n    tag_12:\n      mload(0x40)\n      tag_16\n      swap2\n      swap1\n      tag_11\n      jump\t// in\n    tag_16:\n      mload(0x40)\n      dup1\n      swap2\n      sub\n      swap1\n      return\n        /* \"create/Create.sol\":561:623  mapping(address => mapping(address => address)) public getPair */\n    tag_5:\n      tag_17\n      0x04\n      dup1\n      calldatasize\n      sub\n      dup2\n      add\n      swap1\n      tag_18\n      swap2\n      swap1\n      tag_14\n      jump\t// in\n    tag_18:\n      tag_19\n      jump\t// in\n    tag_17:\n      mload(0x40)\n      tag_20\n      swap2\n      swap1\n      tag_11\n      jump\t// in\n    tag_20:\n      mload(0x40)\n      dup1\n      swap2\n      sub\n      swap1\n      return\n        /* \"create/Create.sol\":670:695  address[] public allPairs */\n    tag_9:\n      0x01\n      dup2\n      dup2\n      sload\n      dup2\n      lt\n      tag_21\n      jumpi\n      0x00\n      dup1\n      revert\n    tag_21:\n      swap1\n      0x00\n      mstore\n      keccak256(0x00, 0x20)\n      add\n      0x00\n      swap2\n      pop\n      sload\n      swap1\n      0x0100\n      exp\n      swap1\n      div\n      0xffffffffffffffffffffffffffffffffffffffff\n      and\n      dup2\n      jump\t// out\n        /* \"create/Create.sol\":728:1152  function createPair(address tokenA, address tokenB) external returns (address pairAddr) {... */\n    tag_15:\n        /* \"create/Create.sol\":798:814  address pairAddr */\n      0x00\n        /* \"create/Create.sol\":853:862  Pair pair */\n      dup1\n        /* \"create/Create.sol\":865:875  new Pair() */\n      mload(0x40)\n      tag_24\n      swap1\n      tag_25\n      jump\t// in\n    tag_24:\n      mload(0x40)\n      dup1\n      swap2\n      sub\n      swap1\n      0x00\n      create\n      dup1\n      iszero\n      dup1\n      iszero\n      tag_26\n      jumpi\n      returndatasize\n      0x00\n      dup1\n      returndatacopy\n      revert(0x00, returndatasize)\n    tag_26:\n      pop\n        /* \"create/Create.sol\":853:875  Pair pair = new Pair() */\n      swap1\n      pop\n        /* \"create/Create.sol\":932:936  pair */\n      dup1\n        /* \"create/Create.sol\":932:947  pair.initialize */\n      0xffffffffffffffffffffffffffffffffffffffff\n      and\n      0x485cc955\n        /* \"create/Create.sol\":948:954  tokenA */\n      dup6\n        /* \"create/Create.sol\":956:962  tokenB */\n      dup6\n        /* \"create/Create.sol\":932:963  pair.initialize(tokenA, tokenB) */\n      mload(0x40)\n      dup4\n      0xffffffff\n      and\n      0xe0\n      shl\n      dup2\n      mstore\n      0x04\n      add\n      tag_27\n      swap3\n      swap2\n      swap1\n      tag_28\n      jump\t// in\n    tag_27:\n      0x00\n      mload(0x40)\n      dup1\n      dup4\n      sub\n      dup2\n      0x00\n      dup8\n      dup1\n      extcodesize\n      iszero\n      dup1\n      iszero\n      tag_29\n      jumpi\n      0x00\n      dup1\n      revert\n    tag_29:\n      pop\n      gas\n      call\n      iszero\n      dup1\n      iszero\n      tag_31\n      jumpi\n      returndatasize\n      0x00\n      dup1\n      returndatacopy\n      revert(0x00, returndatasize)\n    tag_31:\n      pop\n      pop\n      pop\n      pop\n        /* \"create/Create.sol\":1019:1023  pair */\n      dup1\n        /* \"create/Create.sol\":1000:1024  pairAddr = address(pair) */\n      swap2\n      pop\n        /* \"create/Create.sol\":1034:1042  allPairs */\n      0x01\n        /* \"create/Create.sol\":1048:1056  pairAddr */\n      dup3\n        /* \"create/Create.sol\":1034:1057  allPairs.push(pairAddr) */\n      swap1\n      dup1\n      0x01\n      dup2\n      sload\n      add\n      dup1\n      dup3\n      sstore\n      dup1\n      swap2\n      pop\n      pop\n      0x01\n      swap1\n      sub\n      swap1\n      0x00\n      mstore\n      keccak256(0x00, 0x20)\n      add\n      0x00\n      swap1\n      swap2\n      swap1\n      swap2\n      swap1\n      swap2\n      0x0100\n      exp\n      dup2\n      sload\n      dup2\n      0xffffffffffffffffffffffffffffffffffffffff\n      mul\n      not\n      and\n      swap1\n      dup4\n      0xffffffffffffffffffffffffffffffffffffffff\n      and\n      mul\n      or\n      swap1\n      sstore\n      pop\n        /* \"create/Create.sol\":1093:1101  pairAddr */\n      dup2\n        /* \"create/Create.sol\":1067:1074  getPair */\n      0x00\n        /* \"create/Create.sol\":1067:1082  getPair[tokenA] */\n      dup1\n        /* \"create/Create.sol\":1075:1081  tokenA */\n      dup7\n        /* \"create/Create.sol\":1067:1082  getPair[tokenA] */\n      0xffffffffffffffffffffffffffffffffffffffff\n      and\n      0xffffffffffffffffffffffffffffffffffffffff\n      and\n      dup2\n      mstore\n      0x20\n      add\n      swap1\n      dup2\n      mstore\n      0x20\n      add\n      0x00\n      keccak256\n        /* \"create/Create.sol\":1067:1090  getPair[tokenA][tokenB] */\n      0x00\n        /* \"create/Create.sol\":1083:1089  tokenB */\n      dup6\n        /* \"create/Create.sol\":1067:1090  getPair[tokenA][tokenB] */\n      0xffffffffffffffffffffffffffffffffffffffff\n      and\n      0xffffffffffffffffffffffffffffffffffffffff\n      and\n      dup2\n      mstore\n      0x20\n      add\n      swap1\n      dup2\n      mstore\n      0x20\n      add\n      0x00\n      keccak256\n      0x00\n        /* \"create/Create.sol\":1067:1101  getPair[tokenA][tokenB] = pairAddr */\n      0x0100\n      exp\n      dup2\n      sload\n      dup2\n      0xffffffffffffffffffffffffffffffffffffffff\n      mul\n      not\n      and\n      swap1\n      dup4\n      0xffffffffffffffffffffffffffffffffffffffff\n      and\n      mul\n      or\n      swap1\n      sstore\n      pop\n        /* \"create/Create.sol\":1137:1145  pairAddr */\n      dup2\n        /* \"create/Create.sol\":1111:1118  getPair */\n      0x00\n        /* \"create/Create.sol\":1111:1126  getPair[tokenB] */\n      dup1\n        /* \"create/Create.sol\":1119:1125  tokenB */\n      dup6\n        /* \"create/Create.sol\":1111:1126  getPair[tokenB] */\n      0xffffffffffffffffffffffffffffffffffffffff\n      and\n      0xffffffffffffffffffffffffffffffffffffffff\n      and\n      dup2\n      mstore\n      0x20\n      add\n      swap1\n      dup2\n      mstore\n      0x20\n      add\n      0x00\n      keccak256\n        /* \"create/Create.sol\":1111:1134  getPair[tokenB][tokenA] */\n      0x00\n        /* \"create/Create.sol\":1127:1133  tokenA */\n      dup7\n        /* \"create/Create.sol\":1111:1134  getPair[tokenB][tokenA] */\n      0xffffffffffffffffffffffffffffffffffffffff\n      and\n      0xffffffffffffffffffffffffffffffffffffffff\n      and\n      dup2\n      mstore\n      0x20\n      add\n      swap1\n      dup2\n      mstore\n      0x20\n      add\n      0x00\n      keccak256\n      0x00\n        /* \"create/Create.sol\":1111:1145  getPair[tokenB][tokenA] = pairAddr */\n      0x0100\n      exp\n      dup2\n      sload\n      dup2\n      0xffffffffffffffffffffffffffffffffffffffff\n      mul\n      not\n      and\n      swap1\n      dup4\n      0xffffffffffffffffffffffffffffffffffffffff\n      and\n      mul\n      or\n      swap1\n      sstore\n      pop\n        /* \"create/Create.sol\":816:1152  {... */\n      pop\n        /* \"create/Create.sol\":728:1152  function createPair(address tokenA, address tokenB) external returns (address pairAddr) {... */\n      swap3\n      swap2\n      pop\n      pop\n      jump\t// out\n        /* \"create/Create.sol\":561:623  mapping(address => mapping(address => address)) public getPair */\n    tag_19:\n      mstore(0x20, 0x00)\n      dup2\n      0x00\n      mstore\n      mstore(0x20, keccak256(0x00, 0x40))\n      dup1\n      0x00\n      mstore\n      keccak256(0x00, 0x40)\n      0x00\n      swap2\n      pop\n      swap2\n      pop\n      swap1\n      sload\n      swap1\n      0x0100\n      exp\n      swap1\n      div\n      0xffffffffffffffffffffffffffffffffffffffff\n      and\n      dup2\n      jump\t// out\n    tag_25:\n      dataSize(sub_0)\n      dup1\n      dataOffset(sub_0)\n      dup4\n      codecopy\n      add\n      swap1\n      jump\t// out\n        /* \"#utility.yul\":7:146   */\n    tag_34:\n        /* \"#utility.yul\":53:58   */\n      0x00\n        /* \"#utility.yul\":91:97   */\n      dup2\n        /* \"#utility.yul\":78:98   */\n      calldataload\n        /* \"#utility.yul\":69:98   */\n      swap1\n      pop\n        /* \"#utility.yul\":107:140   */\n      tag_36\n        /* \"#utility.yul\":134:139   */\n      dup2\n        /* \"#utility.yul\":107:140   */\n      tag_37\n      jump\t// in\n    tag_36:\n        /* \"#utility.yul\":7:146   */\n      swap3\n      swap2\n      pop\n      pop\n      jump\t// out\n        /* \"#utility.yul\":152:291   */\n    tag_38:\n        /* \"#utility.yul\":198:203   */\n      0x00\n        /* \"#utility.yul\":236:242   */\n      dup2\n        /* \"#utility.yul\":223:243   */\n      calldataload\n        /* \"#utility.yul\":214:243   */\n      swap1\n      pop\n        /* \"#utility.yul\":252:285   */\n      tag_40\n        /* \"#utility.yul\":279:284   */\n      dup2\n        /* \"#utility.yul\":252:285   */\n      tag_41\n      jump\t// in\n    tag_40:\n        /* \"#utility.yul\":152:291   */\n      swap3\n      swap2\n      pop\n      pop\n      jump\t// out\n        /* \"#utility.yul\":297:771   */\n    tag_14:\n        /* \"#utility.yul\":365:371   */\n      0x00\n        /* \"#utility.yul\":373:379   */\n      dup1\n        /* \"#utility.yul\":422:424   */\n      0x40\n        /* \"#utility.yul\":410:419   */\n      dup4\n        /* \"#utility.yul\":401:408   */\n      dup6\n        /* \"#utility.yul\":397:420   */\n      sub\n        /* \"#utility.yul\":393:425   */\n      slt\n        /* \"#utility.yul\":390:509   */\n      iszero\n      tag_43\n      jumpi\n        /* \"#utility.yul\":428:507   */\n      tag_44\n      tag_45\n      jump\t// in\n    tag_44:\n        /* \"#utility.yul\":390:509   */\n    tag_43:\n        /* \"#utility.yul\":548:549   */\n      0x00\n        /* \"#utility.yul\":573:626   */\n      tag_46\n        /* \"#utility.yul\":618:625   */\n      dup6\n        /* \"#utility.yul\":609:615   */\n      dup3\n        /* \"#utility.yul\":598:607   */\n      dup7\n        /* \"#utility.yul\":594:616   */\n      add\n        /* \"#utility.yul\":573:626   */\n      tag_34\n      jump\t// in\n    tag_46:\n        /* \"#utility.yul\":563:626   */\n      swap3\n      pop\n        /* \"#utility.yul\":519:636   */\n      pop\n        /* \"#utility.yul\":675:677   */\n      0x20\n        /* \"#utility.yul\":701:754   */\n      tag_47\n        /* \"#utility.yul\":746:753   */\n      dup6\n        /* \"#utility.yul\":737:743   */\n      dup3\n        /* \"#utility.yul\":726:735   */\n      dup7\n        /* \"#utility.yul\":722:744   */\n      add\n        /* \"#utility.yul\":701:754   */\n      tag_34\n      jump\t// in\n    tag_47:\n        /* \"#utility.yul\":691:754   */\n      swap2\n      pop\n        /* \"#utility.yul\":646:764   */\n      pop\n        /* \"#utility.yul\":297:771   */\n      swap3\n      pop\n      swap3\n      swap1\n      pop\n      jump\t// out\n        /* \"#utility.yul\":777:1106   */\n    tag_8:\n        /* \"#utility.yul\":836:842   */\n      0x00\n        /* \"#utility.yul\":885:887   */\n      0x20\n        /* \"#utility.yul\":873:882   */\n      dup3\n        /* \"#utility.yul\":864:871   */\n      dup5\n        /* \"#utility.yul\":860:883   */\n      sub\n        /* \"#utility.yul\":856:888   */\n      slt\n        /* \"#utility.yul\":853:972   */\n      iszero\n      tag_49\n      jumpi\n        /* \"#utility.yul\":891:970   */\n      tag_50\n      tag_45\n      jump\t// in\n    tag_50:\n        /* \"#utility.yul\":853:972   */\n    tag_49:\n        /* \"#utility.yul\":1011:1012   */\n      0x00\n        /* \"#utility.yul\":1036:1089   */\n      tag_51\n        /* \"#utility.yul\":1081:1088   */\n      dup5\n        /* \"#utility.yul\":1072:1078   */\n      dup3\n        /* \"#utility.yul\":1061:1070   */\n      dup6\n        /* \"#utility.yul\":1057:1079   */\n      add\n        /* \"#utility.yul\":1036:1089   */\n      tag_38\n      jump\t// in\n    tag_51:\n        /* \"#utility.yul\":1026:1089   */\n      swap2\n      pop\n        /* \"#utility.yul\":982:1099   */\n      pop\n        /* \"#utility.yul\":777:1106   */\n      swap3\n      swap2\n      pop\n      pop\n      jump\t// out\n        /* \"#utility.yul\":1112:1230   */\n    tag_52:\n        /* \"#utility.yul\":1199:1223   */\n      tag_54\n        /* \"#utility.yul\":1217:1222   */\n      dup2\n        /* \"#utility.yul\":1199:1223   */\n      tag_55\n      jump\t// in\n    tag_54:\n        /* \"#utility.yul\":1194:1197   */\n      dup3\n        /* \"#utility.yul\":1187:1224   */\n      mstore\n        /* \"#utility.yul\":1112:1230   */\n      pop\n      pop\n      jump\t// out\n        /* \"#utility.yul\":1236:1458   */\n    tag_11:\n        /* \"#utility.yul\":1329:1333   */\n      0x00\n        /* \"#utility.yul\":1367:1369   */\n      0x20\n        /* \"#utility.yul\":1356:1365   */\n      dup3\n        /* \"#utility.yul\":1352:1370   */\n      add\n        /* \"#utility.yul\":1344:1370   */\n      swap1\n      pop\n        /* \"#utility.yul\":1380:1451   */\n      tag_57\n        /* \"#utility.yul\":1448:1449   */\n      0x00\n        /* \"#utility.yul\":1437:1446   */\n      dup4\n        /* \"#utility.yul\":1433:1450   */\n      add\n        /* \"#utility.yul\":1424:1430   */\n      dup5\n        /* \"#utility.yul\":1380:1451   */\n      tag_52\n      jump\t// in\n    tag_57:\n        /* \"#utility.yul\":1236:1458   */\n      swap3\n      swap2\n      pop\n      pop\n      jump\t// out\n        /* \"#utility.yul\":1464:1796   */\n    tag_28:\n        /* \"#utility.yul\":1585:1589   */\n      0x00\n        /* \"#utility.yul\":1623:1625   */\n      0x40\n        /* \"#utility.yul\":1612:1621   */\n      dup3\n        /* \"#utility.yul\":1608:1626   */\n      add\n        /* \"#utility.yul\":1600:1626   */\n      swap1\n      pop\n        /* \"#utility.yul\":1636:1707   */\n      tag_59\n        /* \"#utility.yul\":1704:1705   */\n      0x00\n        /* \"#utility.yul\":1693:1702   */\n      dup4\n        /* \"#utility.yul\":1689:1706   */\n      add\n        /* \"#utility.yul\":1680:1686   */\n      dup6\n        /* \"#utility.yul\":1636:1707   */\n      tag_52\n      jump\t// in\n    tag_59:\n        /* \"#utility.yul\":1717:1789   */\n      tag_60\n        /* \"#utility.yul\":1785:1787   */\n      0x20\n        /* \"#utility.yul\":1774:1783   */\n      dup4\n        /* \"#utility.yul\":1770:1788   */\n      add\n        /* \"#utility.yul\":1761:1767   */\n      dup5\n        /* \"#utility.yul\":1717:1789   */\n      tag_52\n      jump\t// in\n    tag_60:\n        /* \"#utility.yul\":1464:1796   */\n      swap4\n      swap3\n      pop\n      pop\n      pop\n      jump\t// out\n        /* \"#utility.yul\":1883:1979   */\n    tag_55:\n        /* \"#utility.yul\":1920:1927   */\n      0x00\n        /* \"#utility.yul\":1949:1973   */\n      tag_64\n        /* \"#utility.yul\":1967:1972   */\n      dup3\n        /* \"#utility.yul\":1949:1973   */\n      tag_65\n      jump\t// in\n    tag_64:\n        /* \"#utility.yul\":1938:1973   */\n      swap1\n      pop\n        /* \"#utility.yul\":1883:1979   */\n      swap2\n      swap1\n      pop\n      jump\t// out\n        /* \"#utility.yul\":1985:2111   */\n    tag_65:\n        /* \"#utility.yul\":2022:2029   */\n      0x00\n        /* \"#utility.yul\":2062:2104   */\n      0xffffffffffffffffffffffffffffffffffffffff\n        /* \"#utility.yul\":2055:2060   */\n      dup3\n        /* \"#utility.yul\":2051:2105   */\n      and\n        /* \"#utility.yul\":2040:2105   */\n      swap1\n      pop\n        /* \"#utility.yul\":1985:2111   */\n      swap2\n      swap1\n      pop\n      jump\t// out\n        /* \"#utility.yul\":2117:2194   */\n    tag_67:\n        /* \"#utility.yul\":2154:2161   */\n      0x00\n        /* \"#utility.yul\":2183:2188   */\n      dup2\n        /* \"#utility.yul\":2172:2188   */\n      swap1\n      pop\n        /* \"#utility.yul\":2117:2194   */\n      swap2\n      swap1\n      pop\n      jump\t// out\n        /* \"#utility.yul\":2323:2440   */\n    tag_45:\n        /* \"#utility.yul\":2432:2433   */\n      0x00\n        /* \"#utility.yul\":2429:2430   */\n      dup1\n        /* \"#utility.yul\":2422:2434   */\n      revert\n        /* \"#utility.yul\":2446:2568   */\n    tag_37:\n        /* \"#utility.yul\":2519:2543   */\n      tag_73\n        /* \"#utility.yul\":2537:2542   */\n      dup2\n        /* \"#utility.yul\":2519:2543   */\n      tag_55\n      jump\t// in\n    tag_73:\n        /* \"#utility.yul\":2512:2517   */\n      dup2\n        /* \"#utility.yul\":2509:2544   */\n      eq\n        /* \"#utility.yul\":2499:2562   */\n      tag_74\n      jumpi\n        /* \"#utility.yul\":2558:2559   */\n      0x00\n        /* \"#utility.yul\":2555:2556   */\n      dup1\n        /* \"#utility.yul\":2548:2560   */\n      revert\n        /* \"#utility.yul\":2499:2562   */\n    tag_74:\n        /* \"#utility.yul\":2446:2568   */\n      pop\n      jump\t// out\n        /* \"#utility.yul\":2574:2696   */\n    tag_41:\n        /* \"#utility.yul\":2647:2671   */\n      tag_76\n        /* \"#utility.yul\":2665:2670   */\n      dup2\n        /* \"#utility.yul\":2647:2671   */\n      tag_67\n      jump\t// in\n    tag_76:\n        /* \"#utility.yul\":2640:2645   */\n      dup2\n        /* \"#utility.yul\":2637:2672   */\n      eq\n        /* \"#utility.yul\":2627:2690   */\n      tag_77\n      jumpi\n        /* \"#utility.yul\":2686:2687   */\n      0x00\n        /* \"#utility.yul\":2683:2684   */\n      dup1\n        /* \"#utility.yul\":2676:2688   */\n      revert\n        /* \"#utility.yul\":2627:2690   */\n    tag_77:\n        /* \"#utility.yul\":2574:2696   */\n      pop\n      jump\t// out\n    stop\n\n    sub_0: assembly {\n            /* \"create/Create.sol\":57:533  contract Pair {... */\n          mstore(0x40, 0x80)\n            /* \"create/Create.sol\":246:256  msg.sender */\n          caller\n            /* \"create/Create.sol\":236:243  factory */\n          0x00\n          dup1\n            /* \"create/Create.sol\":236:256  factory = msg.sender */\n          0x0100\n          exp\n          dup2\n          sload\n          dup2\n          0xffffffffffffffffffffffffffffffffffffffff\n          mul\n          not\n          and\n          swap1\n          dup4\n          0xffffffffffffffffffffffffffffffffffffffff\n          and\n          mul\n          or\n          swap1\n          sstore\n          pop\n            /* \"create/Create.sol\":57:533  contract Pair {... */\n          dataSize(sub_0)\n          dup1\n          dataOffset(sub_0)\n          0x00\n          codecopy\n          0x00\n          return\n        stop\n\n        sub_0: assembly {\n                /* \"create/Create.sol\":57:533  contract Pair {... */\n              mstore(0x40, 0x80)\n              callvalue\n              dup1\n              iszero\n              tag_1\n              jumpi\n              0x00\n              dup1\n              revert\n            tag_1:\n              pop\n              jumpi(tag_2, lt(calldatasize, 0x04))\n              shr(0xe0, calldataload(0x00))\n              dup1\n              0x0dfe1681\n              eq\n              tag_3\n              jumpi\n              dup1\n              0x485cc955\n              eq\n              tag_4\n              jumpi\n              dup1\n              0xc45a0155\n              eq\n              tag_5\n              jumpi\n              dup1\n              0xd21220a7\n              eq\n              tag_6\n              jumpi\n            tag_2:\n              0x00\n              dup1\n              revert\n                /* \"create/Create.sol\":127:148  address public token0 */\n            tag_3:\n              tag_7\n              tag_8\n              jump\t// in\n            tag_7:\n              mload(0x40)\n              tag_9\n              swap2\n              swap1\n              tag_10\n              jump\t// in\n            tag_9:\n              mload(0x40)\n              dup1\n              swap2\n              sub\n              swap1\n              return\n                /* \"create/Create.sol\":325:531  function initialize(address _token0, address _token1) external {... */\n            tag_4:\n              tag_11\n              0x04\n              dup1\n              calldatasize\n              sub\n              dup2\n              add\n              swap1\n              tag_12\n              swap2\n              swap1\n              tag_13\n              jump\t// in\n            tag_12:\n              tag_14\n              jump\t// in\n            tag_11:\n              stop\n                /* \"create/Create.sol\":77:99  address public factory */\n            tag_5:\n              tag_15\n              tag_16\n              jump\t// in\n            tag_15:\n              mload(0x40)\n              tag_17\n              swap2\n              swap1\n              tag_10\n              jump\t// in\n            tag_17:\n              mload(0x40)\n              dup1\n              swap2\n              sub\n              swap1\n              return\n                /* \"create/Create.sol\":165:186  address public token1 */\n            tag_6:\n              tag_18\n              tag_19\n              jump\t// in\n            tag_18:\n              mload(0x40)\n              tag_20\n              swap2\n              swap1\n              tag_10\n              jump\t// in\n            tag_20:\n              mload(0x40)\n              dup1\n              swap2\n              sub\n              swap1\n              return\n                /* \"create/Create.sol\":127:148  address public token0 */\n            tag_8:\n              0x01\n              0x00\n              swap1\n              sload\n              swap1\n              0x0100\n              exp\n              swap1\n              div\n              0xffffffffffffffffffffffffffffffffffffffff\n              and\n              dup2\n              jump\t// out\n                /* \"create/Create.sol\":325:531  function initialize(address _token0, address _token1) external {... */\n            tag_14:\n                /* \"create/Create.sol\":420:427  factory */\n              0x00\n              dup1\n              sload\n              swap1\n              0x0100\n              exp\n              swap1\n              div\n              0xffffffffffffffffffffffffffffffffffffffff\n              and\n                /* \"create/Create.sol\":406:427  msg.sender == factory */\n              0xffffffffffffffffffffffffffffffffffffffff\n              and\n                /* \"create/Create.sol\":406:416  msg.sender */\n              caller\n                /* \"create/Create.sol\":406:427  msg.sender == factory */\n              0xffffffffffffffffffffffffffffffffffffffff\n              and\n              eq\n                /* \"create/Create.sol\":398:452  require(msg.sender == factory, \"UniswapV2: FORBIDDEN\") */\n              tag_22\n              jumpi\n              mload(0x40)\n              0x08c379a000000000000000000000000000000000000000000000000000000000\n              dup2\n              mstore\n              0x04\n              add\n              tag_23\n              swap1\n              tag_24\n              jump\t// in\n            tag_23:\n              mload(0x40)\n              dup1\n              swap2\n              sub\n              swap1\n              revert\n            tag_22:\n                /* \"create/Create.sol\":491:498  _token0 */\n              dup2\n                /* \"create/Create.sol\":482:488  token0 */\n              0x01\n              0x00\n                /* \"create/Create.sol\":482:498  token0 = _token0 */\n              0x0100\n              exp\n              dup2\n              sload\n              dup2\n              0xffffffffffffffffffffffffffffffffffffffff\n              mul\n              not\n              and\n              swap1\n              dup4\n              0xffffffffffffffffffffffffffffffffffffffff\n              and\n              mul\n              or\n              swap1\n              sstore\n              pop\n                /* \"create/Create.sol\":517:524  _token1 */\n              dup1\n                /* \"create/Create.sol\":508:514  token1 */\n              0x02\n              0x00\n                /* \"create/Create.sol\":508:524  token1 = _token1 */\n              0x0100\n              exp\n              dup2\n              sload\n              dup2\n              0xffffffffffffffffffffffffffffffffffffffff\n              mul\n              not\n              and\n              swap1\n              dup4\n              0xffffffffffffffffffffffffffffffffffffffff\n              and\n              mul\n              or\n              swap1\n              sstore\n              pop\n                /* \"create/Create.sol\":325:531  function initialize(address _token0, address _token1) external {... */\n              pop\n              pop\n              jump\t// out\n                /* \"create/Create.sol\":77:99  address public factory */\n            tag_16:\n              0x00\n              dup1\n              sload\n              swap1\n              0x0100\n              exp\n              swap1\n              div\n              0xffffffffffffffffffffffffffffffffffffffff\n              and\n              dup2\n              jump\t// out\n                /* \"create/Create.sol\":165:186  address public token1 */\n            tag_19:\n              0x02\n              0x00\n              swap1\n              sload\n              swap1\n              0x0100\n              exp\n              swap1\n              div\n              0xffffffffffffffffffffffffffffffffffffffff\n              and\n              dup2\n              jump\t// out\n                /* \"#utility.yul\":7:146   */\n            tag_26:\n                /* \"#utility.yul\":53:58   */\n              0x00\n                /* \"#utility.yul\":91:97   */\n              dup2\n                /* \"#utility.yul\":78:98   */\n              calldataload\n                /* \"#utility.yul\":69:98   */\n              swap1\n              pop\n                /* \"#utility.yul\":107:140   */\n              tag_28\n                /* \"#utility.yul\":134:139   */\n              dup2\n                /* \"#utility.yul\":107:140   */\n              tag_29\n              jump\t// in\n            tag_28:\n                /* \"#utility.yul\":7:146   */\n              swap3\n              swap2\n              pop\n              pop\n              jump\t// out\n                /* \"#utility.yul\":152:626   */\n            tag_13:\n                /* \"#utility.yul\":220:226   */\n              0x00\n                /* \"#utility.yul\":228:234   */\n              dup1\n                /* \"#utility.yul\":277:279   */\n              0x40\n                /* \"#utility.yul\":265:274   */\n              dup4\n                /* \"#utility.yul\":256:263   */\n              dup6\n                /* \"#utility.yul\":252:275   */\n              sub\n                /* \"#utility.yul\":248:280   */\n              slt\n                /* \"#utility.yul\":245:364   */\n              iszero\n              tag_31\n              jumpi\n                /* \"#utility.yul\":283:362   */\n              tag_32\n              tag_33\n              jump\t// in\n            tag_32:\n                /* \"#utility.yul\":245:364   */\n            tag_31:\n                /* \"#utility.yul\":403:404   */\n              0x00\n                /* \"#utility.yul\":428:481   */\n              tag_34\n                /* \"#utility.yul\":473:480   */\n              dup6\n                /* \"#utility.yul\":464:470   */\n              dup3\n                /* \"#utility.yul\":453:462   */\n              dup7\n                /* \"#utility.yul\":449:471   */\n              add\n                /* \"#utility.yul\":428:481   */\n              tag_26\n              jump\t// in\n            tag_34:\n                /* \"#utility.yul\":418:481   */\n              swap3\n              pop\n                /* \"#utility.yul\":374:491   */\n              pop\n                /* \"#utility.yul\":530:532   */\n              0x20\n                /* \"#utility.yul\":556:609   */\n              tag_35\n                /* \"#utility.yul\":601:608   */\n              dup6\n                /* \"#utility.yul\":592:598   */\n              dup3\n                /* \"#utility.yul\":581:590   */\n              dup7\n                /* \"#utility.yul\":577:599   */\n              add\n                /* \"#utility.yul\":556:609   */\n              tag_26\n              jump\t// in\n            tag_35:\n                /* \"#utility.yul\":546:609   */\n              swap2\n              pop\n                /* \"#utility.yul\":501:619   */\n              pop\n                /* \"#utility.yul\":152:626   */\n              swap3\n              pop\n              swap3\n              swap1\n              pop\n              jump\t// out\n                /* \"#utility.yul\":632:750   */\n            tag_36:\n                /* \"#utility.yul\":719:743   */\n              tag_38\n                /* \"#utility.yul\":737:742   */\n              dup2\n                /* \"#utility.yul\":719:743   */\n              tag_39\n              jump\t// in\n            tag_38:\n                /* \"#utility.yul\":714:717   */\n              dup3\n                /* \"#utility.yul\":707:744   */\n              mstore\n                /* \"#utility.yul\":632:750   */\n              pop\n              pop\n              jump\t// out\n                /* \"#utility.yul\":756:1122   */\n            tag_40:\n                /* \"#utility.yul\":898:901   */\n              0x00\n                /* \"#utility.yul\":919:986   */\n              tag_42\n                /* \"#utility.yul\":983:985   */\n              0x14\n                /* \"#utility.yul\":978:981   */\n              dup4\n                /* \"#utility.yul\":919:986   */\n              tag_43\n              jump\t// in\n            tag_42:\n                /* \"#utility.yul\":912:986   */\n              swap2\n              pop\n                /* \"#utility.yul\":995:1088   */\n              tag_44\n                /* \"#utility.yul\":1084:1087   */\n              dup3\n                /* \"#utility.yul\":995:1088   */\n              tag_45\n              jump\t// in\n            tag_44:\n                /* \"#utility.yul\":1113:1115   */\n              0x20\n                /* \"#utility.yul\":1108:1111   */\n              dup3\n                /* \"#utility.yul\":1104:1116   */\n              add\n                /* \"#utility.yul\":1097:1116   */\n              swap1\n              pop\n                /* \"#utility.yul\":756:1122   */\n              swap2\n              swap1\n              pop\n              jump\t// out\n                /* \"#utility.yul\":1128:1350   */\n            tag_10:\n                /* \"#utility.yul\":1221:1225   */\n              0x00\n                /* \"#utility.yul\":1259:1261   */\n              0x20\n                /* \"#utility.yul\":1248:1257   */\n              dup3\n                /* \"#utility.yul\":1244:1262   */\n              add\n                /* \"#utility.yul\":1236:1262   */\n              swap1\n              pop\n                /* \"#utility.yul\":1272:1343   */\n              tag_47\n                /* \"#utility.yul\":1340:1341   */\n              0x00\n                /* \"#utility.yul\":1329:1338   */\n              dup4\n                /* \"#utility.yul\":1325:1342   */\n              add\n                /* \"#utility.yul\":1316:1322   */\n              dup5\n                /* \"#utility.yul\":1272:1343   */\n              tag_36\n              jump\t// in\n            tag_47:\n                /* \"#utility.yul\":1128:1350   */\n              swap3\n              swap2\n              pop\n              pop\n              jump\t// out\n                /* \"#utility.yul\":1356:1775   */\n            tag_24:\n                /* \"#utility.yul\":1522:1526   */\n              0x00\n                /* \"#utility.yul\":1560:1562   */\n              0x20\n                /* \"#utility.yul\":1549:1558   */\n              dup3\n                /* \"#utility.yul\":1545:1563   */\n              add\n                /* \"#utility.yul\":1537:1563   */\n              swap1\n              pop\n                /* \"#utility.yul\":1609:1618   */\n              dup2\n                /* \"#utility.yul\":1603:1607   */\n              dup2\n                /* \"#utility.yul\":1599:1619   */\n              sub\n                /* \"#utility.yul\":1595:1596   */\n              0x00\n                /* \"#utility.yul\":1584:1593   */\n              dup4\n                /* \"#utility.yul\":1580:1597   */\n              add\n                /* \"#utility.yul\":1573:1620   */\n              mstore\n                /* \"#utility.yul\":1637:1768   */\n              tag_49\n                /* \"#utility.yul\":1763:1767   */\n              dup2\n                /* \"#utility.yul\":1637:1768   */\n              tag_40\n              jump\t// in\n            tag_49:\n                /* \"#utility.yul\":1629:1768   */\n              swap1\n              pop\n                /* \"#utility.yul\":1356:1775   */\n              swap2\n              swap1\n              pop\n              jump\t// out\n                /* \"#utility.yul\":1862:2031   */\n            tag_43:\n                /* \"#utility.yul\":1946:1957   */\n              0x00\n                /* \"#utility.yul\":1980:1986   */\n              dup3\n                /* \"#utility.yul\":1975:1978   */\n              dup3\n                /* \"#utility.yul\":1968:1987   */\n              mstore\n                /* \"#utility.yul\":2020:2024   */\n              0x20\n                /* \"#utility.yul\":2015:2018   */\n              dup3\n                /* \"#utility.yul\":2011:2025   */\n              add\n                /* \"#utility.yul\":1996:2025   */\n              swap1\n              pop\n                /* \"#utility.yul\":1862:2031   */\n              swap3\n              swap2\n              pop\n              pop\n              jump\t// out\n                /* \"#utility.yul\":2037:2133   */\n            tag_39:\n                /* \"#utility.yul\":2074:2081   */\n              0x00\n                /* \"#utility.yul\":2103:2127   */\n              tag_54\n                /* \"#utility.yul\":2121:2126   */\n              dup3\n                /* \"#utility.yul\":2103:2127   */\n              tag_55\n              jump\t// in\n            tag_54:\n                /* \"#utility.yul\":2092:2127   */\n              swap1\n              pop\n                /* \"#utility.yul\":2037:2133   */\n              swap2\n              swap1\n              pop\n              jump\t// out\n                /* \"#utility.yul\":2139:2265   */\n            tag_55:\n                /* \"#utility.yul\":2176:2183   */\n              0x00\n                /* \"#utility.yul\":2216:2258   */\n              0xffffffffffffffffffffffffffffffffffffffff\n                /* \"#utility.yul\":2209:2214   */\n              dup3\n                /* \"#utility.yul\":2205:2259   */\n              and\n                /* \"#utility.yul\":2194:2259   */\n              swap1\n              pop\n                /* \"#utility.yul\":2139:2265   */\n              swap2\n              swap1\n              pop\n              jump\t// out\n                /* \"#utility.yul\":2394:2511   */\n            tag_33:\n                /* \"#utility.yul\":2503:2504   */\n              0x00\n                /* \"#utility.yul\":2500:2501   */\n              dup1\n                /* \"#utility.yul\":2493:2505   */\n              revert\n                /* \"#utility.yul\":2517:2687   */\n            tag_45:\n                /* \"#utility.yul\":2657:2679   */\n              0x556e697377617056323a20464f5242494444454e000000000000000000000000\n                /* \"#utility.yul\":2653:2654   */\n              0x00\n                /* \"#utility.yul\":2645:2651   */\n              dup3\n                /* \"#utility.yul\":2641:2655   */\n              add\n                /* \"#utility.yul\":2634:2680   */\n              mstore\n                /* \"#utility.yul\":2517:2687   */\n              pop\n              jump\t// out\n                /* \"#utility.yul\":2693:2815   */\n            tag_29:\n                /* \"#utility.yul\":2766:2790   */\n              tag_62\n                /* \"#utility.yul\":2784:2789   */\n              dup2\n                /* \"#utility.yul\":2766:2790   */\n              tag_39\n              jump\t// in\n            tag_62:\n                /* \"#utility.yul\":2759:2764   */\n              dup2\n                /* \"#utility.yul\":2756:2791   */\n              eq\n                /* \"#utility.yul\":2746:2809   */\n              tag_63\n              jumpi\n                /* \"#utility.yul\":2805:2806   */\n              0x00\n                /* \"#utility.yul\":2802:2803   */\n              dup1\n                /* \"#utility.yul\":2795:2807   */\n              revert\n                /* \"#utility.yul\":2746:2809   */\n            tag_63:\n                /* \"#utility.yul\":2693:2815   */\n              pop\n              jump\t// out\n\n            auxdata: 0xa26469706673582212201e4e449eef3881fa548b87af3ed302db65ee0e4520b115dc98e1f7f064e7e52e64736f6c63430008070033\n        }\n    }\n\n    auxdata: 0xa2646970667358221220d737d9e17ccaeb20b634b25fae4d4881d974493413934ecb4914ca6412268b9864736f6c63430008070033\n}\n",
				"bytecode": {
					"linkReferences": {},
					"object": "608060405234801561001057600080fd5b5061098d806100206000396000f3fe608060405234801561001057600080fd5b50600436106100415760003560e01c80631e3dd18b14610046578063c9c6539614610076578063e6a43905146100a6575b600080fd5b610060600480360381019061005b919061044a565b6100d6565b60405161006d9190610486565b60405180910390f35b610090600480360381019061008b919061040a565b610115565b60405161009d9190610486565b60405180910390f35b6100c060048036038101906100bb919061040a565b610391565b6040516100cd9190610486565b60405180910390f35b600181815481106100e657600080fd5b906000526020600020016000915054906101000a900473ffffffffffffffffffffffffffffffffffffffff1681565b600080604051610124906103d3565b604051809103906000f080158015610140573d6000803e3d6000fd5b5090508073ffffffffffffffffffffffffffffffffffffffff1663485cc95585856040518363ffffffff1660e01b815260040161017e9291906104a1565b600060405180830381600087803b15801561019857600080fd5b505af11580156101ac573d6000803e3d6000fd5b505050508091506001829080600181540180825580915050600190039060005260206000200160009091909190916101000a81548173ffffffffffffffffffffffffffffffffffffffff021916908373ffffffffffffffffffffffffffffffffffffffff160217905550816000808673ffffffffffffffffffffffffffffffffffffffff1673ffffffffffffffffffffffffffffffffffffffff16815260200190815260200160002060008573ffffffffffffffffffffffffffffffffffffffff1673ffffffffffffffffffffffffffffffffffffffff16815260200190815260200160002060006101000a81548173ffffffffffffffffffffffffffffffffffffffff021916908373ffffffffffffffffffffffffffffffffffffffff160217905550816000808573ffffffffffffffffffffffffffffffffffffffff1673ffffffffffffffffffffffffffffffffffffffff16815260200190815260200160002060008673ffffffffffffffffffffffffffffffffffffffff1673ffffffffffffffffffffffffffffffffffffffff16815260200190815260200160002060006101000a81548173ffffffffffffffffffffffffffffffffffffffff021916908373ffffffffffffffffffffffffffffffffffffffff1602179055505092915050565b60006020528160005260406000206020528060005260406000206000915091509054906101000a900473ffffffffffffffffffffffffffffffffffffffff1681565b61041e8061053a83390190565b6000813590506103ef8161050b565b92915050565b60008135905061040481610522565b92915050565b6000806040838503121561042157610420610506565b5b600061042f858286016103e0565b9250506020610440858286016103e0565b9150509250929050565b6000602082840312156104605761045f610506565b5b600061046e848285016103f5565b91505092915050565b610480816104ca565b82525050565b600060208201905061049b6000830184610477565b92915050565b60006040820190506104b66000830185610477565b6104c36020830184610477565b9392505050565b60006104d5826104dc565b9050919050565b600073ffffffffffffffffffffffffffffffffffffffff82169050919050565b6000819050919050565b600080fd5b610514816104ca565b811461051f57600080fd5b50565b61052b816104fc565b811461053657600080fd5b5056fe6080604052336000806101000a81548173ffffffffffffffffffffffffffffffffffffffff021916908373ffffffffffffffffffffffffffffffffffffffff1602179055506103cb806100536000396000f3fe608060405234801561001057600080fd5b506004361061004c5760003560e01c80630dfe168114610051578063485cc9551461006f578063c45a01551461008b578063d21220a7146100a9575b600080fd5b6100596100c7565b60405161006691906102d2565b60405180910390f35b61008960048036038101906100849190610260565b6100ed565b005b610093610201565b6040516100a091906102d2565b60405180910390f35b6100b1610225565b6040516100be91906102d2565b60405180910390f35b600160009054906101000a900473ffffffffffffffffffffffffffffffffffffffff1681565b60008054906101000a900473ffffffffffffffffffffffffffffffffffffffff1673ffffffffffffffffffffffffffffffffffffffff163373ffffffffffffffffffffffffffffffffffffffff161461017b576040517f08c379a0000000000000000000000000000000000000000000000000000000008152600401610172906102ed565b60405180910390fd5b81600160006101000a81548173ffffffffffffffffffffffffffffffffffffffff021916908373ffffffffffffffffffffffffffffffffffffffff16021790555080600260006101000a81548173ffffffffffffffffffffffffffffffffffffffff021916908373ffffffffffffffffffffffffffffffffffffffff1602179055505050565b60008054906101000a900473ffffffffffffffffffffffffffffffffffffffff1681565b600260009054906101000a900473ffffffffffffffffffffffffffffffffffffffff1681565b60008135905061025a8161037e565b92915050565b6000806040838503121561027757610276610350565b5b60006102858582860161024b565b92505060206102968582860161024b565b9150509250929050565b6102a98161031e565b82525050565b60006102bc60148361030d565b91506102c782610355565b602082019050919050565b60006020820190506102e760008301846102a0565b92915050565b60006020820190508181036000830152610306816102af565b9050919050565b600082825260208201905092915050565b600061032982610330565b9050919050565b600073ffffffffffffffffffffffffffffffffffffffff82169050919050565b600080fd5b7f556e697377617056323a20464f5242494444454e000000000000000000000000600082015250565b6103878161031e565b811461039257600080fd5b5056fea26469706673582212201e4e449eef3881fa548b87af3ed302db65ee0e4520b115dc98e1f7f064e7e52e64736f6c63430008070033a2646970667358221220d737d9e17ccaeb20b634b25fae4d4881d974493413934ecb4914ca6412268b9864736f6c63430008070033",
					"opcodes": "PUSH1 0x80 PUSH1 0x40 MSTORE CALLVALUE DUP1 ISZERO PUSH2 0x10 JUMPI PUSH1 0x0 DUP1 REVERT JUMPDEST POP PUSH2 0x98D DUP1 PUSH2 0x20 PUSH1 0x0 CODECOPY PUSH1 0x0 RETURN INVALID PUSH1 0x80 PUSH1 0x40 MSTORE CALLVALUE DUP1 ISZERO PUSH2 0x10 JUMPI PUSH1 0x0 DUP1 REVERT JUMPDEST POP PUSH1 0x4 CALLDATASIZE LT PUSH2 0x41 JUMPI PUSH1 0x0 CALLDATALOAD PUSH1 0xE0 SHR DUP1 PUSH4 0x1E3DD18B EQ PUSH2 0x46 JUMPI DUP1 PUSH4 0xC9C65396 EQ PUSH2 0x76 JUMPI DUP1 PUSH4 0xE6A43905 EQ PUSH2 0xA6 JUMPI JUMPDEST PUSH1 0x0 DUP1 REVERT JUMPDEST PUSH2 0x60 PUSH1 0x4 DUP1 CALLDATASIZE SUB DUP2 ADD SWAP1 PUSH2 0x5B SWAP2 SWAP1 PUSH2 0x44A JUMP JUMPDEST PUSH2 0xD6 JUMP JUMPDEST PUSH1 0x40 MLOAD PUSH2 0x6D SWAP2 SWAP1 PUSH2 0x486 JUMP JUMPDEST PUSH1 0x40 MLOAD DUP1 SWAP2 SUB SWAP1 RETURN JUMPDEST PUSH2 0x90 PUSH1 0x4 DUP1 CALLDATASIZE SUB DUP2 ADD SWAP1 PUSH2 0x8B SWAP2 SWAP1 PUSH2 0x40A JUMP JUMPDEST PUSH2 0x115 JUMP JUMPDEST PUSH1 0x40 MLOAD PUSH2 0x9D SWAP2 SWAP1 PUSH2 0x486 JUMP JUMPDEST PUSH1 0x40 MLOAD DUP1 SWAP2 SUB SWAP1 RETURN JUMPDEST PUSH2 0xC0 PUSH1 0x4 DUP1 CALLDATASIZE SUB DUP2 ADD SWAP1 PUSH2 0xBB SWAP2 SWAP1 PUSH2 0x40A JUMP JUMPDEST PUSH2 0x391 JUMP JUMPDEST PUSH1 0x40 MLOAD PUSH2 0xCD SWAP2 SWAP1 PUSH2 0x486 JUMP JUMPDEST PUSH1 0x40 MLOAD DUP1 SWAP2 SUB SWAP1 RETURN JUMPDEST PUSH1 0x1 DUP2 DUP2 SLOAD DUP2 LT PUSH2 0xE6 JUMPI PUSH1 0x0 DUP1 REVERT JUMPDEST SWAP1 PUSH1 0x0 MSTORE PUSH1 0x20 PUSH1 0x0 KECCAK256 ADD PUSH1 0x0 SWAP2 POP SLOAD SWAP1 PUSH2 0x100 EXP SWAP1 DIV PUSH20 0xFFFFFFFFFFFFFFFFFFFFFFFFFFFFFFFFFFFFFFFF AND DUP2 JUMP JUMPDEST PUSH1 0x0 DUP1 PUSH1 0x40 MLOAD PUSH2 0x124 SWAP1 PUSH2 0x3D3 JUMP JUMPDEST PUSH1 0x40 MLOAD DUP1 SWAP2 SUB SWAP1 PUSH1 0x0 CREATE DUP1 ISZERO DUP1 ISZERO PUSH2 0x140 JUMPI RETURNDATASIZE PUSH1 0x0 DUP1 RETURNDATACOPY RETURNDATASIZE PUSH1 0x0 REVERT JUMPDEST POP SWAP1 POP DUP1 PUSH20 0xFFFFFFFFFFFFFFFFFFFFFFFFFFFFFFFFFFFFFFFF AND PUSH4 0x485CC955 DUP6 DUP6 PUSH1 0x40 MLOAD DUP4 PUSH4 0xFFFFFFFF AND PUSH1 0xE0 SHL DUP2 MSTORE PUSH1 0x4 ADD PUSH2 0x17E SWAP3 SWAP2 SWAP1 PUSH2 0x4A1 JUMP JUMPDEST PUSH1 0x0 PUSH1 0x40 MLOAD DUP1 DUP4 SUB DUP2 PUSH1 0x0 DUP8 DUP1 EXTCODESIZE ISZERO DUP1 ISZERO PUSH2 0x198 JUMPI PUSH1 0x0 DUP1 REVERT JUMPDEST POP GAS CALL ISZERO DUP1 ISZERO PUSH2 0x1AC JUMPI RETURNDATASIZE PUSH1 0x0 DUP1 RETURNDATACOPY RETURNDATASIZE PUSH1 0x0 REVERT JUMPDEST POP POP POP POP DUP1 SWAP2 POP PUSH1 0x1 DUP3 SWAP1 DUP1 PUSH1 0x1 DUP2 SLOAD ADD DUP1 DUP3 SSTORE DUP1 SWAP2 POP POP PUSH1 0x1 SWAP1 SUB SWAP1 PUSH1 0x0 MSTORE PUSH1 0x20 PUSH1 0x0 KECCAK256 ADD PUSH1 0x0 SWAP1 SWAP2 SWAP1 SWAP2 SWAP1 SWAP2 PUSH2 0x100 EXP DUP2 SLOAD DUP2 PUSH20 0xFFFFFFFFFFFFFFFFFFFFFFFFFFFFFFFFFFFFFFFF MUL NOT AND SWAP1 DUP4 PUSH20 0xFFFFFFFFFFFFFFFFFFFFFFFFFFFFFFFFFFFFFFFF AND MUL OR SWAP1 SSTORE POP DUP2 PUSH1 0x0 DUP1 DUP7 PUSH20 0xFFFFFFFFFFFFFFFFFFFFFFFFFFFFFFFFFFFFFFFF AND PUSH20 0xFFFFFFFFFFFFFFFFFFFFFFFFFFFFFFFFFFFFFFFF AND DUP2 MSTORE PUSH1 0x20 ADD SWAP1 DUP2 MSTORE PUSH1 0x20 ADD PUSH1 0x0 KECCAK256 PUSH1 0x0 DUP6 PUSH20 0xFFFFFFFFFFFFFFFFFFFFFFFFFFFFFFFFFFFFFFFF AND PUSH20 0xFFFFFFFFFFFFFFFFFFFFFFFFFFFFFFFFFFFFFFFF AND DUP2 MSTORE PUSH1 0x20 ADD SWAP1 DUP2 MSTORE PUSH1 0x20 ADD PUSH1 0x0 KECCAK256 PUSH1 0x0 PUSH2 0x100 EXP DUP2 SLOAD DUP2 PUSH20 0xFFFFFFFFFFFFFFFFFFFFFFFFFFFFFFFFFFFFFFFF MUL NOT AND SWAP1 DUP4 PUSH20 0xFFFFFFFFFFFFFFFFFFFFFFFFFFFFFFFFFFFFFFFF AND MUL OR SWAP1 SSTORE POP DUP2 PUSH1 0x0 DUP1 DUP6 PUSH20 0xFFFFFFFFFFFFFFFFFFFFFFFFFFFFFFFFFFFFFFFF AND PUSH20 0xFFFFFFFFFFFFFFFFFFFFFFFFFFFFFFFFFFFFFFFF AND DUP2 MSTORE PUSH1 0x20 ADD SWAP1 DUP2 MSTORE PUSH1 0x20 ADD PUSH1 0x0 KECCAK256 PUSH1 0x0 DUP7 PUSH20 0xFFFFFFFFFFFFFFFFFFFFFFFFFFFFFFFFFFFFFFFF AND PUSH20 0xFFFFFFFFFFFFFFFFFFFFFFFFFFFFFFFFFFFFFFFF AND DUP2 MSTORE PUSH1 0x20 ADD SWAP1 DUP2 MSTORE PUSH1 0x20 ADD PUSH1 0x0 KECCAK256 PUSH1 0x0 PUSH2 0x100 EXP DUP2 SLOAD DUP2 PUSH20 0xFFFFFFFFFFFFFFFFFFFFFFFFFFFFFFFFFFFFFFFF MUL NOT AND SWAP1 DUP4 PUSH20 0xFFFFFFFFFFFFFFFFFFFFFFFFFFFFFFFFFFFFFFFF AND MUL OR SWAP1 SSTORE POP POP SWAP3 SWAP2 POP POP JUMP JUMPDEST PUSH1 0x0 PUSH1 0x20 MSTORE DUP2 PUSH1 0x0 MSTORE PUSH1 0x40 PUSH1 0x0 KECCAK256 PUSH1 0x20 MSTORE DUP1 PUSH1 0x0 MSTORE PUSH1 0x40 PUSH1 0x0 KECCAK256 PUSH1 0x0 SWAP2 POP SWAP2 POP SWAP1 SLOAD SWAP1 PUSH2 0x100 EXP SWAP1 DIV PUSH20 0xFFFFFFFFFFFFFFFFFFFFFFFFFFFFFFFFFFFFFFFF AND DUP2 JUMP JUMPDEST PUSH2 0x41E DUP1 PUSH2 0x53A DUP4 CODECOPY ADD SWAP1 JUMP JUMPDEST PUSH1 0x0 DUP2 CALLDATALOAD SWAP1 POP PUSH2 0x3EF DUP2 PUSH2 0x50B JUMP JUMPDEST SWAP3 SWAP2 POP POP JUMP JUMPDEST PUSH1 0x0 DUP2 CALLDATALOAD SWAP1 POP PUSH2 0x404 DUP2 PUSH2 0x522 JUMP JUMPDEST SWAP3 SWAP2 POP POP JUMP JUMPDEST PUSH1 0x0 DUP1 PUSH1 0x40 DUP4 DUP6 SUB SLT ISZERO PUSH2 0x421 JUMPI PUSH2 0x420 PUSH2 0x506 JUMP JUMPDEST JUMPDEST PUSH1 0x0 PUSH2 0x42F DUP6 DUP3 DUP7 ADD PUSH2 0x3E0 JUMP JUMPDEST SWAP3 POP POP PUSH1 0x20 PUSH2 0x440 DUP6 DUP3 DUP7 ADD PUSH2 0x3E0 JUMP JUMPDEST SWAP2 POP POP SWAP3 POP SWAP3 SWAP1 POP JUMP JUMPDEST PUSH1 0x0 PUSH1 0x20 DUP3 DUP5 SUB SLT ISZERO PUSH2 0x460 JUMPI PUSH2 0x45F PUSH2 0x506 JUMP JUMPDEST JUMPDEST PUSH1 0x0 PUSH2 0x46E DUP5 DUP3 DUP6 ADD PUSH2 0x3F5 JUMP JUMPDEST SWAP2 POP POP SWAP3 SWAP2 POP POP JUMP JUMPDEST PUSH2 0x480 DUP2 PUSH2 0x4CA JUMP JUMPDEST DUP3 MSTORE POP POP JUMP JUMPDEST PUSH1 0x0 PUSH1 0x20 DUP3 ADD SWAP1 POP PUSH2 0x49B PUSH1 0x0 DUP4 ADD DUP5 PUSH2 0x477 JUMP JUMPDEST SWAP3 SWAP2 POP POP JUMP JUMPDEST PUSH1 0x0 PUSH1 0x40 DUP3 ADD SWAP1 POP PUSH2 0x4B6 PUSH1 0x0 DUP4 ADD DUP6 PUSH2 0x477 JUMP JUMPDEST PUSH2 0x4C3 PUSH1 0x20 DUP4 ADD DUP5 PUSH2 0x477 JUMP JUMPDEST SWAP4 SWAP3 POP POP POP JUMP JUMPDEST PUSH1 0x0 PUSH2 0x4D5 DUP3 PUSH2 0x4DC JUMP JUMPDEST SWAP1 POP SWAP2 SWAP1 POP JUMP JUMPDEST PUSH1 0x0 PUSH20 0xFFFFFFFFFFFFFFFFFFFFFFFFFFFFFFFFFFFFFFFF DUP3 AND SWAP1 POP SWAP2 SWAP1 POP JUMP JUMPDEST PUSH1 0x0 DUP2 SWAP1 POP SWAP2 SWAP1 POP JUMP JUMPDEST PUSH1 0x0 DUP1 REVERT JUMPDEST PUSH2 0x514 DUP2 PUSH2 0x4CA JUMP JUMPDEST DUP2 EQ PUSH2 0x51F JUMPI PUSH1 0x0 DUP1 REVERT JUMPDEST POP JUMP JUMPDEST PUSH2 0x52B DUP2 PUSH2 0x4FC JUMP JUMPDEST DUP2 EQ PUSH2 0x536 JUMPI PUSH1 0x0 DUP1 REVERT JUMPDEST POP JUMP INVALID PUSH1 0x80 PUSH1 0x40 MSTORE CALLER PUSH1 0x0 DUP1 PUSH2 0x100 EXP DUP2 SLOAD DUP2 PUSH20 0xFFFFFFFFFFFFFFFFFFFFFFFFFFFFFFFFFFFFFFFF MUL NOT AND SWAP1 DUP4 PUSH20 0xFFFFFFFFFFFFFFFFFFFFFFFFFFFFFFFFFFFFFFFF AND MUL OR SWAP1 SSTORE POP PUSH2 0x3CB DUP1 PUSH2 0x53 PUSH1 0x0 CODECOPY PUSH1 0x0 RETURN INVALID PUSH1 0x80 PUSH1 0x40 MSTORE CALLVALUE DUP1 ISZERO PUSH2 0x10 JUMPI PUSH1 0x0 DUP1 REVERT JUMPDEST POP PUSH1 0x4 CALLDATASIZE LT PUSH2 0x4C JUMPI PUSH1 0x0 CALLDATALOAD PUSH1 0xE0 SHR DUP1 PUSH4 0xDFE1681 EQ PUSH2 0x51 JUMPI DUP1 PUSH4 0x485CC955 EQ PUSH2 0x6F JUMPI DUP1 PUSH4 0xC45A0155 EQ PUSH2 0x8B JUMPI DUP1 PUSH4 0xD21220A7 EQ PUSH2 0xA9 JUMPI JUMPDEST PUSH1 0x0 DUP1 REVERT JUMPDEST PUSH2 0x59 PUSH2 0xC7 JUMP JUMPDEST PUSH1 0x40 MLOAD PUSH2 0x66 SWAP2 SWAP1 PUSH2 0x2D2 JUMP JUMPDEST PUSH1 0x40 MLOAD DUP1 SWAP2 SUB SWAP1 RETURN JUMPDEST PUSH2 0x89 PUSH1 0x4 DUP1 CALLDATASIZE SUB DUP2 ADD SWAP1 PUSH2 0x84 SWAP2 SWAP1 PUSH2 0x260 JUMP JUMPDEST PUSH2 0xED JUMP JUMPDEST STOP JUMPDEST PUSH2 0x93 PUSH2 0x201 JUMP JUMPDEST PUSH1 0x40 MLOAD PUSH2 0xA0 SWAP2 SWAP1 PUSH2 0x2D2 JUMP JUMPDEST PUSH1 0x40 MLOAD DUP1 SWAP2 SUB SWAP1 RETURN JUMPDEST PUSH2 0xB1 PUSH2 0x225 JUMP JUMPDEST PUSH1 0x40 MLOAD PUSH2 0xBE SWAP2 SWAP1 PUSH2 0x2D2 JUMP JUMPDEST PUSH1 0x40 MLOAD DUP1 SWAP2 SUB SWAP1 RETURN JUMPDEST PUSH1 0x1 PUSH1 0x0 SWAP1 SLOAD SWAP1 PUSH2 0x100 EXP SWAP1 DIV PUSH20 0xFFFFFFFFFFFFFFFFFFFFFFFFFFFFFFFFFFFFFFFF AND DUP2 JUMP JUMPDEST PUSH1 0x0 DUP1 SLOAD SWAP1 PUSH2 0x100 EXP SWAP1 DIV PUSH20 0xFFFFFFFFFFFFFFFFFFFFFFFFFFFFFFFFFFFFFFFF AND PUSH20 0xFFFFFFFFFFFFFFFFFFFFFFFFFFFFFFFFFFFFFFFF AND CALLER PUSH20 0xFFFFFFFFFFFFFFFFFFFFFFFFFFFFFFFFFFFFFFFF AND EQ PUSH2 0x17B JUMPI PUSH1 0x40 MLOAD PUSH32 0x8C379A000000000000000000000000000000000000000000000000000000000 DUP2 MSTORE PUSH1 0x4 ADD PUSH2 0x172 SWAP1 PUSH2 0x2ED JUMP JUMPDEST PUSH1 0x40 MLOAD DUP1 SWAP2 SUB SWAP1 REVERT JUMPDEST DUP2 PUSH1 0x1 PUSH1 0x0 PUSH2 0x100 EXP DUP2 SLOAD DUP2 PUSH20 0xFFFFFFFFFFFFFFFFFFFFFFFFFFFFFFFFFFFFFFFF MUL NOT AND SWAP1 DUP4 PUSH20 0xFFFFFFFFFFFFFFFFFFFFFFFFFFFFFFFFFFFFFFFF AND MUL OR SWAP1 SSTORE POP DUP1 PUSH1 0x2 PUSH1 0x0 PUSH2 0x100 EXP DUP2 SLOAD DUP2 PUSH20 0xFFFFFFFFFFFFFFFFFFFFFFFFFFFFFFFFFFFFFFFF MUL NOT AND SWAP1 DUP4 PUSH20 0xFFFFFFFFFFFFFFFFFFFFFFFFFFFFFFFFFFFFFFFF AND MUL OR SWAP1 SSTORE POP POP POP JUMP JUMPDEST PUSH1 0x0 DUP1 SLOAD SWAP1 PUSH2 0x100 EXP SWAP1 DIV PUSH20 0xFFFFFFFFFFFFFFFFFFFFFFFFFFFFFFFFFFFFFFFF AND DUP2 JUMP JUMPDEST PUSH1 0x2 PUSH1 0x0 SWAP1 SLOAD SWAP1 PUSH2 0x100 EXP SWAP1 DIV PUSH20 0xFFFFFFFFFFFFFFFFFFFFFFFFFFFFFFFFFFFFFFFF AND DUP2 JUMP JUMPDEST PUSH1 0x0 DUP2 CALLDATALOAD SWAP1 POP PUSH2 0x25A DUP2 PUSH2 0x37E JUMP JUMPDEST SWAP3 SWAP2 POP POP JUMP JUMPDEST PUSH1 0x0 DUP1 PUSH1 0x40 DUP4 DUP6 SUB SLT ISZERO PUSH2 0x277 JUMPI PUSH2 0x276 PUSH2 0x350 JUMP JUMPDEST JUMPDEST PUSH1 0x0 PUSH2 0x285 DUP6 DUP3 DUP7 ADD PUSH2 0x24B JUMP JUMPDEST SWAP3 POP POP PUSH1 0x20 PUSH2 0x296 DUP6 DUP3 DUP7 ADD PUSH2 0x24B JUMP JUMPDEST SWAP2 POP POP SWAP3 POP SWAP3 SWAP1 POP JUMP JUMPDEST PUSH2 0x2A9 DUP2 PUSH2 0x31E JUMP JUMPDEST DUP3 MSTORE POP POP JUMP JUMPDEST PUSH1 0x0 PUSH2 0x2BC PUSH1 0x14 DUP4 PUSH2 0x30D JUMP JUMPDEST SWAP2 POP PUSH2 0x2C7 DUP3 PUSH2 0x355 JUMP JUMPDEST PUSH1 0x20 DUP3 ADD SWAP1 POP SWAP2 SWAP1 POP JUMP JUMPDEST PUSH1 0x0 PUSH1 0x20 DUP3 ADD SWAP1 POP PUSH2 0x2E7 PUSH1 0x0 DUP4 ADD DUP5 PUSH2 0x2A0 JUMP JUMPDEST SWAP3 SWAP2 POP POP JUMP JUMPDEST PUSH1 0x0 PUSH1 0x20 DUP3 ADD SWAP1 POP DUP2 DUP2 SUB PUSH1 0x0 DUP4 ADD MSTORE PUSH2 0x306 DUP2 PUSH2 0x2AF JUMP JUMPDEST SWAP1 POP SWAP2 SWAP1 POP JUMP JUMPDEST PUSH1 0x0 DUP3 DUP3 MSTORE PUSH1 0x20 DUP3 ADD SWAP1 POP SWAP3 SWAP2 POP POP JUMP JUMPDEST PUSH1 0x0 PUSH2 0x329 DUP3 PUSH2 0x330 JUMP JUMPDEST SWAP1 POP SWAP2 SWAP1 POP JUMP JUMPDEST PUSH1 0x0 PUSH20 0xFFFFFFFFFFFFFFFFFFFFFFFFFFFFFFFFFFFFFFFF DUP3 AND SWAP1 POP SWAP2 SWAP1 POP JUMP JUMPDEST PUSH1 0x0 DUP1 REVERT JUMPDEST PUSH32 0x556E697377617056323A20464F5242494444454E000000000000000000000000 PUSH1 0x0 DUP3 ADD MSTORE POP JUMP JUMPDEST PUSH2 0x387 DUP2 PUSH2 0x31E JUMP JUMPDEST DUP2 EQ PUSH2 0x392 JUMPI PUSH1 0x0 DUP1 REVERT JUMPDEST POP JUMP INVALID LOG2 PUSH5 0x6970667358 0x22 SLT KECCAK256 0x1E 0x4E DIFFICULTY SWAP15 0xEF CODESIZE DUP2 STATICCALL SLOAD DUP12 DUP8 0xAF RETURNDATACOPY 0xD3 MUL 0xDB PUSH6 0xEE0E4520B115 0xDC SWAP9 0xE1 0xF7 CREATE PUSH5 0xE7E52E6473 PUSH16 0x6C63430008070033A264697066735822 SLT KECCAK256 0xD7 CALLDATACOPY 0xD9 0xE1 PUSH29 0xCAEB20B634B25FAE4D4881D974493413934ECB4914CA6412268B986473 PUSH16 0x6C634300080700330000000000000000 "
				},
				"gasEstimates": {
					"creation": {
						"codeDepositCost": "489000",
						"executionCost": "524",
						"totalCost": "489524"
					},
					"external": {
						"allPairs(uint256)": "4934",
						"createPair(address,address)": "infinite",
						"getPair(address,address)": "infinite"
					}
				},
				"methodIdentifiers": {
					"allPairs(uint256)": "1e3dd18b",
					"createPair(address,address)": "c9c65396",
					"getPair(address,address)": "e6a43905"
				}
			},
			"storageLayout": {
				"storage": [
					{
						"astId": 47,
						"contract": "create/Create.sol:PairFactory",
						"label": "getPair",
						"offset": 0,
						"slot": "0",
						"type": "t_mapping(t_address,t_mapping(t_address,t_address))"
					},
					{
						"astId": 50,
						"contract": "create/Create.sol:PairFactory",
						"label": "allPairs",
						"offset": 0,
						"slot": "1",
						"type": "t_array(t_address)dyn_storage"
					}
				],
				"types": {
					"t_address": {
						"encoding": "inplace",
						"label": "address",
						"numberOfBytes": "20"
					},
					"t_array(t_address)dyn_storage": {
						"base": "t_address",
						"encoding": "dynamic_array",
						"label": "address[]",
						"numberOfBytes": "32"
					},
					"t_mapping(t_address,t_address)": {
						"encoding": "mapping",
						"key": "t_address",
						"label": "mapping(address => address)",
						"numberOfBytes": "32",
						"value": "t_address"
					},
					"t_mapping(t_address,t_mapping(t_address,t_address))": {
						"encoding": "mapping",
						"key": "t_address",
						"label": "mapping(address => mapping(address => address))",
						"numberOfBytes": "32",
						"value": "t_mapping(t_address,t_address)"
					}
				}
			},
			"userdoc": {
				"kind": "user",
				"methods": {},
				"version": 1
			}
		}
	}
}