{
	"data": {
		"bytecode": {
			"linkReferences": {},
			"object": "6080604052600560005534801561001557600080fd5b5061060a806100256000396000f3fe6080604052600436106100915760003560e01c80638381f58a116100595780638381f58a1461014c5780638552dc0814610177578063b262eb7f146101a4578063cbdb30ab146101cf578063e61e4008146101e657610091565b8063303810a6146100965780633dece511146100b45780634f2be91f146100e15780637032c4f2146100f857806380b4ea0814610135575b600080fd5b61009e610213565b6040516100ab919061046a565b60405180910390f35b3480156100c057600080fd5b506100c9610223565b6040516100d893929190610485565b60405180910390f35b3480156100ed57600080fd5b506100f661025b565b005b34801561010457600080fd5b5061011f600480360381019061011a91906103a1565b610272565b60405161012c919061046a565b60405180910390f35b34801561014157600080fd5b5061014a610288565b005b34801561015857600080fd5b50610161610292565b60405161016e919061046a565b60405180910390f35b34801561018357600080fd5b5061018c610298565b60405161019b93929190610485565b60405180910390f35b3480156101b057600080fd5b506101b96102cf565b6040516101c6919061046a565b60405180910390f35b3480156101db57600080fd5b506101e46102e5565b005b3480156101f257600080fd5b506101fb61031c565b60405161020a93929190610485565b60405180910390f35b600061021d610353565b47905090565b60008061022e61036a565b60029250600091506040518060600160405280600381526020016002815260200160018152509050909192565b600160005461026a91906104e9565b600081905550565b600060018261028191906104e9565b9050919050565b610290610353565b565b60005481565b6000806102a361036a565b600180604051806060016040528060018152602001600281526020016005815250925092509250909192565b600060016000546102e091906104e9565b905090565b60008060006102f261036a565b6102fa610223565b80935081955082965050505061030e610223565b909150508092505050505050565b60008061032761036a565b600180604051806060016040528060018152602001600281526020016005815250925092509250909192565b6001600054610362919061053f565b600081905550565b6040518060600160405280600390602082028036833780820191505090505090565b60008135905061039b816105bd565b92915050565b6000602082840312156103b7576103b66105b8565b5b60006103c58482850161038c565b91505092915050565b60006103da838361044c565b60208301905092915050565b6103ef816104c6565b6103f981846104de565b9250610404826104bc565b8060005b8381101561043557815161041c87826103ce565b9650610427836104d1565b925050600181019050610408565b505050505050565b61044681610573565b82525050565b6104558161057f565b82525050565b6104648161057f565b82525050565b600060208201905061047f600083018461045b565b92915050565b600060a08201905061049a600083018661045b565b6104a7602083018561043d565b6104b460408301846103e6565b949350505050565b6000819050919050565b600060039050919050565b6000602082019050919050565b600081905092915050565b60006104f48261057f565b91506104ff8361057f565b9250827fffffffffffffffffffffffffffffffffffffffffffffffffffffffffffffffff0382111561053457610533610589565b5b828201905092915050565b600061054a8261057f565b91506105558361057f565b92508282101561056857610567610589565b5b828203905092915050565b60008115159050919050565b6000819050919050565b7f4e487b7100000000000000000000000000000000000000000000000000000000600052601160045260246000fd5b600080fd5b6105c68161057f565b81146105d157600080fd5b5056fea2646970667358221220c31855f4f7e42eb205666c2ca18510a1e6e66447396e628aa1ca3d63834c328464736f6c63430008070033",
			"opcodes": "PUSH1 0x80 PUSH1 0x40 MSTORE PUSH1 0x5 PUSH1 0x0 SSTORE CALLVALUE DUP1 ISZERO PUSH2 0x15 JUMPI PUSH1 0x0 DUP1 REVERT JUMPDEST POP PUSH2 0x60A DUP1 PUSH2 0x25 PUSH1 0x0 CODECOPY PUSH1 0x0 RETURN INVALID PUSH1 0x80 PUSH1 0x40 MSTORE PUSH1 0x4 CALLDATASIZE LT PUSH2 0x91 JUMPI PUSH1 0x0 CALLDATALOAD PUSH1 0xE0 SHR DUP1 PUSH4 0x8381F58A GT PUSH2 0x59 JUMPI DUP1 PUSH4 0x8381F58A EQ PUSH2 0x14C JUMPI DUP1 PUSH4 0x8552DC08 EQ PUSH2 0x177 JUMPI DUP1 PUSH4 0xB262EB7F EQ PUSH2 0x1A4 JUMPI DUP1 PUSH4 0xCBDB30AB EQ PUSH2 0x1CF JUMPI DUP1 PUSH4 0xE61E4008 EQ PUSH2 0x1E6 JUMPI PUSH2 0x91 JUMP JUMPDEST DUP1 PUSH4 0x303810A6 EQ PUSH2 0x96 JUMPI DUP1 PUSH4 0x3DECE511 EQ PUSH2 0xB4 JUMPI DUP1 PUSH4 0x4F2BE91F EQ PUSH2 0xE1 JUMPI DUP1 PUSH4 0x7032C4F2 EQ PUSH2 0xF8 JUMPI DUP1 PUSH4 0x80B4EA08 EQ PUSH2 0x135 JUMPI JUMPDEST PUSH1 0x0 DUP1 REVERT JUMPDEST PUSH2 0x9E PUSH2 0x213 JUMP JUMPDEST PUSH1 0x40 MLOAD PUSH2 0xAB SWAP2 SWAP1 PUSH2 0x46A JUMP JUMPDEST PUSH1 0x40 MLOAD DUP1 SWAP2 SUB SWAP1 RETURN JUMPDEST CALLVALUE DUP1 ISZERO PUSH2 0xC0 JUMPI PUSH1 0x0 DUP1 REVERT JUMPDEST POP PUSH2 0xC9 PUSH2 0x223 JUMP JUMPDEST PUSH1 0x40 MLOAD PUSH2 0xD8 SWAP4 SWAP3 SWAP2 SWAP1 PUSH2 0x485 JUMP JUMPDEST PUSH1 0x40 MLOAD DUP1 SWAP2 SUB SWAP1 RETURN JUMPDEST CALLVALUE DUP1 ISZERO PUSH2 0xED JUMPI PUSH1 0x0 DUP1 REVERT JUMPDEST POP PUSH2 0xF6 PUSH2 0x25B JUMP JUMPDEST STOP JUMPDEST CALLVALUE DUP1 ISZERO PUSH2 0x104 JUMPI PUSH1 0x0 DUP1 REVERT JUMPDEST POP PUSH2 0x11F PUSH1 0x4 DUP1 CALLDATASIZE SUB DUP2 ADD SWAP1 PUSH2 0x11A SWAP2 SWAP1 PUSH2 0x3A1 JUMP JUMPDEST PUSH2 0x272 JUMP JUMPDEST PUSH1 0x40 MLOAD PUSH2 0x12C SWAP2 SWAP1 PUSH2 0x46A JUMP JUMPDEST PUSH1 0x40 MLOAD DUP1 SWAP2 SUB SWAP1 RETURN JUMPDEST CALLVALUE DUP1 ISZERO PUSH2 0x141 JUMPI PUSH1 0x0 DUP1 REVERT JUMPDEST POP PUSH2 0x14A PUSH2 0x288 JUMP JUMPDEST STOP JUMPDEST CALLVALUE DUP1 ISZERO PUSH2 0x158 JUMPI PUSH1 0x0 DUP1 REVERT JUMPDEST POP PUSH2 0x161 PUSH2 0x292 JUMP JUMPDEST PUSH1 0x40 MLOAD PUSH2 0x16E SWAP2 SWAP1 PUSH2 0x46A JUMP JUMPDEST PUSH1 0x40 MLOAD DUP1 SWAP2 SUB SWAP1 RETURN JUMPDEST CALLVALUE DUP1 ISZERO PUSH2 0x183 JUMPI PUSH1 0x0 DUP1 REVERT JUMPDEST POP PUSH2 0x18C PUSH2 0x298 JUMP JUMPDEST PUSH1 0x40 MLOAD PUSH2 0x19B SWAP4 SWAP3 SWAP2 SWAP1 PUSH2 0x485 JUMP JUMPDEST PUSH1 0x40 MLOAD DUP1 SWAP2 SUB SWAP1 RETURN JUMPDEST CALLVALUE DUP1 ISZERO PUSH2 0x1B0 JUMPI PUSH1 0x0 DUP1 REVERT JUMPDEST POP PUSH2 0x1B9 PUSH2 0x2CF JUMP JUMPDEST PUSH1 0x40 MLOAD PUSH2 0x1C6 SWAP2 SWAP1 PUSH2 0x46A JUMP JUMPDEST PUSH1 0x40 MLOAD DUP1 SWAP2 SUB SWAP1 RETURN JUMPDEST CALLVALUE DUP1 ISZERO PUSH2 0x1DB JUMPI PUSH1 0x0 DUP1 REVERT JUMPDEST POP PUSH2 0x1E4 PUSH2 0x2E5 JUMP JUMPDEST STOP JUMPDEST CALLVALUE DUP1 ISZERO PUSH2 0x1F2 JUMPI PUSH1 0x0 DUP1 REVERT JUMPDEST POP PUSH2 0x1FB PUSH2 0x31C JUMP JUMPDEST PUSH1 0x40 MLOAD PUSH2 0x20A SWAP4 SWAP3 SWAP2 SWAP1 PUSH2 0x485 JUMP JUMPDEST PUSH1 0x40 MLOAD DUP1 SWAP2 SUB SWAP1 RETURN JUMPDEST PUSH1 0x0 PUSH2 0x21D PUSH2 0x353 JUMP JUMPDEST SELFBALANCE SWAP1 POP SWAP1 JUMP JUMPDEST PUSH1 0x0 DUP1 PUSH2 0x22E PUSH2 0x36A JUMP JUMPDEST PUSH1 0x2 SWAP3 POP PUSH1 0x0 SWAP2 POP PUSH1 0x40 MLOAD DUP1 PUSH1 0x60 ADD PUSH1 0x40 MSTORE DUP1 PUSH1 0x3 DUP2 MSTORE PUSH1 0x20 ADD PUSH1 0x2 DUP2 MSTORE PUSH1 0x20 ADD PUSH1 0x1 DUP2 MSTORE POP SWAP1 POP SWAP1 SWAP2 SWAP3 JUMP JUMPDEST PUSH1 0x1 PUSH1 0x0 SLOAD PUSH2 0x26A SWAP2 SWAP1 PUSH2 0x4E9 JUMP JUMPDEST PUSH1 0x0 DUP2 SWAP1 SSTORE POP JUMP JUMPDEST PUSH1 0x0 PUSH1 0x1 DUP3 PUSH2 0x281 SWAP2 SWAP1 PUSH2 0x4E9 JUMP JUMPDEST SWAP1 POP SWAP2 SWAP1 POP JUMP JUMPDEST PUSH2 0x290 PUSH2 0x353 JUMP JUMPDEST JUMP JUMPDEST PUSH1 0x0 SLOAD DUP2 JUMP JUMPDEST PUSH1 0x0 DUP1 PUSH2 0x2A3 PUSH2 0x36A JUMP JUMPDEST PUSH1 0x1 DUP1 PUSH1 0x40 MLOAD DUP1 PUSH1 0x60 ADD PUSH1 0x40 MSTORE DUP1 PUSH1 0x1 DUP2 MSTORE PUSH1 0x20 ADD PUSH1 0x2 DUP2 MSTORE PUSH1 0x20 ADD PUSH1 0x5 DUP2 MSTORE POP SWAP3 POP SWAP3 POP SWAP3 POP SWAP1 SWAP2 SWAP3 JUMP JUMPDEST PUSH1 0x0 PUSH1 0x1 PUSH1 0x0 SLOAD PUSH2 0x2E0 SWAP2 SWAP1 PUSH2 0x4E9 JUMP JUMPDEST SWAP1 POP SWAP1 JUMP JUMPDEST PUSH1 0x0 DUP1 PUSH1 0x0 PUSH2 0x2F2 PUSH2 0x36A JUMP JUMPDEST PUSH2 0x2FA PUSH2 0x223 JUMP JUMPDEST DUP1 SWAP4 POP DUP2 SWAP6 POP DUP3 SWAP7 POP POP POP POP PUSH2 0x30E PUSH2 0x223 JUMP JUMPDEST SWAP1 SWAP2 POP POP DUP1 SWAP3 POP POP POP POP POP POP JUMP JUMPDEST PUSH1 0x0 DUP1 PUSH2 0x327 PUSH2 0x36A JUMP JUMPDEST PUSH1 0x1 DUP1 PUSH1 0x40 MLOAD DUP1 PUSH1 0x60 ADD PUSH1 0x40 MSTORE DUP1 PUSH1 0x1 DUP2 MSTORE PUSH1 0x20 ADD PUSH1 0x2 DUP2 MSTORE PUSH1 0x20 ADD PUSH1 0x5 DUP2 MSTORE POP SWAP3 POP SWAP3 POP SWAP3 POP SWAP1 SWAP2 SWAP3 JUMP JUMPDEST PUSH1 0x1 PUSH1 0x0 SLOAD PUSH2 0x362 SWAP2 SWAP1 PUSH2 0x53F JUMP JUMPDEST PUSH1 0x0 DUP2 SWAP1 SSTORE POP JUMP JUMPDEST PUSH1 0x40 MLOAD DUP1 PUSH1 0x60 ADD PUSH1 0x40 MSTORE DUP1 PUSH1 0x3 SWAP1 PUSH1 0x20 DUP3 MUL DUP1 CALLDATASIZE DUP4 CALLDATACOPY DUP1 DUP3 ADD SWAP2 POP POP SWAP1 POP POP SWAP1 JUMP JUMPDEST PUSH1 0x0 DUP2 CALLDATALOAD SWAP1 POP PUSH2 0x39B DUP2 PUSH2 0x5BD JUMP JUMPDEST SWAP3 SWAP2 POP POP JUMP JUMPDEST PUSH1 0x0 PUSH1 0x20 DUP3 DUP5 SUB SLT ISZERO PUSH2 0x3B7 JUMPI PUSH2 0x3B6 PUSH2 0x5B8 JUMP JUMPDEST JUMPDEST PUSH1 0x0 PUSH2 0x3C5 DUP5 DUP3 DUP6 ADD PUSH2 0x38C JUMP JUMPDEST SWAP2 POP POP SWAP3 SWAP2 POP POP JUMP JUMPDEST PUSH1 0x0 PUSH2 0x3DA DUP4 DUP4 PUSH2 0x44C JUMP JUMPDEST PUSH1 0x20 DUP4 ADD SWAP1 POP SWAP3 SWAP2 POP POP JUMP JUMPDEST PUSH2 0x3EF DUP2 PUSH2 0x4C6 JUMP JUMPDEST PUSH2 0x3F9 DUP2 DUP5 PUSH2 0x4DE JUMP JUMPDEST SWAP3 POP PUSH2 0x404 DUP3 PUSH2 0x4BC JUMP JUMPDEST DUP1 PUSH1 0x0 JUMPDEST DUP4 DUP2 LT ISZERO PUSH2 0x435 JUMPI DUP2 MLOAD PUSH2 0x41C DUP8 DUP3 PUSH2 0x3CE JUMP JUMPDEST SWAP7 POP PUSH2 0x427 DUP4 PUSH2 0x4D1 JUMP JUMPDEST SWAP3 POP POP PUSH1 0x1 DUP2 ADD SWAP1 POP PUSH2 0x408 JUMP JUMPDEST POP POP POP POP POP POP JUMP JUMPDEST PUSH2 0x446 DUP2 PUSH2 0x573 JUMP JUMPDEST DUP3 MSTORE POP POP JUMP JUMPDEST PUSH2 0x455 DUP2 PUSH2 0x57F JUMP JUMPDEST DUP3 MSTORE POP POP JUMP JUMPDEST PUSH2 0x464 DUP2 PUSH2 0x57F JUMP JUMPDEST DUP3 MSTORE POP POP JUMP JUMPDEST PUSH1 0x0 PUSH1 0x20 DUP3 ADD SWAP1 POP PUSH2 0x47F PUSH1 0x0 DUP4 ADD DUP5 PUSH2 0x45B JUMP JUMPDEST SWAP3 SWAP2 POP POP JUMP JUMPDEST PUSH1 0x0 PUSH1 0xA0 DUP3 ADD SWAP1 POP PUSH2 0x49A PUSH1 0x0 DUP4 ADD DUP7 PUSH2 0x45B JUMP JUMPDEST PUSH2 0x4A7 PUSH1 0x20 DUP4 ADD DUP6 PUSH2 0x43D JUMP JUMPDEST PUSH2 0x4B4 PUSH1 0x40 DUP4 ADD DUP5 PUSH2 0x3E6 JUMP JUMPDEST SWAP5 SWAP4 POP POP POP POP JUMP JUMPDEST PUSH1 0x0 DUP2 SWAP1 POP SWAP2 SWAP1 POP JUMP JUMPDEST PUSH1 0x0 PUSH1 0x3 SWAP1 POP SWAP2 SWAP1 POP JUMP JUMPDEST PUSH1 0x0 PUSH1 0x20 DUP3 ADD SWAP1 POP SWAP2 SWAP1 POP JUMP JUMPDEST PUSH1 0x0 DUP2 SWAP1 POP SWAP3 SWAP2 POP POP JUMP JUMPDEST PUSH1 0x0 PUSH2 0x4F4 DUP3 PUSH2 0x57F JUMP JUMPDEST SWAP2 POP PUSH2 0x4FF DUP4 PUSH2 0x57F JUMP JUMPDEST SWAP3 POP DUP3 PUSH32 0xFFFFFFFFFFFFFFFFFFFFFFFFFFFFFFFFFFFFFFFFFFFFFFFFFFFFFFFFFFFFFFFF SUB DUP3 GT ISZERO PUSH2 0x534 JUMPI PUSH2 0x533 PUSH2 0x589 JUMP JUMPDEST JUMPDEST DUP3 DUP3 ADD SWAP1 POP SWAP3 SWAP2 POP POP JUMP JUMPDEST PUSH1 0x0 PUSH2 0x54A DUP3 PUSH2 0x57F JUMP JUMPDEST SWAP2 POP PUSH2 0x555 DUP4 PUSH2 0x57F JUMP JUMPDEST SWAP3 POP DUP3 DUP3 LT ISZERO PUSH2 0x568 JUMPI PUSH2 0x567 PUSH2 0x589 JUMP JUMPDEST JUMPDEST DUP3 DUP3 SUB SWAP1 POP SWAP3 SWAP2 POP POP JUMP JUMPDEST PUSH1 0x0 DUP2 ISZERO ISZERO SWAP1 POP SWAP2 SWAP1 POP JUMP JUMPDEST PUSH1 0x0 DUP2 SWAP1 POP SWAP2 SWAP1 POP JUMP JUMPDEST PUSH32 0x4E487B7100000000000000000000000000000000000000000000000000000000 PUSH1 0x0 MSTORE PUSH1 0x11 PUSH1 0x4 MSTORE PUSH1 0x24 PUSH1 0x0 REVERT JUMPDEST PUSH1 0x0 DUP1 REVERT JUMPDEST PUSH2 0x5C6 DUP2 PUSH2 0x57F JUMP JUMPDEST DUP2 EQ PUSH2 0x5D1 JUMPI PUSH1 0x0 DUP1 REVERT JUMPDEST POP JUMP INVALID LOG2 PUSH5 0x6970667358 0x22 SLT KECCAK256 0xC3 XOR SSTORE DELEGATECALL 0xF7 0xE4 0x2E 0xB2 SDIV PUSH7 0x6C2CA18510A1E6 0xE6 PUSH5 0x47396E628A LOG1 0xCA RETURNDATASIZE PUSH4 0x834C3284 PUSH5 0x736F6C6343 STOP ADDMOD SMOD STOP CALLER "
		},
		"gasEstimates": {
			"creation": {
				"codeDepositCost": "309200",
				"executionCost": "22455",
				"totalCost": "331655"
			},
			"external": {
				"add()": "infinite",
				"addPure(uint256)": "infinite",
				"addView()": "infinite",
				"minusCall()": "infinite",
				"minusPayable()": "infinite",
				"number()": "2429",
				"returnMultiple()": "infinite",
				"returnNamed()": "infinite",
				"returnNamed2()": "infinite",
				"returnNamed3()": "infinite"
			},
			"internal": {
				"minus()": "infinite"
			}
		},
		"methodIdentifiers": {
			"add()": "4f2be91f",
			"addPure(uint256)": "7032c4f2",
			"addView()": "b262eb7f",
			"minusCall()": "80b4ea08",
			"minusPayable()": "303810a6",
			"number()": "8381f58a",
			"returnMultiple()": "e61e4008",
			"returnNamed()": "3dece511",
			"returnNamed2()": "8552dc08",
			"returnNamed3()": "cbdb30ab"
		}
	},
	"abi": [
		{
			"inputs": [],
			"name": "add",
			"outputs": [],
			"stateMutability": "nonpayable",
			"type": "function"
		},
		{
			"inputs": [
				{
					"internalType": "uint256",
					"name": "_number",
					"type": "uint256"
				}
			],
			"name": "addPure",
			"outputs": [
				{
					"internalType": "uint256",
					"name": "new_number",
					"type": "uint256"
				}
			],
			"stateMutability": "pure",
			"type": "function"
		},
		{
			"inputs": [],
			"name": "addView",
			"outputs": [
				{
					"internalType": "uint256",
					"name": "new_number",
					"type": "uint256"
				}
			],
			"stateMutability": "view",
			"type": "function"
		},
		{
			"inputs": [],
			"name": "minusCall",
			"outputs": [],
			"stateMutability": "nonpayable",
			"type": "function"
		},
		{
			"inputs": [],
			"name": "minusPayable",
			"outputs": [
				{
					"internalType": "uint256",
					"name": "balance",
					"type": "uint256"
				}
			],
			"stateMutability": "payable",
			"type": "function"
		},
		{
			"inputs": [],
			"name": "number",
			"outputs": [
				{
					"internalType": "uint256",
					"name": "",
					"type": "uint256"
				}
			],
			"stateMutability": "view",
			"type": "function"
		},
		{
			"inputs": [],
			"name": "returnMultiple",
			"outputs": [
				{
					"internalType": "uint256",
					"name": "",
					"type": "uint256"
				},
				{
					"internalType": "bool",
					"name": "",
					"type": "bool"
				},
				{
					"internalType": "uint256[3]",
					"name": "",
					"type": "uint256[3]"
				}
			],
			"stateMutability": "pure",
			"type": "function"
		},
		{
			"inputs": [],
			"name": "returnNamed",
			"outputs": [
				{
					"internalType": "uint256",
					"name": "_number",
					"type": "uint256"
				},
				{
					"internalType": "bool",
					"name": "_bool",
					"type": "bool"
				},
				{
					"internalType": "uint256[3]",
					"name": "_array",
					"type": "uint256[3]"
				}
			],
			"stateMutability": "pure",
			"type": "function"
		},
		{
			"inputs": [],
			"name": "returnNamed2",
			"outputs": [
				{
					"internalType": "uint256",
					"name": "_number",
					"type": "uint256"
				},
				{
					"internalType": "bool",
					"name": "_bool",
					"type": "bool"
				},
				{
					"internalType": "uint256[3]",
					"name": "_array",
					"type": "uint256[3]"
				}
			],
			"stateMutability": "pure",
			"type": "function"
		},
		{
			"inputs": [],
			"name": "returnNamed3",
			"outputs": [],
			"stateMutability": "pure",
			"type": "function"
		}
	]
}