{
	"data": {
		"bytecode": {
			"linkReferences": {},
			"object": "608060405234801561001057600080fd5b50610407806100206000396000f3fe608060405234801561001057600080fd5b50600436106100575760003560e01c8063287663201461005c5780632bbacaaa1461008c5780635d14639d146100aa5780637141fb00146100c8578063b0cfa9fc146100f8575b600080fd5b6100766004803603810190610071919061023d565b610116565b60405161008391906102b6565b60405180910390f35b610094610130565b6040516100a191906102b6565b60405180910390f35b6100b2610166565b6040516100bf91906102b6565b60405180910390f35b6100e260048036038101906100dd9190610210565b6101a2565b6040516100ef919061029b565b60405180910390f35b6101006101bf565b60405161010d91906102b6565b60405180910390f35b6000818310156101265781610128565b825b905092915050565b6000806000905060005b808261014691906102d1565b915080806101539061033d565b915050600a811061013a57819250505090565b6000806000905060005b600a81101561019a57808261018591906102d1565b915080806101929061033d565b915050610170565b819250505090565b6000808214156101b557600190506101ba565b600090505b919050565b6000806000905060005b600a8110156101f35780826101de91906102d1565b915080806101eb9061033d565b9150506101c9565b508091505090565b60008135905061020a816103ba565b92915050565b600060208284031215610226576102256103b5565b5b6000610234848285016101fb565b91505092915050565b60008060408385031215610254576102536103b5565b5b6000610262858286016101fb565b9250506020610273858286016101fb565b9150509250929050565b61028681610327565b82525050565b61029581610333565b82525050565b60006020820190506102b0600083018461027d565b92915050565b60006020820190506102cb600083018461028c565b92915050565b60006102dc82610333565b91506102e783610333565b9250827fffffffffffffffffffffffffffffffffffffffffffffffffffffffffffffffff0382111561031c5761031b610386565b5b828201905092915050565b60008115159050919050565b6000819050919050565b600061034882610333565b91507fffffffffffffffffffffffffffffffffffffffffffffffffffffffffffffffff82141561037b5761037a610386565b5b600182019050919050565b7f4e487b7100000000000000000000000000000000000000000000000000000000600052601160045260246000fd5b600080fd5b6103c381610333565b81146103ce57600080fd5b5056fea26469706673582212206a9cc700c6de8319f04909e951bcdff75197e1163a4566a61ed0e943f0f557c464736f6c63430008070033",
			"opcodes": "PUSH1 0x80 PUSH1 0x40 MSTORE CALLVALUE DUP1 ISZERO PUSH2 0x10 JUMPI PUSH1 0x0 DUP1 REVERT JUMPDEST POP PUSH2 0x407 DUP1 PUSH2 0x20 PUSH1 0x0 CODECOPY PUSH1 0x0 RETURN INVALID PUSH1 0x80 PUSH1 0x40 MSTORE CALLVALUE DUP1 ISZERO PUSH2 0x10 JUMPI PUSH1 0x0 DUP1 REVERT JUMPDEST POP PUSH1 0x4 CALLDATASIZE LT PUSH2 0x57 JUMPI PUSH1 0x0 CALLDATALOAD PUSH1 0xE0 SHR DUP1 PUSH4 0x28766320 EQ PUSH2 0x5C JUMPI DUP1 PUSH4 0x2BBACAAA EQ PUSH2 0x8C JUMPI DUP1 PUSH4 0x5D14639D EQ PUSH2 0xAA JUMPI DUP1 PUSH4 0x7141FB00 EQ PUSH2 0xC8 JUMPI DUP1 PUSH4 0xB0CFA9FC EQ PUSH2 0xF8 JUMPI JUMPDEST PUSH1 0x0 DUP1 REVERT JUMPDEST PUSH2 0x76 PUSH1 0x4 DUP1 CALLDATASIZE SUB DUP2 ADD SWAP1 PUSH2 0x71 SWAP2 SWAP1 PUSH2 0x23D JUMP JUMPDEST PUSH2 0x116 JUMP JUMPDEST PUSH1 0x40 MLOAD PUSH2 0x83 SWAP2 SWAP1 PUSH2 0x2B6 JUMP JUMPDEST PUSH1 0x40 MLOAD DUP1 SWAP2 SUB SWAP1 RETURN JUMPDEST PUSH2 0x94 PUSH2 0x130 JUMP JUMPDEST PUSH1 0x40 MLOAD PUSH2 0xA1 SWAP2 SWAP1 PUSH2 0x2B6 JUMP JUMPDEST PUSH1 0x40 MLOAD DUP1 SWAP2 SUB SWAP1 RETURN JUMPDEST PUSH2 0xB2 PUSH2 0x166 JUMP JUMPDEST PUSH1 0x40 MLOAD PUSH2 0xBF SWAP2 SWAP1 PUSH2 0x2B6 JUMP JUMPDEST PUSH1 0x40 MLOAD DUP1 SWAP2 SUB SWAP1 RETURN JUMPDEST PUSH2 0xE2 PUSH1 0x4 DUP1 CALLDATASIZE SUB DUP2 ADD SWAP1 PUSH2 0xDD SWAP2 SWAP1 PUSH2 0x210 JUMP JUMPDEST PUSH2 0x1A2 JUMP JUMPDEST PUSH1 0x40 MLOAD PUSH2 0xEF SWAP2 SWAP1 PUSH2 0x29B JUMP JUMPDEST PUSH1 0x40 MLOAD DUP1 SWAP2 SUB SWAP1 RETURN JUMPDEST PUSH2 0x100 PUSH2 0x1BF JUMP JUMPDEST PUSH1 0x40 MLOAD PUSH2 0x10D SWAP2 SWAP1 PUSH2 0x2B6 JUMP JUMPDEST PUSH1 0x40 MLOAD DUP1 SWAP2 SUB SWAP1 RETURN JUMPDEST PUSH1 0x0 DUP2 DUP4 LT ISZERO PUSH2 0x126 JUMPI DUP2 PUSH2 0x128 JUMP JUMPDEST DUP3 JUMPDEST SWAP1 POP SWAP3 SWAP2 POP POP JUMP JUMPDEST PUSH1 0x0 DUP1 PUSH1 0x0 SWAP1 POP PUSH1 0x0 JUMPDEST DUP1 DUP3 PUSH2 0x146 SWAP2 SWAP1 PUSH2 0x2D1 JUMP JUMPDEST SWAP2 POP DUP1 DUP1 PUSH2 0x153 SWAP1 PUSH2 0x33D JUMP JUMPDEST SWAP2 POP POP PUSH1 0xA DUP2 LT PUSH2 0x13A JUMPI DUP2 SWAP3 POP POP POP SWAP1 JUMP JUMPDEST PUSH1 0x0 DUP1 PUSH1 0x0 SWAP1 POP PUSH1 0x0 JUMPDEST PUSH1 0xA DUP2 LT ISZERO PUSH2 0x19A JUMPI DUP1 DUP3 PUSH2 0x185 SWAP2 SWAP1 PUSH2 0x2D1 JUMP JUMPDEST SWAP2 POP DUP1 DUP1 PUSH2 0x192 SWAP1 PUSH2 0x33D JUMP JUMPDEST SWAP2 POP POP PUSH2 0x170 JUMP JUMPDEST DUP2 SWAP3 POP POP POP SWAP1 JUMP JUMPDEST PUSH1 0x0 DUP1 DUP3 EQ ISZERO PUSH2 0x1B5 JUMPI PUSH1 0x1 SWAP1 POP PUSH2 0x1BA JUMP JUMPDEST PUSH1 0x0 SWAP1 POP JUMPDEST SWAP2 SWAP1 POP JUMP JUMPDEST PUSH1 0x0 DUP1 PUSH1 0x0 SWAP1 POP PUSH1 0x0 JUMPDEST PUSH1 0xA DUP2 LT ISZERO PUSH2 0x1F3 JUMPI DUP1 DUP3 PUSH2 0x1DE SWAP2 SWAP1 PUSH2 0x2D1 JUMP JUMPDEST SWAP2 POP DUP1 DUP1 PUSH2 0x1EB SWAP1 PUSH2 0x33D JUMP JUMPDEST SWAP2 POP POP PUSH2 0x1C9 JUMP JUMPDEST POP DUP1 SWAP2 POP POP SWAP1 JUMP JUMPDEST PUSH1 0x0 DUP2 CALLDATALOAD SWAP1 POP PUSH2 0x20A DUP2 PUSH2 0x3BA JUMP JUMPDEST SWAP3 SWAP2 POP POP JUMP JUMPDEST PUSH1 0x0 PUSH1 0x20 DUP3 DUP5 SUB SLT ISZERO PUSH2 0x226 JUMPI PUSH2 0x225 PUSH2 0x3B5 JUMP JUMPDEST JUMPDEST PUSH1 0x0 PUSH2 0x234 DUP5 DUP3 DUP6 ADD PUSH2 0x1FB JUMP JUMPDEST SWAP2 POP POP SWAP3 SWAP2 POP POP JUMP JUMPDEST PUSH1 0x0 DUP1 PUSH1 0x40 DUP4 DUP6 SUB SLT ISZERO PUSH2 0x254 JUMPI PUSH2 0x253 PUSH2 0x3B5 JUMP JUMPDEST JUMPDEST PUSH1 0x0 PUSH2 0x262 DUP6 DUP3 DUP7 ADD PUSH2 0x1FB JUMP JUMPDEST SWAP3 POP POP PUSH1 0x20 PUSH2 0x273 DUP6 DUP3 DUP7 ADD PUSH2 0x1FB JUMP JUMPDEST SWAP2 POP POP SWAP3 POP SWAP3 SWAP1 POP JUMP JUMPDEST PUSH2 0x286 DUP2 PUSH2 0x327 JUMP JUMPDEST DUP3 MSTORE POP POP JUMP JUMPDEST PUSH2 0x295 DUP2 PUSH2 0x333 JUMP JUMPDEST DUP3 MSTORE POP POP JUMP JUMPDEST PUSH1 0x0 PUSH1 0x20 DUP3 ADD SWAP1 POP PUSH2 0x2B0 PUSH1 0x0 DUP4 ADD DUP5 PUSH2 0x27D JUMP JUMPDEST SWAP3 SWAP2 POP POP JUMP JUMPDEST PUSH1 0x0 PUSH1 0x20 DUP3 ADD SWAP1 POP PUSH2 0x2CB PUSH1 0x0 DUP4 ADD DUP5 PUSH2 0x28C JUMP JUMPDEST SWAP3 SWAP2 POP POP JUMP JUMPDEST PUSH1 0x0 PUSH2 0x2DC DUP3 PUSH2 0x333 JUMP JUMPDEST SWAP2 POP PUSH2 0x2E7 DUP4 PUSH2 0x333 JUMP JUMPDEST SWAP3 POP DUP3 PUSH32 0xFFFFFFFFFFFFFFFFFFFFFFFFFFFFFFFFFFFFFFFFFFFFFFFFFFFFFFFFFFFFFFFF SUB DUP3 GT ISZERO PUSH2 0x31C JUMPI PUSH2 0x31B PUSH2 0x386 JUMP JUMPDEST JUMPDEST DUP3 DUP3 ADD SWAP1 POP SWAP3 SWAP2 POP POP JUMP JUMPDEST PUSH1 0x0 DUP2 ISZERO ISZERO SWAP1 POP SWAP2 SWAP1 POP JUMP JUMPDEST PUSH1 0x0 DUP2 SWAP1 POP SWAP2 SWAP1 POP JUMP JUMPDEST PUSH1 0x0 PUSH2 0x348 DUP3 PUSH2 0x333 JUMP JUMPDEST SWAP2 POP PUSH32 0xFFFFFFFFFFFFFFFFFFFFFFFFFFFFFFFFFFFFFFFFFFFFFFFFFFFFFFFFFFFFFFFF DUP3 EQ ISZERO PUSH2 0x37B JUMPI PUSH2 0x37A PUSH2 0x386 JUMP JUMPDEST JUMPDEST PUSH1 0x1 DUP3 ADD SWAP1 POP SWAP2 SWAP1 POP JUMP JUMPDEST PUSH32 0x4E487B7100000000000000000000000000000000000000000000000000000000 PUSH1 0x0 MSTORE PUSH1 0x11 PUSH1 0x4 MSTORE PUSH1 0x24 PUSH1 0x0 REVERT JUMPDEST PUSH1 0x0 DUP1 REVERT JUMPDEST PUSH2 0x3C3 DUP2 PUSH2 0x333 JUMP JUMPDEST DUP2 EQ PUSH2 0x3CE JUMPI PUSH1 0x0 DUP1 REVERT JUMPDEST POP JUMP INVALID LOG2 PUSH5 0x6970667358 0x22 SLT KECCAK256 PUSH11 0x9CC700C6DE8319F04909E9 MLOAD 0xBC 0xDF 0xF7 MLOAD SWAP8 0xE1 AND GASPRICE GASLIMIT PUSH7 0xA61ED0E943F0F5 JUMPI 0xC4 PUSH5 0x736F6C6343 STOP ADDMOD SMOD STOP CALLER "
		},
		"gasEstimates": {
			"creation": {
				"codeDepositCost": "206200",
				"executionCost": "251",
				"totalCost": "206451"
			},
			"external": {
				"doWhileTest()": "infinite",
				"forLoopTest()": "infinite",
				"ifElseTest(uint256)": "689",
				"ternaryTest(uint256,uint256)": "infinite",
				"whileTest()": "infinite"
			}
		},
		"methodIdentifiers": {
			"doWhileTest()": "2bbacaaa",
			"forLoopTest()": "b0cfa9fc",
			"ifElseTest(uint256)": "7141fb00",
			"ternaryTest(uint256,uint256)": "28766320",
			"whileTest()": "5d14639d"
		}
	},
	"abi": [
		{
			"inputs": [],
			"name": "doWhileTest",
			"outputs": [
				{
					"internalType": "uint256",
					"name": "",
					"type": "uint256"
				}
			],
			"stateMutability": "pure",
			"type": "function"
		},
		{
			"inputs": [],
			"name": "forLoopTest",
			"outputs": [
				{
					"internalType": "uint256",
					"name": "",
					"type": "uint256"
				}
			],
			"stateMutability": "pure",
			"type": "function"
		},
		{
			"inputs": [
				{
					"internalType": "uint256",
					"name": "_number",
					"type": "uint256"
				}
			],
			"name": "ifElseTest",
			"outputs": [
				{
					"internalType": "bool",
					"name": "",
					"type": "bool"
				}
			],
			"stateMutability": "pure",
			"type": "function"
		},
		{
			"inputs": [
				{
					"internalType": "uint256",
					"name": "x",
					"type": "uint256"
				},
				{
					"internalType": "uint256",
					"name": "y",
					"type": "uint256"
				}
			],
			"name": "ternaryTest",
			"outputs": [
				{
					"internalType": "uint256",
					"name": "",
					"type": "uint256"
				}
			],
			"stateMutability": "pure",
			"type": "function"
		},
		{
			"inputs": [],
			"name": "whileTest",
			"outputs": [
				{
					"internalType": "uint256",
					"name": "",
					"type": "uint256"
				}
			],
			"stateMutability": "pure",
			"type": "function"
		}
	]
}